{
	"data": {
		"bytecode": {
			"linkReferences": {},
			"object": "60a06040523073ffffffffffffffffffffffffffffffffffffffff1660809073ffffffffffffffffffffffffffffffffffffffff168152503480156041575f80fd5b50608051615e616100685f395f8181613582015281816135d701526138610152615e615ff3fe608060405260043610610292575f3560e01c806375b238fc11610159578063b9d49c2a116100c0578063e2bbb15811610079578063e2bbb15814610962578063f35e4a6e1461098a578063f5485d32146109b2578063fad07ece146109da578063fe31311214610a02578063ff42335714610a4457610292565b8063b9d49c2a14610882578063bed66c08146108ac578063c713aa94146108d4578063d547741f146108fc578063d86c044414610924578063de065caa1461094c57610292565b8063a6707ee411610112578063a6707ee4146107a8578063a72d5bf4146107b2578063ab5e124a146107dc578063ad3cb1cc14610806578063b6d9d91914610830578063b908afa81461085857610292565b806375b238fc1461069e5780638dbb1e3a146106c85780638ff095f91461070457806391d148541461071a5780639e2c8a5b14610756578063a217fddf1461077e57610292565b8063386be144116101fd57806351eb05a6116101b657806351eb05a6146105e057806352d1902d146106085780635bb6d007146106325780635c975abb146106485780636155e3de14610672578063630b5ba11461068857610292565b8063386be144146104d05780633b82783e146104fa57806341721ab71461053657806348cd4cb1146105725780634ec81af11461059c5780634f1ef286146105c457610292565b80632e1a7d4d1161024f5780632e1a7d4d146103c85780632f2ff15d146103f05780632f3ffb9f1461041857806336568abe1461044257806337849b3c1461046a578063379607f5146104a857610292565b806301ffc9a71461029657806302559004146102d2578063081e3eda146102fc578063083c6323146103265780631154823414610350578063248a9ca31461038c575b5f80fd5b3480156102a1575f80fd5b506102bc60048036038101906102b791906142cf565b610a81565b6040516102c99190614314565b60405180910390f35b3480156102dd575f80fd5b506102e6610afa565b6040516102f39190614345565b60405180910390f35b348015610307575f80fd5b50610310610b00565b60405161031d9190614345565b60405180910390f35b348015610331575f80fd5b5061033a610b0c565b6040516103479190614345565b60405180910390f35b34801561035b575f80fd5b50610376600480360381019061037191906143e2565b610b12565b6040516103839190614345565b60405180910390f35b348015610397575f80fd5b506103b260048036038101906103ad9190614453565b610bb3565b6040516103bf919061448d565b60405180910390f35b3480156103d3575f80fd5b506103ee60048036038101906103e991906144a6565b610bdd565b005b3480156103fb575f80fd5b50610416600480360381019061041191906144d1565b610f6c565b005b348015610423575f80fd5b5061042c610f8e565b6040516104399190614314565b60405180910390f35b34801561044d575f80fd5b50610468600480360381019061046391906144d1565b610fa0565b005b348015610475575f80fd5b50610490600480360381019061048b91906143e2565b61101b565b60405161049f9392919061450f565b60405180910390f35b3480156104b3575f80fd5b506104ce60048036038101906104c991906144a6565b61104c565b005b3480156104db575f80fd5b506104e461124e565b6040516104f19190614345565b60405180910390f35b348015610505575f80fd5b50610520600480360381019061051b91906143e2565b611254565b60405161052d9190614345565b60405180910390f35b348015610541575f80fd5b5061055c60048036038101906105579190614544565b6112b1565b6040516105699190614345565b60405180910390f35b34801561057d575f80fd5b50610586611442565b6040516105939190614345565b60405180910390f35b3480156105a7575f80fd5b506105c260048036038101906105bd91906145cf565b611447565b005b6105de60048036038101906105d9919061476f565b6116a8565b005b3480156105eb575f80fd5b50610606600480360381019061060191906144a6565b6116c7565b005b348015610613575f80fd5b5061061c611990565b604051610629919061448d565b60405180910390f35b34801561063d575f80fd5b506106466119c1565b005b348015610653575f80fd5b5061065c611a81565b6040516106699190614314565b60405180910390f35b34801561067d575f80fd5b50610686611aa3565b005b348015610693575f80fd5b5061069c611b65565b005b3480156106a9575f80fd5b506106b2611b92565b6040516106bf919061448d565b60405180910390f35b3480156106d3575f80fd5b506106ee60048036038101906106e991906147c9565b611bb6565b6040516106fb9190614345565b60405180910390f35b34801561070f575f80fd5b50610718611ccb565b005b348015610725575f80fd5b50610740600480360381019061073b91906144d1565b611d8f565b60405161074d9190614314565b60405180910390f35b348015610761575f80fd5b5061077c600480360381019061077791906147c9565b611e00565b005b348015610789575f80fd5b506107926120d7565b60405161079f919061448d565b60405180910390f35b6107b06120dd565b005b3480156107bd575f80fd5b506107c66121f1565b6040516107d39190614862565b60405180910390f35b3480156107e7575f80fd5b506107f0612217565b6040516107fd9190614314565b60405180910390f35b348015610811575f80fd5b5061081a61222a565b60405161082791906148db565b60405180910390f35b34801561083b575f80fd5b5061085660048036038101906108519190614925565b612263565b005b348015610863575f80fd5b5061086c612587565b604051610879919061448d565b60405180910390f35b34801561088d575f80fd5b506108966125ab565b6040516108a39190614345565b60405180910390f35b3480156108b7575f80fd5b506108d260048036038101906108cd91906144a6565b6125af565b005b3480156108df575f80fd5b506108fa60048036038101906108f591906144a6565b612653565b005b348015610907575f80fd5b50610922600480360381019061091d91906144d1565b6126f9565b005b34801561092f575f80fd5b5061094a6004803603810190610945919061499c565b61271b565b005b348015610957575f80fd5b50610960612813565b005b34801561096d575f80fd5b50610988600480360381019061098391906147c9565b6128d5565b005b348015610995575f80fd5b506109b060048036038101906109ab91906144a6565b612a38565b005b3480156109bd575f80fd5b506109d860048036038101906109d391906149ec565b612ade565b005b3480156109e5575f80fd5b50610a0060048036038101906109fb9190614a17565b612bb2565b005b348015610a0d575f80fd5b50610a286004803603810190610a2391906144a6565b612d21565b604051610a3b9796959493929190614a76565b60405180910390f35b348015610a4f575f80fd5b50610a6a6004803603810190610a6591906143e2565b612d8d565b604051610a78929190614ae3565b60405180910390f35b5f7f7965db0b000000000000000000000000000000000000000000000000000000007bffffffffffffffffffffffffffffffffffffffffffffffffffffffff1916827bffffffffffffffffffffffffffffffffffffffffffffffffffffffff19161480610af35750610af282612edf565b5b9050919050565b60045481565b5f600580549050905090565b60015481565b5f826005805490508110610b5b576040517f08c379a0000000000000000000000000000000000000000000000000000000008152600401610b5290614b54565b60405180910390fd5b60065f8581526020019081526020015f205f8473ffffffffffffffffffffffffffffffffffffffff1673ffffffffffffffffffffffffffffffffffffffff1681526020019081526020015f205f015491505092915050565b5f80610bbd612f48565b9050805f015f8481526020019081526020015f2060010154915050919050565b610be5612f6f565b806005805490508110610c2d576040517f08c379a0000000000000000000000000000000000000000000000000000000008152600401610c2490614b54565b60405180910390fd5b60035f9054906101000a900460ff1615610c7c576040517f08c379a0000000000000000000000000000000000000000000000000000000008152600401610c7390614bbc565b60405180910390fd5b5f60058381548110610c9157610c90614bda565b5b905f5260205f20906007020190505f60065f8581526020019081526020015f205f3373ffffffffffffffffffffffffffffffffffffffff1673ffffffffffffffffffffffffffffffffffffffff1681526020019081526020015f2090505f805f5b8360030180549050811015610d7a5743846003018281548110610d1857610d17614bda565b5b905f5260205f2090600202016001015411610d7a57836003018181548110610d4357610d42614bda565b5b905f5260205f2090600202015f015483610d5d9190614c34565b92508180610d6a90614c67565b9250508080600101915050610cf2565b505f5b818460030180549050610d909190614cae565b811015610e0857836003018282610da79190614c34565b81548110610db857610db7614bda565b5b905f5260205f209060020201846003018281548110610dda57610dd9614bda565b5b905f5260205f2090600202015f820154815f0155600182015481600101559050508080600101915050610d7d565b505f5b81811015610e585783600301805480610e2757610e26614ce1565b5b600190038181905f5260205f2090600202015f8082015f9055600182015f9055505090558080600101915050610e0b565b505f821115610f14575f73ffffffffffffffffffffffffffffffffffffffff16845f015f9054906101000a900473ffffffffffffffffffffffffffffffffffffffff1673ffffffffffffffffffffffffffffffffffffffff1603610ec557610ec03383612fb0565b610f13565b610f123383865f015f9054906101000a900473ffffffffffffffffffffffffffffffffffffffff1673ffffffffffffffffffffffffffffffffffffffff166130bd9092919063ffffffff16565b5b5b43863373ffffffffffffffffffffffffffffffffffffffff167f02f25270a4d87bea75db541cdfe559334a275b4a233520ed6c0a2429667cca9485604051610f5c9190614345565b60405180910390a4505050505050565b610f7582610bb3565b610f7e8161313c565b610f888383613150565b50505050565b60035f9054906101000a900460ff1681565b610fa8613248565b73ffffffffffffffffffffffffffffffffffffffff168173ffffffffffffffffffffffffffffffffffffffff161461100c576040517f6697b23200000000000000000000000000000000000000000000000000000000815260040160405180910390fd5b611016828261324f565b505050565b6006602052815f5260405f20602052805f5260405f205f9150915050805f0154908060010154908060020154905083565b611054612f6f565b80600580549050811061109c576040517f08c379a000000000000000000000000000000000000000000000000000000000815260040161109390614b54565b60405180910390fd5b600360019054906101000a900460ff16156110ec576040517f08c379a00000000000000000000000000000000000000000000000000000000081526004016110e390614d58565b60405180910390fd5b5f6005838154811061110157611100614bda565b5b905f5260205f20906007020190505f60065f8581526020019081526020015f205f3373ffffffffffffffffffffffffffffffffffffffff1673ffffffffffffffffffffffffffffffffffffffff1681526020019081526020015f209050611167846116c7565b5f81600201548260010154670de0b6b3a76400008560030154855f015461118e9190614d76565b6111989190614de4565b6111a29190614cae565b6111ac9190614c34565b90505f8111156111ca575f82600201819055506111c93382613347565b5b670de0b6b3a76400008360030154835f01546111e69190614d76565b6111f09190614de4565b8260010181905550843373ffffffffffffffffffffffffffffffffffffffff167f34fcbac0073d7c3d388e51312faf357774904998eeb8fca628b9e6f65ee1cbf78360405161123f9190614345565b60405180910390a35050505050565b60025481565b5f82600580549050811061129d576040517f08c379a000000000000000000000000000000000000000000000000000000000815260040161129490614b54565b60405180910390fd5b6112a88484436112b1565b91505092915050565b5f8360058054905081106112fa576040517f08c379a00000000000000000000000000000000000000000000000000000000081526004016112f190614b54565b60405180910390fd5b5f6005868154811061130f5761130e614bda565b5b905f5260205f20906007020190505f60065f8881526020019081526020015f205f8773ffffffffffffffffffffffffffffffffffffffff1673ffffffffffffffffffffffffffffffffffffffff1681526020019081526020015f2090505f826003015490505f8360040154905083600201548711801561138f57505f8114155b156113f4575f6113a3856002015489611bb6565b90505f6004548660010154836113b99190614d76565b6113c39190614de4565b905082670de0b6b3a7640000826113da9190614d76565b6113e49190614de4565b846113ef9190614c34565b935050505b82600201548360010154670de0b6b3a764000084865f01546114169190614d76565b6114209190614de4565b61142a9190614cae565b6114349190614c34565b955050505050509392505050565b5f5481565b5f611450613533565b90505f815f0160089054906101000a900460ff161590505f825f015f9054906101000a900467ffffffffffffffff1690505f808267ffffffffffffffff161480156114985750825b90505f60018367ffffffffffffffff161480156114cb57505f3073ffffffffffffffffffffffffffffffffffffffff163b145b9050811580156114d9575080155b15611510576040517ff92ee8a900000000000000000000000000000000000000000000000000000000815260040160405180910390fd5b6001855f015f6101000a81548167ffffffffffffffff021916908367ffffffffffffffff160217905550831561155d576001855f0160086101000a81548160ff0219169083151502179055505b86881115801561156c57505f86115b6115ab576040517f08c379a00000000000000000000000000000000000000000000000000000000081526004016115a290614e5e565b60405180910390fd5b6115b361355a565b6115bb613564565b6115c361356e565b6115cf5f801b33613150565b506115fa7fcab03bc4dbcc648cd59d6bbe9f848d1e9092f914016aa290ee92e18700d1e6f933613150565b506116257f589d473ba17c0f47d494622893831497bad25919b9afb8e33e9521b8963fccde33613150565b5061162f89612ade565b875f819055508660018190555085600281905550831561169d575f855f0160086101000a81548160ff0219169083151502179055507fc7f505b2f371ae2175ee4913f4499e1f2633a7b5936321eed1cdaeb6115181d260016040516116949190614ec8565b60405180910390a15b505050505050505050565b6116b0613580565b6116b982613666565b6116c38282613694565b5050565b80600580549050811061170f576040517f08c379a000000000000000000000000000000000000000000000000000000000815260040161170690614b54565b60405180910390fd5b5f6005838154811061172457611723614bda565b5b905f5260205f209060070201905080600201544311611743575061198c565b5f80611769836001015461175b856002015443611bb6565b6137b290919063ffffffff16565b91509150816117ad576040517f08c379a00000000000000000000000000000000000000000000000000000000081526004016117a490614f2b565b60405180910390fd5b6117c26004548261380090919063ffffffff16565b80925081935050508161180a576040517f08c379a000000000000000000000000000000000000000000000000000000000815260040161180190614fb9565b60405180910390fd5b5f836004015490505f811115611941575f80611837670de0b6b3a7640000856137b290919063ffffffff16565b915091508161187b576040517f08c379a000000000000000000000000000000000000000000000000000000000815260040161187290615021565b60405180910390fd5b61188e838261380090919063ffffffff16565b8092508193505050816118d6576040517f08c379a00000000000000000000000000000000000000000000000000000000081526004016118cd90615089565b60405180910390fd5b5f806118ef83896003015461383390919063ffffffff16565b9150915081611933576040517f08c379a000000000000000000000000000000000000000000000000000000000815260040161192a906150f1565b60405180910390fd5b808860030181905550505050505b4384600201819055508360020154867ff5d2d72d9b25d6853afd7d0554a113b705234b6a68bb36b7f1436629946324118460405161197f9190614345565b60405180910390a3505050505b5050565b5f61199961385f565b7f360894a13ba1a3210667c828492db98dca3e2076cc3735a920a3ca505d382bbc5f1b905090565b7f589d473ba17c0f47d494622893831497bad25919b9afb8e33e9521b8963fccde6119eb8161313c565b60035f9054906101000a900460ff16611a39576040517f08c379a0000000000000000000000000000000000000000000000000000000008152600401611a309061517f565b60405180910390fd5b5f60035f6101000a81548160ff0219169083151502179055507f1c84bcaead48b692cc46b9b12e9a068951a59c99a2e2bf10b00b60b403cf12e260405160405180910390a150565b5f80611a8b6138e6565b9050805f015f9054906101000a900460ff1691505090565b7f589d473ba17c0f47d494622893831497bad25919b9afb8e33e9521b8963fccde611acd8161313c565b60035f9054906101000a900460ff1615611b1c576040517f08c379a0000000000000000000000000000000000000000000000000000000008152600401611b13906151e7565b60405180910390fd5b600160035f6101000a81548160ff0219169083151502179055507f8099f593a6aaecd68b6494933cd71f703376ac3975be83692e1b7d800abf683760405160405180910390a150565b5f60058054905090505f5b81811015611b8e57611b81816116c7565b8080600101915050611b70565b5050565b7f589d473ba17c0f47d494622893831497bad25919b9afb8e33e9521b8963fccde81565b5f81831115611bfa576040517f08c379a0000000000000000000000000000000000000000000000000000000008152600401611bf19061524f565b60405180910390fd5b5f54831015611c08575f5492505b600154821115611c185760015491505b81831115611c5b576040517f08c379a0000000000000000000000000000000000000000000000000000000008152600401611c52906152dd565b60405180910390fd5b5f611c7c6002548585611c6e9190614cae565b6137b290919063ffffffff16565b809350819250505080611cc4576040517f08c379a0000000000000000000000000000000000000000000000000000000008152600401611cbb90615345565b60405180910390fd5b5092915050565b7f589d473ba17c0f47d494622893831497bad25919b9afb8e33e9521b8963fccde611cf58161313c565b600360019054906101000a900460ff1615611d45576040517f08c379a0000000000000000000000000000000000000000000000000000000008152600401611d3c906153ad565b60405180910390fd5b6001600360016101000a81548160ff0219169083151502179055507f6d73d6b34c378ab3bf6630206d60b7882801b91d03ee20d016ff0d5054db81e160405160405180910390a150565b5f80611d99612f48565b9050805f015f8581526020019081526020015f205f015f8473ffffffffffffffffffffffffffffffffffffffff1673ffffffffffffffffffffffffffffffffffffffff1681526020019081526020015f205f9054906101000a900460ff1691505092915050565b611e08612f6f565b816005805490508110611e50576040517f08c379a0000000000000000000000000000000000000000000000000000000008152600401611e4790614b54565b60405180910390fd5b60035f9054906101000a900460ff1615611e9f576040517f08c379a0000000000000000000000000000000000000000000000000000000008152600401611e9690614bbc565b60405180910390fd5b5f60058481548110611eb457611eb3614bda565b5b905f5260205f20906007020190505f60065f8681526020019081526020015f205f3373ffffffffffffffffffffffffffffffffffffffff1673ffffffffffffffffffffffffffffffffffffffff1681526020019081526020015f20905083815f01541015611f57576040517f08c379a0000000000000000000000000000000000000000000000000000000008152600401611f4e90615415565b60405180910390fd5b611f60856116c7565b5f8160010154670de0b6b3a76400008460030154845f0154611f829190614d76565b611f8c9190614de4565b611f969190614cae565b90505f811115611fb957808260020154611fb09190614c34565b82600201819055505b5f85111561203a5784825f0154611fd09190614cae565b825f0181905550816003016040518060400160405280878152602001856006015443611ffc9190614c34565b815250908060018154018082558091505060019003905f5260205f2090600202015f909190919091505f820151815f01556020820151816001015550505b84836004015461204a9190614cae565b8360040181905550670de0b6b3a76400008360030154835f015461206e9190614d76565b6120789190614de4565b8260010181905550853373ffffffffffffffffffffffffffffffffffffffff167fc80277265097707f6f12a4ac4c09d46c9926e2eea2536f63616cb04d9fcad7d6876040516120c79190614345565b60405180910390a3505050505050565b5f801b81565b6120e5612f6f565b5f60055f815481106120fa576120f9614bda565b5b905f5260205f20906007020190505f73ffffffffffffffffffffffffffffffffffffffff16815f015f9054906101000a900473ffffffffffffffffffffffffffffffffffffffff1673ffffffffffffffffffffffffffffffffffffffff1614612198576040517f08c379a000000000000000000000000000000000000000000000000000000000815260040161218f9061547d565b60405180910390fd5b5f34905081600501548110156121e3576040517f08c379a00000000000000000000000000000000000000000000000000000000081526004016121da906154e5565b60405180910390fd5b6121ed5f8261390d565b5050565b600360029054906101000a900473ffffffffffffffffffffffffffffffffffffffff1681565b600360019054906101000a900460ff1681565b6040518060400160405280600581526020017f352e302e3000000000000000000000000000000000000000000000000000000081525081565b7f589d473ba17c0f47d494622893831497bad25919b9afb8e33e9521b8963fccde61228d8161313c565b5f600580549050111561230d575f73ffffffffffffffffffffffffffffffffffffffff168673ffffffffffffffffffffffffffffffffffffffff1603612308576040517f08c379a00000000000000000000000000000000000000000000000000000000081526004016122ff9061547d565b60405180910390fd5b61237c565b5f73ffffffffffffffffffffffffffffffffffffffff168673ffffffffffffffffffffffffffffffffffffffff161461237b576040517f08c379a00000000000000000000000000000000000000000000000000000000081526004016123729061547d565b60405180910390fd5b5b5f83116123be576040517f08c379a00000000000000000000000000000000000000000000000000000000081526004016123b59061554d565b60405180910390fd5b6001544310612402576040517f08c379a00000000000000000000000000000000000000000000000000000000081526004016123f9906155b5565b60405180910390fd5b811561241157612410611b65565b5b5f80544311612421575f54612423565b435b9050856004546124339190614c34565b60048190555060056040518060e001604052808973ffffffffffffffffffffffffffffffffffffffff1681526020018881526020018381526020015f81526020015f815260200187815260200186815250908060018154018082558091505060019003905f5260205f2090600702015f909190919091505f820151815f015f6101000a81548173ffffffffffffffffffffffffffffffffffffffff021916908373ffffffffffffffffffffffffffffffffffffffff1602179055506020820151816001015560408201518160020155606082015181600301556080820151816004015560a0820151816005015560c08201518160060155505080868873ffffffffffffffffffffffffffffffffffffffff167f0fa296fce13e7a0e622b3a892e66220c248337289483a3cfa4130cde0caa13468888604051612576929190614ae3565b60405180910390a450505050505050565b7fcab03bc4dbcc648cd59d6bbe9f848d1e9092f914016aa290ee92e18700d1e6f981565b5f81565b7f589d473ba17c0f47d494622893831497bad25919b9afb8e33e9521b8963fccde6125d98161313c565b5f821161261b576040517f08c379a00000000000000000000000000000000000000000000000000000000081526004016126129061561d565b60405180910390fd5b81600281905550817f4c70925b625536dd633f6bd2d615c67fddc2e7c63c31164047a981a0df3fee5460405160405180910390a25050565b7f589d473ba17c0f47d494622893831497bad25919b9afb8e33e9521b8963fccde61267d8161313c565b815f5411156126c1576040517f08c379a00000000000000000000000000000000000000000000000000000000081526004016126b8906156ab565b60405180910390fd5b81600181905550817f1132c5baccb51da3d049fabc819697dc845fa224ad59d9b555507d6446b4085060405160405180910390a25050565b61270282610bb3565b61270b8161313c565b612715838361324f565b50505050565b7f589d473ba17c0f47d494622893831497bad25919b9afb8e33e9521b8963fccde6127458161313c565b83600580549050811061278d576040517f08c379a000000000000000000000000000000000000000000000000000000000815260040161278490614b54565b60405180910390fd5b83600586815481106127a2576127a1614bda565b5b905f5260205f2090600702016005018190555082600586815481106127ca576127c9614bda565b5b905f5260205f209060070201600601819055508284867f30dffdedaa3e3b4849298233f7cd71d229956e875ab09270498c96b7cf9181fd60405160405180910390a45050505050565b7f589d473ba17c0f47d494622893831497bad25919b9afb8e33e9521b8963fccde61283d8161313c565b600360019054906101000a900460ff1661288c576040517f08c379a000000000000000000000000000000000000000000000000000000000815260040161288390615713565b60405180910390fd5b5f600360016101000a81548160ff0219169083151502179055507fe72cb12952f056e3e7496019725f20a13108ca420f67f1ee9c9cdab73fb8ce8560405160405180910390a150565b6128dd612f6f565b816005805490508110612925576040517f08c379a000000000000000000000000000000000000000000000000000000000815260040161291c90614b54565b60405180910390fd5b5f8303612967576040517f08c379a000000000000000000000000000000000000000000000000000000000815260040161295e906157a1565b60405180910390fd5b5f6005848154811061297c5761297b614bda565b5b905f5260205f2090600702019050806005015483116129d0576040517f08c379a00000000000000000000000000000000000000000000000000000000081526004016129c7906154e5565b60405180910390fd5b5f831115612a2857612a27333085845f015f9054906101000a900473ffffffffffffffffffffffffffffffffffffffff1673ffffffffffffffffffffffffffffffffffffffff16613d23909392919063ffffffff16565b5b612a32848461390d565b50505050565b7f589d473ba17c0f47d494622893831497bad25919b9afb8e33e9521b8963fccde612a628161313c565b600154821115612aa7576040517f08c379a0000000000000000000000000000000000000000000000000000000008152600401612a9e906156ab565b60405180910390fd5b815f81905550817f63b90b79f11a0f132bcb2c4a4ddd44abda45c1308a83b2919318df7f5f8b7be460405160405180910390a25050565b7f589d473ba17c0f47d494622893831497bad25919b9afb8e33e9521b8963fccde612b088161313c565b81600360026101000a81548173ffffffffffffffffffffffffffffffffffffffff021916908373ffffffffffffffffffffffffffffffffffffffff160217905550600360029054906101000a900473ffffffffffffffffffffffffffffffffffffffff1673ffffffffffffffffffffffffffffffffffffffff167f153aae53b92218044bd5f43922617c6b253e50ac98a41b44c3acb5625ded348860405160405180910390a25050565b7f589d473ba17c0f47d494622893831497bad25919b9afb8e33e9521b8963fccde612bdc8161313c565b836005805490508110612c24576040517f08c379a0000000000000000000000000000000000000000000000000000000008152600401612c1b90614b54565b60405180910390fd5b5f8411612c66576040517f08c379a0000000000000000000000000000000000000000000000000000000008152600401612c5d90615809565b60405180910390fd5b8215612c7557612c74611b65565b5b8360058681548110612c8a57612c89614bda565b5b905f5260205f20906007020160010154600454612ca79190614cae565b612cb19190614c34565b6004819055508360058681548110612ccc57612ccb614bda565b5b905f5260205f2090600702016001018190555083857f4b8fa3d6a87cb21d1bf4978bf60628ae358a28ac7f39de1751a481c6dd957617600454604051612d129190614345565b60405180910390a35050505050565b60058181548110612d30575f80fd5b905f5260205f2090600702015f91509050805f015f9054906101000a900473ffffffffffffffffffffffffffffffffffffffff16908060010154908060020154908060030154908060040154908060050154908060060154905087565b5f80836005805490508110612dd7576040517f08c379a0000000000000000000000000000000000000000000000000000000008152600401612dce90614b54565b60405180910390fd5b5f60065f8781526020019081526020015f205f8673ffffffffffffffffffffffffffffffffffffffff1673ffffffffffffffffffffffffffffffffffffffff1681526020019081526020015f2090505f5b8160030180549050811015612ed55743826003018281548110612e4e57612e4d614bda565b5b905f5260205f2090600202016001015411612e9657816003018181548110612e7957612e78614bda565b5b905f5260205f2090600202015f015484612e939190614c34565b93505b816003018181548110612eac57612eab614bda565b5b905f5260205f2090600202015f015485612ec69190614c34565b94508080600101915050612e28565b5050509250929050565b5f7f01ffc9a7000000000000000000000000000000000000000000000000000000007bffffffffffffffffffffffffffffffffffffffffffffffffffffffff1916827bffffffffffffffffffffffffffffffffffffffffffffffffffffffff1916149050919050565b5f7f02dd7bc7dec4dceedda775e58dd541e08a116c6c53815c0bd028192f7b626800905090565b612f77611a81565b15612fae576040517fd93c066500000000000000000000000000000000000000000000000000000000815260040160405180910390fd5b565b5f808373ffffffffffffffffffffffffffffffffffffffff1683604051612fd690615854565b5f6040518083038185875af1925050503d805f8114613010576040519150601f19603f3d011682016040523d82523d5f602084013e613015565b606091505b50915091508161305a576040517f08c379a0000000000000000000000000000000000000000000000000000000008152600401613051906158d8565b60405180910390fd5b5f815111156130b75780806020019051810190613077919061590a565b6130b6576040517f08c379a00000000000000000000000000000000000000000000000000000000081526004016130ad906159a5565b60405180910390fd5b5b50505050565b613137838473ffffffffffffffffffffffffffffffffffffffff1663a9059cbb85856040516024016130f09291906159c3565b604051602081830303815290604052915060e01b6020820180517bffffffffffffffffffffffffffffffffffffffffffffffffffffffff8381831617835250505050613da5565b505050565b61314d81613148613248565b613e40565b50565b5f8061315a612f48565b90506131668484611d8f565b61323d576001815f015f8681526020019081526020015f205f015f8573ffffffffffffffffffffffffffffffffffffffff1673ffffffffffffffffffffffffffffffffffffffff1681526020019081526020015f205f6101000a81548160ff0219169083151502179055506131d9613248565b73ffffffffffffffffffffffffffffffffffffffff168373ffffffffffffffffffffffffffffffffffffffff16857f2f8788117e7eff1d82e926ec794901d17c78024a50270940304540a733656f0d60405160405180910390a46001915050613242565b5f9150505b92915050565b5f33905090565b5f80613259612f48565b90506132658484611d8f565b1561333c575f815f015f8681526020019081526020015f205f015f8573ffffffffffffffffffffffffffffffffffffffff1673ffffffffffffffffffffffffffffffffffffffff1681526020019081526020015f205f6101000a81548160ff0219169083151502179055506132d8613248565b73ffffffffffffffffffffffffffffffffffffffff168373ffffffffffffffffffffffffffffffffffffffff16857ff6391f5c32d9c69d2a47ea670b442974b53935d1edc7fd64eb21e047a839171b60405160405180910390a46001915050613341565b5f9150505b92915050565b5f600360029054906101000a900473ffffffffffffffffffffffffffffffffffffffff1673ffffffffffffffffffffffffffffffffffffffff166370a08231306040518263ffffffff1660e01b81526004016133a391906159ea565b602060405180830381865afa1580156133be573d5f803e3d5ffd5b505050506040513d601f19601f820116820180604052508101906133e29190615a17565b90508082111561348f57600360029054906101000a900473ffffffffffffffffffffffffffffffffffffffff1673ffffffffffffffffffffffffffffffffffffffff1663a9059cbb84836040518363ffffffff1660e01b81526004016134499291906159c3565b6020604051808303815f875af1158015613465573d5f803e3d5ffd5b505050506040513d601f19601f82011682018060405250810190613489919061590a565b5061352e565b600360029054906101000a900473ffffffffffffffffffffffffffffffffffffffff1673ffffffffffffffffffffffffffffffffffffffff1663a9059cbb84846040518363ffffffff1660e01b81526004016134ec9291906159c3565b6020604051808303815f875af1158015613508573d5f803e3d5ffd5b505050506040513d601f19601f8201168201806040525081019061352c919061590a565b505b505050565b5f7ff0c57e16840df040f15088dc2f81fe391c3923bec73e23a9662efc9c229c6a00905090565b613562613e91565b565b61356c613e91565b565b613576613e91565b61357e613ed1565b565b7f000000000000000000000000000000000000000000000000000000000000000073ffffffffffffffffffffffffffffffffffffffff163073ffffffffffffffffffffffffffffffffffffffff16148061362d57507f000000000000000000000000000000000000000000000000000000000000000073ffffffffffffffffffffffffffffffffffffffff16613614613f01565b73ffffffffffffffffffffffffffffffffffffffff1614155b15613664576040517fe07c8dba00000000000000000000000000000000000000000000000000000000815260040160405180910390fd5b565b7fcab03bc4dbcc648cd59d6bbe9f848d1e9092f914016aa290ee92e18700d1e6f96136908161313c565b5050565b8173ffffffffffffffffffffffffffffffffffffffff166352d1902d6040518163ffffffff1660e01b8152600401602060405180830381865afa9250505080156136fc57506040513d601f19601f820116820180604052508101906136f99190615a56565b60015b61373d57816040517f4c9c8ce300000000000000000000000000000000000000000000000000000000815260040161373491906159ea565b60405180910390fd5b7f360894a13ba1a3210667c828492db98dca3e2076cc3735a920a3ca505d382bbc5f1b81146137a357806040517faa1d49a400000000000000000000000000000000000000000000000000000000815260040161379a919061448d565b60405180910390fd5b6137ad8383613f54565b505050565b5f805f84036137c75760015f915091506137f9565b5f8385029050838582816137de576137dd614db7565b5b04146137f0575f8092509250506137f9565b60018192509250505b9250929050565b5f805f8303613814575f809150915061382c565b600183858161382657613825614db7565b5b04915091505b9250929050565b5f805f83850190508481101561384f575f809250925050613858565b60018192509250505b9250929050565b7f000000000000000000000000000000000000000000000000000000000000000073ffffffffffffffffffffffffffffffffffffffff163073ffffffffffffffffffffffffffffffffffffffff16146138e4576040517fe07c8dba00000000000000000000000000000000000000000000000000000000815260040160405180910390fd5b565b5f7fcd5ed15c6e187e77e9aee88184c21f4f2182ab5827cb3b7e07fbedcd63f03300905090565b5f6005838154811061392257613921614bda565b5b905f5260205f20906007020190505f60065f8581526020019081526020015f205f3373ffffffffffffffffffffffffffffffffffffffff1673ffffffffffffffffffffffffffffffffffffffff1681526020019081526020015f209050613988846116c7565b5f815f01541115613b29575f806139af8460030154845f01546137b290919063ffffffff16565b91509150816139f3576040517f08c379a00000000000000000000000000000000000000000000000000000000081526004016139ea90615af1565b60405180910390fd5b613a0e670de0b6b3a76400008261380090919063ffffffff16565b809250819350505081613a56576040517f08c379a0000000000000000000000000000000000000000000000000000000008152600401613a4d90615b59565b60405180910390fd5b5f80613a6f856001015484613fc690919063ffffffff16565b9150915081613ab3576040517f08c379a0000000000000000000000000000000000000000000000000000000008152600401613aaa90615bc1565b60405180910390fd5b5f811115613b24575f80613ad483886002015461383390919063ffffffff16565b9150915081613b18576040517f08c379a0000000000000000000000000000000000000000000000000000000008152600401613b0f90615c29565b60405180910390fd5b80876002018190555050505b505050505b5f831115613b98575f80613b4985845f015461383390919063ffffffff16565b9150915081613b8d576040517f08c379a0000000000000000000000000000000000000000000000000000000008152600401613b8490615c91565b60405180910390fd5b80835f018190555050505b5f80613bb185856004015461383390919063ffffffff16565b9150915081613bf5576040517f08c379a0000000000000000000000000000000000000000000000000000000008152600401613bec90615cf9565b60405180910390fd5b8084600401819055505f80613c1a8660030154865f01546137b290919063ffffffff16565b9150915081613c5e576040517f08c379a0000000000000000000000000000000000000000000000000000000008152600401613c5590615af1565b60405180910390fd5b613c79670de0b6b3a76400008261380090919063ffffffff16565b809250819350505081613cc1576040517f08c379a0000000000000000000000000000000000000000000000000000000008152600401613cb890615d61565b60405180910390fd5b808560010181905550873373ffffffffffffffffffffffffffffffffffffffff167f90890809c654f11d6e72a28fa60149770a0d11ec6c92319d6ceb2bb0a4ea1a1589604051613d119190614345565b60405180910390a35050505050505050565b613d9f848573ffffffffffffffffffffffffffffffffffffffff166323b872dd868686604051602401613d5893929190615d7f565b604051602081830303815290604052915060e01b6020820180517bffffffffffffffffffffffffffffffffffffffffffffffffffffffff8381831617835250505050613da5565b50505050565b5f8060205f8451602086015f885af180613dc4576040513d5f823e3d81fd5b3d92505f519150505f8214613ddd576001811415613df8565b5f8473ffffffffffffffffffffffffffffffffffffffff163b145b15613e3a57836040517f5274afe7000000000000000000000000000000000000000000000000000000008152600401613e3191906159ea565b60405180910390fd5b50505050565b613e4a8282611d8f565b613e8d5780826040517fe2517d3f000000000000000000000000000000000000000000000000000000008152600401613e84929190615db4565b60405180910390fd5b5050565b613e99613fec565b613ecf576040517fd7e6bcf800000000000000000000000000000000000000000000000000000000815260040160405180910390fd5b565b613ed9613e91565b5f613ee26138e6565b90505f815f015f6101000a81548160ff02191690831515021790555050565b5f613f2d7f360894a13ba1a3210667c828492db98dca3e2076cc3735a920a3ca505d382bbc5f1b61400a565b5f015f9054906101000a900473ffffffffffffffffffffffffffffffffffffffff16905090565b613f5d82614013565b8173ffffffffffffffffffffffffffffffffffffffff167fbc7cd75a20ee27fd9adebab32041f755214dbc6bffa90cc0225b39da2e5c2d3b60405160405180910390a25f81511115613fb957613fb382826140dc565b50613fc2565b613fc161415c565b5b5050565b5f8083831115613fdb575f8091509150613fe5565b6001838503915091505b9250929050565b5f613ff5613533565b5f0160089054906101000a900460ff16905090565b5f819050919050565b5f8173ffffffffffffffffffffffffffffffffffffffff163b0361406e57806040517f4c9c8ce300000000000000000000000000000000000000000000000000000000815260040161406591906159ea565b60405180910390fd5b8061409a7f360894a13ba1a3210667c828492db98dca3e2076cc3735a920a3ca505d382bbc5f1b61400a565b5f015f6101000a81548173ffffffffffffffffffffffffffffffffffffffff021916908373ffffffffffffffffffffffffffffffffffffffff16021790555050565b60605f808473ffffffffffffffffffffffffffffffffffffffff16846040516141059190615e15565b5f60405180830381855af49150503d805f811461413d576040519150601f19603f3d011682016040523d82523d5f602084013e614142565b606091505b5091509150614152858383614198565b9250505092915050565b5f341115614196576040517fb398979f00000000000000000000000000000000000000000000000000000000815260040160405180910390fd5b565b6060826141ad576141a882614225565b61421d565b5f82511480156141d357505f8473ffffffffffffffffffffffffffffffffffffffff163b145b1561421557836040517f9996b31500000000000000000000000000000000000000000000000000000000815260040161420c91906159ea565b60405180910390fd5b81905061421e565b5b9392505050565b5f815111156142375780518082602001fd5b6040517fd6bda27500000000000000000000000000000000000000000000000000000000815260040160405180910390fd5b5f604051905090565b5f80fd5b5f80fd5b5f7fffffffff0000000000000000000000000000000000000000000000000000000082169050919050565b6142ae8161427a565b81146142b8575f80fd5b50565b5f813590506142c9816142a5565b92915050565b5f602082840312156142e4576142e3614272565b5b5f6142f1848285016142bb565b91505092915050565b5f8115159050919050565b61430e816142fa565b82525050565b5f6020820190506143275f830184614305565b92915050565b5f819050919050565b61433f8161432d565b82525050565b5f6020820190506143585f830184614336565b92915050565b6143678161432d565b8114614371575f80fd5b50565b5f813590506143828161435e565b92915050565b5f73ffffffffffffffffffffffffffffffffffffffff82169050919050565b5f6143b182614388565b9050919050565b6143c1816143a7565b81146143cb575f80fd5b50565b5f813590506143dc816143b8565b92915050565b5f80604083850312156143f8576143f7614272565b5b5f61440585828601614374565b9250506020614416858286016143ce565b9150509250929050565b5f819050919050565b61443281614420565b811461443c575f80fd5b50565b5f8135905061444d81614429565b92915050565b5f6020828403121561446857614467614272565b5b5f6144758482850161443f565b91505092915050565b61448781614420565b82525050565b5f6020820190506144a05f83018461447e565b92915050565b5f602082840312156144bb576144ba614272565b5b5f6144c884828501614374565b91505092915050565b5f80604083850312156144e7576144e6614272565b5b5f6144f48582860161443f565b9250506020614505858286016143ce565b9150509250929050565b5f6060820190506145225f830186614336565b61452f6020830185614336565b61453c6040830184614336565b949350505050565b5f805f6060848603121561455b5761455a614272565b5b5f61456886828701614374565b9350506020614579868287016143ce565b925050604061458a86828701614374565b9150509250925092565b5f61459e826143a7565b9050919050565b6145ae81614594565b81146145b8575f80fd5b50565b5f813590506145c9816145a5565b92915050565b5f805f80608085870312156145e7576145e6614272565b5b5f6145f4878288016145bb565b945050602061460587828801614374565b935050604061461687828801614374565b925050606061462787828801614374565b91505092959194509250565b5f80fd5b5f80fd5b5f601f19601f8301169050919050565b7f4e487b71000000000000000000000000000000000000000000000000000000005f52604160045260245ffd5b6146818261463b565b810181811067ffffffffffffffff821117156146a05761469f61464b565b5b80604052505050565b5f6146b2614269565b90506146be8282614678565b919050565b5f67ffffffffffffffff8211156146dd576146dc61464b565b5b6146e68261463b565b9050602081019050919050565b828183375f83830152505050565b5f61471361470e846146c3565b6146a9565b90508281526020810184848401111561472f5761472e614637565b5b61473a8482856146f3565b509392505050565b5f82601f83011261475657614755614633565b5b8135614766848260208601614701565b91505092915050565b5f806040838503121561478557614784614272565b5b5f614792858286016143ce565b925050602083013567ffffffffffffffff8111156147b3576147b2614276565b5b6147bf85828601614742565b9150509250929050565b5f80604083850312156147df576147de614272565b5b5f6147ec85828601614374565b92505060206147fd85828601614374565b9150509250929050565b5f819050919050565b5f61482a61482561482084614388565b614807565b614388565b9050919050565b5f61483b82614810565b9050919050565b5f61484c82614831565b9050919050565b61485c81614842565b82525050565b5f6020820190506148755f830184614853565b92915050565b5f81519050919050565b5f82825260208201905092915050565b8281835e5f83830152505050565b5f6148ad8261487b565b6148b78185614885565b93506148c7818560208601614895565b6148d08161463b565b840191505092915050565b5f6020820190508181035f8301526148f381846148a3565b905092915050565b614904816142fa565b811461490e575f80fd5b50565b5f8135905061491f816148fb565b92915050565b5f805f805f60a0868803121561493e5761493d614272565b5b5f61494b888289016143ce565b955050602061495c88828901614374565b945050604061496d88828901614374565b935050606061497e88828901614374565b925050608061498f88828901614911565b9150509295509295909350565b5f805f606084860312156149b3576149b2614272565b5b5f6149c086828701614374565b93505060206149d186828701614374565b92505060406149e286828701614374565b9150509250925092565b5f60208284031215614a0157614a00614272565b5b5f614a0e848285016145bb565b91505092915050565b5f805f60608486031215614a2e57614a2d614272565b5b5f614a3b86828701614374565b9350506020614a4c86828701614374565b9250506040614a5d86828701614911565b9150509250925092565b614a70816143a7565b82525050565b5f60e082019050614a895f83018a614a67565b614a966020830189614336565b614aa36040830188614336565b614ab06060830187614336565b614abd6080830186614336565b614aca60a0830185614336565b614ad760c0830184614336565b98975050505050505050565b5f604082019050614af65f830185614336565b614b036020830184614336565b9392505050565b7f696e76616c6964207069640000000000000000000000000000000000000000005f82015250565b5f614b3e600b83614885565b9150614b4982614b0a565b602082019050919050565b5f6020820190508181035f830152614b6b81614b32565b9050919050565b7f77697468647261772069732070617573656400000000000000000000000000005f82015250565b5f614ba6601283614885565b9150614bb182614b72565b602082019050919050565b5f6020820190508181035f830152614bd381614b9a565b9050919050565b7f4e487b71000000000000000000000000000000000000000000000000000000005f52603260045260245ffd5b7f4e487b71000000000000000000000000000000000000000000000000000000005f52601160045260245ffd5b5f614c3e8261432d565b9150614c498361432d565b9250828201905080821115614c6157614c60614c07565b5b92915050565b5f614c718261432d565b91507fffffffffffffffffffffffffffffffffffffffffffffffffffffffffffffffff8203614ca357614ca2614c07565b5b600182019050919050565b5f614cb88261432d565b9150614cc38361432d565b9250828203905081811115614cdb57614cda614c07565b5b92915050565b7f4e487b71000000000000000000000000000000000000000000000000000000005f52603160045260245ffd5b7f636c61696d2069732070617573656400000000000000000000000000000000005f82015250565b5f614d42600f83614885565b9150614d4d82614d0e565b602082019050919050565b5f6020820190508181035f830152614d6f81614d36565b9050919050565b5f614d808261432d565b9150614d8b8361432d565b9250828202614d998161432d565b91508282048414831517614db057614daf614c07565b5b5092915050565b7f4e487b71000000000000000000000000000000000000000000000000000000005f52601260045260245ffd5b5f614dee8261432d565b9150614df98361432d565b925082614e0957614e08614db7565b5b828204905092915050565b7f696e76616c696420706172616d657465727300000000000000000000000000005f82015250565b5f614e48601283614885565b9150614e5382614e14565b602082019050919050565b5f6020820190508181035f830152614e7581614e3c565b9050919050565b5f819050919050565b5f67ffffffffffffffff82169050919050565b5f614eb2614ead614ea884614e7c565b614807565b614e85565b9050919050565b614ec281614e98565b82525050565b5f602082019050614edb5f830184614eb9565b92915050565b7f746f74616c524343206d756c20706f6f6c576569676874206f766572666c6f775f82015250565b5f614f15602083614885565b9150614f2082614ee1565b602082019050919050565b5f6020820190508181035f830152614f4281614f09565b9050919050565b7f746f74616c5243432064697620746f74616c506f6f6c576569676874206f76655f8201527f72666c6f77000000000000000000000000000000000000000000000000000000602082015250565b5f614fa3602583614885565b9150614fae82614f49565b604082019050919050565b5f6020820190508181035f830152614fd081614f97565b9050919050565b7f746f74616c524343206d756c2031206574686572206f766572666c6f770000005f82015250565b5f61500b601d83614885565b915061501682614fd7565b602082019050919050565b5f6020820190508181035f83015261503881614fff565b9050919050565b7f746f74616c52434320646976207374537570706c79206f766572666c6f7700005f82015250565b5f615073601e83614885565b915061507e8261503f565b602082019050919050565b5f6020820190508181035f8301526150a081615067565b9050919050565b7f706f6f6c206163635243435065725354206f766572666c6f77000000000000005f82015250565b5f6150db601983614885565b91506150e6826150a7565b602082019050919050565b5f6020820190508181035f830152615108816150cf565b9050919050565b7f776974686472617720686173206265656e20616c726561647920756e706175735f8201527f6564000000000000000000000000000000000000000000000000000000000000602082015250565b5f615169602283614885565b91506151748261510f565b604082019050919050565b5f6020820190508181035f8301526151968161515d565b9050919050565b7f776974686472617720686173206265656e20616c7265616479207061757365645f82015250565b5f6151d1602083614885565b91506151dc8261519d565b602082019050919050565b5f6020820190508181035f8301526151fe816151c5565b9050919050565b7f696e76616c696420626c6f636b2072616e6765000000000000000000000000005f82015250565b5f615239601383614885565b915061524482615205565b602082019050919050565b5f6020820190508181035f8301526152668161522d565b9050919050565b7f656e6420626c6f636b206d7573742062652067726561746572207468616e20735f8201527f7461727420626c6f636b00000000000000000000000000000000000000000000602082015250565b5f6152c7602a83614885565b91506152d28261526d565b604082019050919050565b5f6020820190508181035f8301526152f4816152bb565b9050919050565b7f6d756c7469706c696572206f766572666c6f77000000000000000000000000005f82015250565b5f61532f601383614885565b915061533a826152fb565b602082019050919050565b5f6020820190508181035f83015261535c81615323565b9050919050565b7f636c61696d20686173206265656e20616c7265616479207061757365640000005f82015250565b5f615397601d83614885565b91506153a282615363565b602082019050919050565b5f6020820190508181035f8301526153c48161538b565b9050919050565b7f4e6f7420656e6f756768207374616b696e6720746f6b656e2062616c616e63655f82015250565b5f6153ff602083614885565b915061540a826153cb565b602082019050919050565b5f6020820190508181035f83015261542c816153f3565b9050919050565b7f696e76616c6964207374616b696e6720746f6b656e20616464726573730000005f82015250565b5f615467601d83614885565b915061547282615433565b602082019050919050565b5f6020820190508181035f8301526154948161545b565b9050919050565b7f6465706f73697420616d6f756e7420697320746f6f20736d616c6c00000000005f82015250565b5f6154cf601b83614885565b91506154da8261549b565b602082019050919050565b5f6020820190508181035f8301526154fc816154c3565b9050919050565b7f696e76616c6964207769746864726177206c6f636b656420626c6f636b7300005f82015250565b5f615537601e83614885565b915061554282615503565b602082019050919050565b5f6020820190508181035f8301526155648161552b565b9050919050565b7f416c726561647920656e646564000000000000000000000000000000000000005f82015250565b5f61559f600d83614885565b91506155aa8261556b565b602082019050919050565b5f6020820190508181035f8301526155cc81615593565b9050919050565b7f696e76616c696420706172616d657465720000000000000000000000000000005f82015250565b5f615607601183614885565b9150615612826155d3565b602082019050919050565b5f6020820190508181035f830152615634816155fb565b9050919050565b7f737461727420626c6f636b206d75737420626520736d616c6c6572207468616e5f8201527f20656e6420626c6f636b00000000000000000000000000000000000000000000602082015250565b5f615695602a83614885565b91506156a08261563b565b604082019050919050565b5f6020820190508181035f8301526156c281615689565b9050919050565b7f636c61696d20686173206265656e20616c726561647920756e706175736564005f82015250565b5f6156fd601f83614885565b9150615708826156c9565b602082019050919050565b5f6020820190508181035f83015261572a816156f1565b9050919050565b7f6465706f736974206e6f7420737570706f7274206e617469766543757272656e5f8201527f6379207374616b696e6700000000000000000000000000000000000000000000602082015250565b5f61578b602a83614885565b915061579682615731565b604082019050919050565b5f6020820190508181035f8301526157b88161577f565b9050919050565b7f696e76616c696420706f6f6c20776569676874000000000000000000000000005f82015250565b5f6157f3601383614885565b91506157fe826157bf565b602082019050919050565b5f6020820190508181035f830152615820816157e7565b9050919050565b5f81905092915050565b50565b5f61583f5f83615827565b915061584a82615831565b5f82019050919050565b5f61585e82615834565b9150819050919050565b7f6e617469766543757272656e6379207472616e736665722063616c6c206661695f8201527f6c65640000000000000000000000000000000000000000000000000000000000602082015250565b5f6158c2602383614885565b91506158cd82615868565b604082019050919050565b5f6020820190508181035f8301526158ef816158b6565b9050919050565b5f81519050615904816148fb565b92915050565b5f6020828403121561591f5761591e614272565b5b5f61592c848285016158f6565b91505092915050565b7f6e617469766543757272656e6379207472616e73666572206f7065726174696f5f8201527f6e20646964206e6f742073756363656564000000000000000000000000000000602082015250565b5f61598f603183614885565b915061599a82615935565b604082019050919050565b5f6020820190508181035f8301526159bc81615983565b9050919050565b5f6040820190506159d65f830185614a67565b6159e36020830184614336565b9392505050565b5f6020820190506159fd5f830184614a67565b92915050565b5f81519050615a118161435e565b92915050565b5f60208284031215615a2c57615a2b614272565b5b5f615a3984828501615a03565b91505092915050565b5f81519050615a5081614429565b92915050565b5f60208284031215615a6b57615a6a614272565b5b5f615a7884828501615a42565b91505092915050565b7f75736572207374416d6f756e74206d756c206163635243435065725354206f765f8201527f6572666c6f770000000000000000000000000000000000000000000000000000602082015250565b5f615adb602683614885565b9150615ae682615a81565b604082019050919050565b5f6020820190508181035f830152615b0881615acf565b9050919050565b7f6163635354206469762031206574686572206f766572666c6f770000000000005f82015250565b5f615b43601a83614885565b9150615b4e82615b0f565b602082019050919050565b5f6020820190508181035f830152615b7081615b37565b9050919050565b7f6163635354207375622066696e6973686564524343206f766572666c6f7700005f82015250565b5f615bab601e83614885565b9150615bb682615b77565b602082019050919050565b5f6020820190508181035f830152615bd881615b9f565b9050919050565b7f757365722070656e64696e67524343206f766572666c6f7700000000000000005f82015250565b5f615c13601883614885565b9150615c1e82615bdf565b602082019050919050565b5f6020820190508181035f830152615c4081615c07565b9050919050565b7f75736572207374416d6f756e74206f766572666c6f77000000000000000000005f82015250565b5f615c7b601683614885565b9150615c8682615c47565b602082019050919050565b5f6020820190508181035f830152615ca881615c6f565b9050919050565b7f706f6f6c207374546f6b656e416d6f756e74206f766572666c6f7700000000005f82015250565b5f615ce3601b83614885565b9150615cee82615caf565b602082019050919050565b5f6020820190508181035f830152615d1081615cd7565b9050919050565b7f66696e6973686564524343206469762031206574686572206f766572666c6f775f82015250565b5f615d4b602083614885565b9150615d5682615d17565b602082019050919050565b5f6020820190508181035f830152615d7881615d3f565b9050919050565b5f606082019050615d925f830186614a67565b615d9f6020830185614a67565b615dac6040830184614336565b949350505050565b5f604082019050615dc75f830185614a67565b615dd4602083018461447e565b9392505050565b5f81519050919050565b5f615def82615ddb565b615df98185615827565b9350615e09818560208601614895565b80840191505092915050565b5f615e208284615de5565b91508190509291505056fea26469706673582212208022a4f579d566b970d158a1846a7d5ee2191a49e9982b35edba63cdfdc56b0664736f6c634300081a0033",
			"opcodes": "PUSH1 0xA0 PUSH1 0x40 MSTORE ADDRESS PUSH20 0xFFFFFFFFFFFFFFFFFFFFFFFFFFFFFFFFFFFFFFFF AND PUSH1 0x80 SWAP1 PUSH20 0xFFFFFFFFFFFFFFFFFFFFFFFFFFFFFFFFFFFFFFFF AND DUP2 MSTORE POP CALLVALUE DUP1 ISZERO PUSH1 0x41 JUMPI PUSH0 DUP1 REVERT JUMPDEST POP PUSH1 0x80 MLOAD PUSH2 0x5E61 PUSH2 0x68 PUSH0 CODECOPY PUSH0 DUP2 DUP2 PUSH2 0x3582 ADD MSTORE DUP2 DUP2 PUSH2 0x35D7 ADD MSTORE PUSH2 0x3861 ADD MSTORE PUSH2 0x5E61 PUSH0 RETURN INVALID PUSH1 0x80 PUSH1 0x40 MSTORE PUSH1 0x4 CALLDATASIZE LT PUSH2 0x292 JUMPI PUSH0 CALLDATALOAD PUSH1 0xE0 SHR DUP1 PUSH4 0x75B238FC GT PUSH2 0x159 JUMPI DUP1 PUSH4 0xB9D49C2A GT PUSH2 0xC0 JUMPI DUP1 PUSH4 0xE2BBB158 GT PUSH2 0x79 JUMPI DUP1 PUSH4 0xE2BBB158 EQ PUSH2 0x962 JUMPI DUP1 PUSH4 0xF35E4A6E EQ PUSH2 0x98A JUMPI DUP1 PUSH4 0xF5485D32 EQ PUSH2 0x9B2 JUMPI DUP1 PUSH4 0xFAD07ECE EQ PUSH2 0x9DA JUMPI DUP1 PUSH4 0xFE313112 EQ PUSH2 0xA02 JUMPI DUP1 PUSH4 0xFF423357 EQ PUSH2 0xA44 JUMPI PUSH2 0x292 JUMP JUMPDEST DUP1 PUSH4 0xB9D49C2A EQ PUSH2 0x882 JUMPI DUP1 PUSH4 0xBED66C08 EQ PUSH2 0x8AC JUMPI DUP1 PUSH4 0xC713AA94 EQ PUSH2 0x8D4 JUMPI DUP1 PUSH4 0xD547741F EQ PUSH2 0x8FC JUMPI DUP1 PUSH4 0xD86C0444 EQ PUSH2 0x924 JUMPI DUP1 PUSH4 0xDE065CAA EQ PUSH2 0x94C JUMPI PUSH2 0x292 JUMP JUMPDEST DUP1 PUSH4 0xA6707EE4 GT PUSH2 0x112 JUMPI DUP1 PUSH4 0xA6707EE4 EQ PUSH2 0x7A8 JUMPI DUP1 PUSH4 0xA72D5BF4 EQ PUSH2 0x7B2 JUMPI DUP1 PUSH4 0xAB5E124A EQ PUSH2 0x7DC JUMPI DUP1 PUSH4 0xAD3CB1CC EQ PUSH2 0x806 JUMPI DUP1 PUSH4 0xB6D9D919 EQ PUSH2 0x830 JUMPI DUP1 PUSH4 0xB908AFA8 EQ PUSH2 0x858 JUMPI PUSH2 0x292 JUMP JUMPDEST DUP1 PUSH4 0x75B238FC EQ PUSH2 0x69E JUMPI DUP1 PUSH4 0x8DBB1E3A EQ PUSH2 0x6C8 JUMPI DUP1 PUSH4 0x8FF095F9 EQ PUSH2 0x704 JUMPI DUP1 PUSH4 0x91D14854 EQ PUSH2 0x71A JUMPI DUP1 PUSH4 0x9E2C8A5B EQ PUSH2 0x756 JUMPI DUP1 PUSH4 0xA217FDDF EQ PUSH2 0x77E JUMPI PUSH2 0x292 JUMP JUMPDEST DUP1 PUSH4 0x386BE144 GT PUSH2 0x1FD JUMPI DUP1 PUSH4 0x51EB05A6 GT PUSH2 0x1B6 JUMPI DUP1 PUSH4 0x51EB05A6 EQ PUSH2 0x5E0 JUMPI DUP1 PUSH4 0x52D1902D EQ PUSH2 0x608 JUMPI DUP1 PUSH4 0x5BB6D007 EQ PUSH2 0x632 JUMPI DUP1 PUSH4 0x5C975ABB EQ PUSH2 0x648 JUMPI DUP1 PUSH4 0x6155E3DE EQ PUSH2 0x672 JUMPI DUP1 PUSH4 0x630B5BA1 EQ PUSH2 0x688 JUMPI PUSH2 0x292 JUMP JUMPDEST DUP1 PUSH4 0x386BE144 EQ PUSH2 0x4D0 JUMPI DUP1 PUSH4 0x3B82783E EQ PUSH2 0x4FA JUMPI DUP1 PUSH4 0x41721AB7 EQ PUSH2 0x536 JUMPI DUP1 PUSH4 0x48CD4CB1 EQ PUSH2 0x572 JUMPI DUP1 PUSH4 0x4EC81AF1 EQ PUSH2 0x59C JUMPI DUP1 PUSH4 0x4F1EF286 EQ PUSH2 0x5C4 JUMPI PUSH2 0x292 JUMP JUMPDEST DUP1 PUSH4 0x2E1A7D4D GT PUSH2 0x24F JUMPI DUP1 PUSH4 0x2E1A7D4D EQ PUSH2 0x3C8 JUMPI DUP1 PUSH4 0x2F2FF15D EQ PUSH2 0x3F0 JUMPI DUP1 PUSH4 0x2F3FFB9F EQ PUSH2 0x418 JUMPI DUP1 PUSH4 0x36568ABE EQ PUSH2 0x442 JUMPI DUP1 PUSH4 0x37849B3C EQ PUSH2 0x46A JUMPI DUP1 PUSH4 0x379607F5 EQ PUSH2 0x4A8 JUMPI PUSH2 0x292 JUMP JUMPDEST DUP1 PUSH4 0x1FFC9A7 EQ PUSH2 0x296 JUMPI DUP1 PUSH4 0x2559004 EQ PUSH2 0x2D2 JUMPI DUP1 PUSH4 0x81E3EDA EQ PUSH2 0x2FC JUMPI DUP1 PUSH4 0x83C6323 EQ PUSH2 0x326 JUMPI DUP1 PUSH4 0x11548234 EQ PUSH2 0x350 JUMPI DUP1 PUSH4 0x248A9CA3 EQ PUSH2 0x38C JUMPI JUMPDEST PUSH0 DUP1 REVERT JUMPDEST CALLVALUE DUP1 ISZERO PUSH2 0x2A1 JUMPI PUSH0 DUP1 REVERT JUMPDEST POP PUSH2 0x2BC PUSH1 0x4 DUP1 CALLDATASIZE SUB DUP2 ADD SWAP1 PUSH2 0x2B7 SWAP2 SWAP1 PUSH2 0x42CF JUMP JUMPDEST PUSH2 0xA81 JUMP JUMPDEST PUSH1 0x40 MLOAD PUSH2 0x2C9 SWAP2 SWAP1 PUSH2 0x4314 JUMP JUMPDEST PUSH1 0x40 MLOAD DUP1 SWAP2 SUB SWAP1 RETURN JUMPDEST CALLVALUE DUP1 ISZERO PUSH2 0x2DD JUMPI PUSH0 DUP1 REVERT JUMPDEST POP PUSH2 0x2E6 PUSH2 0xAFA JUMP JUMPDEST PUSH1 0x40 MLOAD PUSH2 0x2F3 SWAP2 SWAP1 PUSH2 0x4345 JUMP JUMPDEST PUSH1 0x40 MLOAD DUP1 SWAP2 SUB SWAP1 RETURN JUMPDEST CALLVALUE DUP1 ISZERO PUSH2 0x307 JUMPI PUSH0 DUP1 REVERT JUMPDEST POP PUSH2 0x310 PUSH2 0xB00 JUMP JUMPDEST PUSH1 0x40 MLOAD PUSH2 0x31D SWAP2 SWAP1 PUSH2 0x4345 JUMP JUMPDEST PUSH1 0x40 MLOAD DUP1 SWAP2 SUB SWAP1 RETURN JUMPDEST CALLVALUE DUP1 ISZERO PUSH2 0x331 JUMPI PUSH0 DUP1 REVERT JUMPDEST POP PUSH2 0x33A PUSH2 0xB0C JUMP JUMPDEST PUSH1 0x40 MLOAD PUSH2 0x347 SWAP2 SWAP1 PUSH2 0x4345 JUMP JUMPDEST PUSH1 0x40 MLOAD DUP1 SWAP2 SUB SWAP1 RETURN JUMPDEST CALLVALUE DUP1 ISZERO PUSH2 0x35B JUMPI PUSH0 DUP1 REVERT JUMPDEST POP PUSH2 0x376 PUSH1 0x4 DUP1 CALLDATASIZE SUB DUP2 ADD SWAP1 PUSH2 0x371 SWAP2 SWAP1 PUSH2 0x43E2 JUMP JUMPDEST PUSH2 0xB12 JUMP JUMPDEST PUSH1 0x40 MLOAD PUSH2 0x383 SWAP2 SWAP1 PUSH2 0x4345 JUMP JUMPDEST PUSH1 0x40 MLOAD DUP1 SWAP2 SUB SWAP1 RETURN JUMPDEST CALLVALUE DUP1 ISZERO PUSH2 0x397 JUMPI PUSH0 DUP1 REVERT JUMPDEST POP PUSH2 0x3B2 PUSH1 0x4 DUP1 CALLDATASIZE SUB DUP2 ADD SWAP1 PUSH2 0x3AD SWAP2 SWAP1 PUSH2 0x4453 JUMP JUMPDEST PUSH2 0xBB3 JUMP JUMPDEST PUSH1 0x40 MLOAD PUSH2 0x3BF SWAP2 SWAP1 PUSH2 0x448D JUMP JUMPDEST PUSH1 0x40 MLOAD DUP1 SWAP2 SUB SWAP1 RETURN JUMPDEST CALLVALUE DUP1 ISZERO PUSH2 0x3D3 JUMPI PUSH0 DUP1 REVERT JUMPDEST POP PUSH2 0x3EE PUSH1 0x4 DUP1 CALLDATASIZE SUB DUP2 ADD SWAP1 PUSH2 0x3E9 SWAP2 SWAP1 PUSH2 0x44A6 JUMP JUMPDEST PUSH2 0xBDD JUMP JUMPDEST STOP JUMPDEST CALLVALUE DUP1 ISZERO PUSH2 0x3FB JUMPI PUSH0 DUP1 REVERT JUMPDEST POP PUSH2 0x416 PUSH1 0x4 DUP1 CALLDATASIZE SUB DUP2 ADD SWAP1 PUSH2 0x411 SWAP2 SWAP1 PUSH2 0x44D1 JUMP JUMPDEST PUSH2 0xF6C JUMP JUMPDEST STOP JUMPDEST CALLVALUE DUP1 ISZERO PUSH2 0x423 JUMPI PUSH0 DUP1 REVERT JUMPDEST POP PUSH2 0x42C PUSH2 0xF8E JUMP JUMPDEST PUSH1 0x40 MLOAD PUSH2 0x439 SWAP2 SWAP1 PUSH2 0x4314 JUMP JUMPDEST PUSH1 0x40 MLOAD DUP1 SWAP2 SUB SWAP1 RETURN JUMPDEST CALLVALUE DUP1 ISZERO PUSH2 0x44D JUMPI PUSH0 DUP1 REVERT JUMPDEST POP PUSH2 0x468 PUSH1 0x4 DUP1 CALLDATASIZE SUB DUP2 ADD SWAP1 PUSH2 0x463 SWAP2 SWAP1 PUSH2 0x44D1 JUMP JUMPDEST PUSH2 0xFA0 JUMP JUMPDEST STOP JUMPDEST CALLVALUE DUP1 ISZERO PUSH2 0x475 JUMPI PUSH0 DUP1 REVERT JUMPDEST POP PUSH2 0x490 PUSH1 0x4 DUP1 CALLDATASIZE SUB DUP2 ADD SWAP1 PUSH2 0x48B SWAP2 SWAP1 PUSH2 0x43E2 JUMP JUMPDEST PUSH2 0x101B JUMP JUMPDEST PUSH1 0x40 MLOAD PUSH2 0x49F SWAP4 SWAP3 SWAP2 SWAP1 PUSH2 0x450F JUMP JUMPDEST PUSH1 0x40 MLOAD DUP1 SWAP2 SUB SWAP1 RETURN JUMPDEST CALLVALUE DUP1 ISZERO PUSH2 0x4B3 JUMPI PUSH0 DUP1 REVERT JUMPDEST POP PUSH2 0x4CE PUSH1 0x4 DUP1 CALLDATASIZE SUB DUP2 ADD SWAP1 PUSH2 0x4C9 SWAP2 SWAP1 PUSH2 0x44A6 JUMP JUMPDEST PUSH2 0x104C JUMP JUMPDEST STOP JUMPDEST CALLVALUE DUP1 ISZERO PUSH2 0x4DB JUMPI PUSH0 DUP1 REVERT JUMPDEST POP PUSH2 0x4E4 PUSH2 0x124E JUMP JUMPDEST PUSH1 0x40 MLOAD PUSH2 0x4F1 SWAP2 SWAP1 PUSH2 0x4345 JUMP JUMPDEST PUSH1 0x40 MLOAD DUP1 SWAP2 SUB SWAP1 RETURN JUMPDEST CALLVALUE DUP1 ISZERO PUSH2 0x505 JUMPI PUSH0 DUP1 REVERT JUMPDEST POP PUSH2 0x520 PUSH1 0x4 DUP1 CALLDATASIZE SUB DUP2 ADD SWAP1 PUSH2 0x51B SWAP2 SWAP1 PUSH2 0x43E2 JUMP JUMPDEST PUSH2 0x1254 JUMP JUMPDEST PUSH1 0x40 MLOAD PUSH2 0x52D SWAP2 SWAP1 PUSH2 0x4345 JUMP JUMPDEST PUSH1 0x40 MLOAD DUP1 SWAP2 SUB SWAP1 RETURN JUMPDEST CALLVALUE DUP1 ISZERO PUSH2 0x541 JUMPI PUSH0 DUP1 REVERT JUMPDEST POP PUSH2 0x55C PUSH1 0x4 DUP1 CALLDATASIZE SUB DUP2 ADD SWAP1 PUSH2 0x557 SWAP2 SWAP1 PUSH2 0x4544 JUMP JUMPDEST PUSH2 0x12B1 JUMP JUMPDEST PUSH1 0x40 MLOAD PUSH2 0x569 SWAP2 SWAP1 PUSH2 0x4345 JUMP JUMPDEST PUSH1 0x40 MLOAD DUP1 SWAP2 SUB SWAP1 RETURN JUMPDEST CALLVALUE DUP1 ISZERO PUSH2 0x57D JUMPI PUSH0 DUP1 REVERT JUMPDEST POP PUSH2 0x586 PUSH2 0x1442 JUMP JUMPDEST PUSH1 0x40 MLOAD PUSH2 0x593 SWAP2 SWAP1 PUSH2 0x4345 JUMP JUMPDEST PUSH1 0x40 MLOAD DUP1 SWAP2 SUB SWAP1 RETURN JUMPDEST CALLVALUE DUP1 ISZERO PUSH2 0x5A7 JUMPI PUSH0 DUP1 REVERT JUMPDEST POP PUSH2 0x5C2 PUSH1 0x4 DUP1 CALLDATASIZE SUB DUP2 ADD SWAP1 PUSH2 0x5BD SWAP2 SWAP1 PUSH2 0x45CF JUMP JUMPDEST PUSH2 0x1447 JUMP JUMPDEST STOP JUMPDEST PUSH2 0x5DE PUSH1 0x4 DUP1 CALLDATASIZE SUB DUP2 ADD SWAP1 PUSH2 0x5D9 SWAP2 SWAP1 PUSH2 0x476F JUMP JUMPDEST PUSH2 0x16A8 JUMP JUMPDEST STOP JUMPDEST CALLVALUE DUP1 ISZERO PUSH2 0x5EB JUMPI PUSH0 DUP1 REVERT JUMPDEST POP PUSH2 0x606 PUSH1 0x4 DUP1 CALLDATASIZE SUB DUP2 ADD SWAP1 PUSH2 0x601 SWAP2 SWAP1 PUSH2 0x44A6 JUMP JUMPDEST PUSH2 0x16C7 JUMP JUMPDEST STOP JUMPDEST CALLVALUE DUP1 ISZERO PUSH2 0x613 JUMPI PUSH0 DUP1 REVERT JUMPDEST POP PUSH2 0x61C PUSH2 0x1990 JUMP JUMPDEST PUSH1 0x40 MLOAD PUSH2 0x629 SWAP2 SWAP1 PUSH2 0x448D JUMP JUMPDEST PUSH1 0x40 MLOAD DUP1 SWAP2 SUB SWAP1 RETURN JUMPDEST CALLVALUE DUP1 ISZERO PUSH2 0x63D JUMPI PUSH0 DUP1 REVERT JUMPDEST POP PUSH2 0x646 PUSH2 0x19C1 JUMP JUMPDEST STOP JUMPDEST CALLVALUE DUP1 ISZERO PUSH2 0x653 JUMPI PUSH0 DUP1 REVERT JUMPDEST POP PUSH2 0x65C PUSH2 0x1A81 JUMP JUMPDEST PUSH1 0x40 MLOAD PUSH2 0x669 SWAP2 SWAP1 PUSH2 0x4314 JUMP JUMPDEST PUSH1 0x40 MLOAD DUP1 SWAP2 SUB SWAP1 RETURN JUMPDEST CALLVALUE DUP1 ISZERO PUSH2 0x67D JUMPI PUSH0 DUP1 REVERT JUMPDEST POP PUSH2 0x686 PUSH2 0x1AA3 JUMP JUMPDEST STOP JUMPDEST CALLVALUE DUP1 ISZERO PUSH2 0x693 JUMPI PUSH0 DUP1 REVERT JUMPDEST POP PUSH2 0x69C PUSH2 0x1B65 JUMP JUMPDEST STOP JUMPDEST CALLVALUE DUP1 ISZERO PUSH2 0x6A9 JUMPI PUSH0 DUP1 REVERT JUMPDEST POP PUSH2 0x6B2 PUSH2 0x1B92 JUMP JUMPDEST PUSH1 0x40 MLOAD PUSH2 0x6BF SWAP2 SWAP1 PUSH2 0x448D JUMP JUMPDEST PUSH1 0x40 MLOAD DUP1 SWAP2 SUB SWAP1 RETURN JUMPDEST CALLVALUE DUP1 ISZERO PUSH2 0x6D3 JUMPI PUSH0 DUP1 REVERT JUMPDEST POP PUSH2 0x6EE PUSH1 0x4 DUP1 CALLDATASIZE SUB DUP2 ADD SWAP1 PUSH2 0x6E9 SWAP2 SWAP1 PUSH2 0x47C9 JUMP JUMPDEST PUSH2 0x1BB6 JUMP JUMPDEST PUSH1 0x40 MLOAD PUSH2 0x6FB SWAP2 SWAP1 PUSH2 0x4345 JUMP JUMPDEST PUSH1 0x40 MLOAD DUP1 SWAP2 SUB SWAP1 RETURN JUMPDEST CALLVALUE DUP1 ISZERO PUSH2 0x70F JUMPI PUSH0 DUP1 REVERT JUMPDEST POP PUSH2 0x718 PUSH2 0x1CCB JUMP JUMPDEST STOP JUMPDEST CALLVALUE DUP1 ISZERO PUSH2 0x725 JUMPI PUSH0 DUP1 REVERT JUMPDEST POP PUSH2 0x740 PUSH1 0x4 DUP1 CALLDATASIZE SUB DUP2 ADD SWAP1 PUSH2 0x73B SWAP2 SWAP1 PUSH2 0x44D1 JUMP JUMPDEST PUSH2 0x1D8F JUMP JUMPDEST PUSH1 0x40 MLOAD PUSH2 0x74D SWAP2 SWAP1 PUSH2 0x4314 JUMP JUMPDEST PUSH1 0x40 MLOAD DUP1 SWAP2 SUB SWAP1 RETURN JUMPDEST CALLVALUE DUP1 ISZERO PUSH2 0x761 JUMPI PUSH0 DUP1 REVERT JUMPDEST POP PUSH2 0x77C PUSH1 0x4 DUP1 CALLDATASIZE SUB DUP2 ADD SWAP1 PUSH2 0x777 SWAP2 SWAP1 PUSH2 0x47C9 JUMP JUMPDEST PUSH2 0x1E00 JUMP JUMPDEST STOP JUMPDEST CALLVALUE DUP1 ISZERO PUSH2 0x789 JUMPI PUSH0 DUP1 REVERT JUMPDEST POP PUSH2 0x792 PUSH2 0x20D7 JUMP JUMPDEST PUSH1 0x40 MLOAD PUSH2 0x79F SWAP2 SWAP1 PUSH2 0x448D JUMP JUMPDEST PUSH1 0x40 MLOAD DUP1 SWAP2 SUB SWAP1 RETURN JUMPDEST PUSH2 0x7B0 PUSH2 0x20DD JUMP JUMPDEST STOP JUMPDEST CALLVALUE DUP1 ISZERO PUSH2 0x7BD JUMPI PUSH0 DUP1 REVERT JUMPDEST POP PUSH2 0x7C6 PUSH2 0x21F1 JUMP JUMPDEST PUSH1 0x40 MLOAD PUSH2 0x7D3 SWAP2 SWAP1 PUSH2 0x4862 JUMP JUMPDEST PUSH1 0x40 MLOAD DUP1 SWAP2 SUB SWAP1 RETURN JUMPDEST CALLVALUE DUP1 ISZERO PUSH2 0x7E7 JUMPI PUSH0 DUP1 REVERT JUMPDEST POP PUSH2 0x7F0 PUSH2 0x2217 JUMP JUMPDEST PUSH1 0x40 MLOAD PUSH2 0x7FD SWAP2 SWAP1 PUSH2 0x4314 JUMP JUMPDEST PUSH1 0x40 MLOAD DUP1 SWAP2 SUB SWAP1 RETURN JUMPDEST CALLVALUE DUP1 ISZERO PUSH2 0x811 JUMPI PUSH0 DUP1 REVERT JUMPDEST POP PUSH2 0x81A PUSH2 0x222A JUMP JUMPDEST PUSH1 0x40 MLOAD PUSH2 0x827 SWAP2 SWAP1 PUSH2 0x48DB JUMP JUMPDEST PUSH1 0x40 MLOAD DUP1 SWAP2 SUB SWAP1 RETURN JUMPDEST CALLVALUE DUP1 ISZERO PUSH2 0x83B JUMPI PUSH0 DUP1 REVERT JUMPDEST POP PUSH2 0x856 PUSH1 0x4 DUP1 CALLDATASIZE SUB DUP2 ADD SWAP1 PUSH2 0x851 SWAP2 SWAP1 PUSH2 0x4925 JUMP JUMPDEST PUSH2 0x2263 JUMP JUMPDEST STOP JUMPDEST CALLVALUE DUP1 ISZERO PUSH2 0x863 JUMPI PUSH0 DUP1 REVERT JUMPDEST POP PUSH2 0x86C PUSH2 0x2587 JUMP JUMPDEST PUSH1 0x40 MLOAD PUSH2 0x879 SWAP2 SWAP1 PUSH2 0x448D JUMP JUMPDEST PUSH1 0x40 MLOAD DUP1 SWAP2 SUB SWAP1 RETURN JUMPDEST CALLVALUE DUP1 ISZERO PUSH2 0x88D JUMPI PUSH0 DUP1 REVERT JUMPDEST POP PUSH2 0x896 PUSH2 0x25AB JUMP JUMPDEST PUSH1 0x40 MLOAD PUSH2 0x8A3 SWAP2 SWAP1 PUSH2 0x4345 JUMP JUMPDEST PUSH1 0x40 MLOAD DUP1 SWAP2 SUB SWAP1 RETURN JUMPDEST CALLVALUE DUP1 ISZERO PUSH2 0x8B7 JUMPI PUSH0 DUP1 REVERT JUMPDEST POP PUSH2 0x8D2 PUSH1 0x4 DUP1 CALLDATASIZE SUB DUP2 ADD SWAP1 PUSH2 0x8CD SWAP2 SWAP1 PUSH2 0x44A6 JUMP JUMPDEST PUSH2 0x25AF JUMP JUMPDEST STOP JUMPDEST CALLVALUE DUP1 ISZERO PUSH2 0x8DF JUMPI PUSH0 DUP1 REVERT JUMPDEST POP PUSH2 0x8FA PUSH1 0x4 DUP1 CALLDATASIZE SUB DUP2 ADD SWAP1 PUSH2 0x8F5 SWAP2 SWAP1 PUSH2 0x44A6 JUMP JUMPDEST PUSH2 0x2653 JUMP JUMPDEST STOP JUMPDEST CALLVALUE DUP1 ISZERO PUSH2 0x907 JUMPI PUSH0 DUP1 REVERT JUMPDEST POP PUSH2 0x922 PUSH1 0x4 DUP1 CALLDATASIZE SUB DUP2 ADD SWAP1 PUSH2 0x91D SWAP2 SWAP1 PUSH2 0x44D1 JUMP JUMPDEST PUSH2 0x26F9 JUMP JUMPDEST STOP JUMPDEST CALLVALUE DUP1 ISZERO PUSH2 0x92F JUMPI PUSH0 DUP1 REVERT JUMPDEST POP PUSH2 0x94A PUSH1 0x4 DUP1 CALLDATASIZE SUB DUP2 ADD SWAP1 PUSH2 0x945 SWAP2 SWAP1 PUSH2 0x499C JUMP JUMPDEST PUSH2 0x271B JUMP JUMPDEST STOP JUMPDEST CALLVALUE DUP1 ISZERO PUSH2 0x957 JUMPI PUSH0 DUP1 REVERT JUMPDEST POP PUSH2 0x960 PUSH2 0x2813 JUMP JUMPDEST STOP JUMPDEST CALLVALUE DUP1 ISZERO PUSH2 0x96D JUMPI PUSH0 DUP1 REVERT JUMPDEST POP PUSH2 0x988 PUSH1 0x4 DUP1 CALLDATASIZE SUB DUP2 ADD SWAP1 PUSH2 0x983 SWAP2 SWAP1 PUSH2 0x47C9 JUMP JUMPDEST PUSH2 0x28D5 JUMP JUMPDEST STOP JUMPDEST CALLVALUE DUP1 ISZERO PUSH2 0x995 JUMPI PUSH0 DUP1 REVERT JUMPDEST POP PUSH2 0x9B0 PUSH1 0x4 DUP1 CALLDATASIZE SUB DUP2 ADD SWAP1 PUSH2 0x9AB SWAP2 SWAP1 PUSH2 0x44A6 JUMP JUMPDEST PUSH2 0x2A38 JUMP JUMPDEST STOP JUMPDEST CALLVALUE DUP1 ISZERO PUSH2 0x9BD JUMPI PUSH0 DUP1 REVERT JUMPDEST POP PUSH2 0x9D8 PUSH1 0x4 DUP1 CALLDATASIZE SUB DUP2 ADD SWAP1 PUSH2 0x9D3 SWAP2 SWAP1 PUSH2 0x49EC JUMP JUMPDEST PUSH2 0x2ADE JUMP JUMPDEST STOP JUMPDEST CALLVALUE DUP1 ISZERO PUSH2 0x9E5 JUMPI PUSH0 DUP1 REVERT JUMPDEST POP PUSH2 0xA00 PUSH1 0x4 DUP1 CALLDATASIZE SUB DUP2 ADD SWAP1 PUSH2 0x9FB SWAP2 SWAP1 PUSH2 0x4A17 JUMP JUMPDEST PUSH2 0x2BB2 JUMP JUMPDEST STOP JUMPDEST CALLVALUE DUP1 ISZERO PUSH2 0xA0D JUMPI PUSH0 DUP1 REVERT JUMPDEST POP PUSH2 0xA28 PUSH1 0x4 DUP1 CALLDATASIZE SUB DUP2 ADD SWAP1 PUSH2 0xA23 SWAP2 SWAP1 PUSH2 0x44A6 JUMP JUMPDEST PUSH2 0x2D21 JUMP JUMPDEST PUSH1 0x40 MLOAD PUSH2 0xA3B SWAP8 SWAP7 SWAP6 SWAP5 SWAP4 SWAP3 SWAP2 SWAP1 PUSH2 0x4A76 JUMP JUMPDEST PUSH1 0x40 MLOAD DUP1 SWAP2 SUB SWAP1 RETURN JUMPDEST CALLVALUE DUP1 ISZERO PUSH2 0xA4F JUMPI PUSH0 DUP1 REVERT JUMPDEST POP PUSH2 0xA6A PUSH1 0x4 DUP1 CALLDATASIZE SUB DUP2 ADD SWAP1 PUSH2 0xA65 SWAP2 SWAP1 PUSH2 0x43E2 JUMP JUMPDEST PUSH2 0x2D8D JUMP JUMPDEST PUSH1 0x40 MLOAD PUSH2 0xA78 SWAP3 SWAP2 SWAP1 PUSH2 0x4AE3 JUMP JUMPDEST PUSH1 0x40 MLOAD DUP1 SWAP2 SUB SWAP1 RETURN JUMPDEST PUSH0 PUSH32 0x7965DB0B00000000000000000000000000000000000000000000000000000000 PUSH28 0xFFFFFFFFFFFFFFFFFFFFFFFFFFFFFFFFFFFFFFFFFFFFFFFFFFFFFFFF NOT AND DUP3 PUSH28 0xFFFFFFFFFFFFFFFFFFFFFFFFFFFFFFFFFFFFFFFFFFFFFFFFFFFFFFFF NOT AND EQ DUP1 PUSH2 0xAF3 JUMPI POP PUSH2 0xAF2 DUP3 PUSH2 0x2EDF JUMP JUMPDEST JUMPDEST SWAP1 POP SWAP2 SWAP1 POP JUMP JUMPDEST PUSH1 0x4 SLOAD DUP2 JUMP JUMPDEST PUSH0 PUSH1 0x5 DUP1 SLOAD SWAP1 POP SWAP1 POP SWAP1 JUMP JUMPDEST PUSH1 0x1 SLOAD DUP2 JUMP JUMPDEST PUSH0 DUP3 PUSH1 0x5 DUP1 SLOAD SWAP1 POP DUP2 LT PUSH2 0xB5B JUMPI PUSH1 0x40 MLOAD PUSH32 0x8C379A000000000000000000000000000000000000000000000000000000000 DUP2 MSTORE PUSH1 0x4 ADD PUSH2 0xB52 SWAP1 PUSH2 0x4B54 JUMP JUMPDEST PUSH1 0x40 MLOAD DUP1 SWAP2 SUB SWAP1 REVERT JUMPDEST PUSH1 0x6 PUSH0 DUP6 DUP2 MSTORE PUSH1 0x20 ADD SWAP1 DUP2 MSTORE PUSH1 0x20 ADD PUSH0 KECCAK256 PUSH0 DUP5 PUSH20 0xFFFFFFFFFFFFFFFFFFFFFFFFFFFFFFFFFFFFFFFF AND PUSH20 0xFFFFFFFFFFFFFFFFFFFFFFFFFFFFFFFFFFFFFFFF AND DUP2 MSTORE PUSH1 0x20 ADD SWAP1 DUP2 MSTORE PUSH1 0x20 ADD PUSH0 KECCAK256 PUSH0 ADD SLOAD SWAP2 POP POP SWAP3 SWAP2 POP POP JUMP JUMPDEST PUSH0 DUP1 PUSH2 0xBBD PUSH2 0x2F48 JUMP JUMPDEST SWAP1 POP DUP1 PUSH0 ADD PUSH0 DUP5 DUP2 MSTORE PUSH1 0x20 ADD SWAP1 DUP2 MSTORE PUSH1 0x20 ADD PUSH0 KECCAK256 PUSH1 0x1 ADD SLOAD SWAP2 POP POP SWAP2 SWAP1 POP JUMP JUMPDEST PUSH2 0xBE5 PUSH2 0x2F6F JUMP JUMPDEST DUP1 PUSH1 0x5 DUP1 SLOAD SWAP1 POP DUP2 LT PUSH2 0xC2D JUMPI PUSH1 0x40 MLOAD PUSH32 0x8C379A000000000000000000000000000000000000000000000000000000000 DUP2 MSTORE PUSH1 0x4 ADD PUSH2 0xC24 SWAP1 PUSH2 0x4B54 JUMP JUMPDEST PUSH1 0x40 MLOAD DUP1 SWAP2 SUB SWAP1 REVERT JUMPDEST PUSH1 0x3 PUSH0 SWAP1 SLOAD SWAP1 PUSH2 0x100 EXP SWAP1 DIV PUSH1 0xFF AND ISZERO PUSH2 0xC7C JUMPI PUSH1 0x40 MLOAD PUSH32 0x8C379A000000000000000000000000000000000000000000000000000000000 DUP2 MSTORE PUSH1 0x4 ADD PUSH2 0xC73 SWAP1 PUSH2 0x4BBC JUMP JUMPDEST PUSH1 0x40 MLOAD DUP1 SWAP2 SUB SWAP1 REVERT JUMPDEST PUSH0 PUSH1 0x5 DUP4 DUP2 SLOAD DUP2 LT PUSH2 0xC91 JUMPI PUSH2 0xC90 PUSH2 0x4BDA JUMP JUMPDEST JUMPDEST SWAP1 PUSH0 MSTORE PUSH1 0x20 PUSH0 KECCAK256 SWAP1 PUSH1 0x7 MUL ADD SWAP1 POP PUSH0 PUSH1 0x6 PUSH0 DUP6 DUP2 MSTORE PUSH1 0x20 ADD SWAP1 DUP2 MSTORE PUSH1 0x20 ADD PUSH0 KECCAK256 PUSH0 CALLER PUSH20 0xFFFFFFFFFFFFFFFFFFFFFFFFFFFFFFFFFFFFFFFF AND PUSH20 0xFFFFFFFFFFFFFFFFFFFFFFFFFFFFFFFFFFFFFFFF AND DUP2 MSTORE PUSH1 0x20 ADD SWAP1 DUP2 MSTORE PUSH1 0x20 ADD PUSH0 KECCAK256 SWAP1 POP PUSH0 DUP1 PUSH0 JUMPDEST DUP4 PUSH1 0x3 ADD DUP1 SLOAD SWAP1 POP DUP2 LT ISZERO PUSH2 0xD7A JUMPI NUMBER DUP5 PUSH1 0x3 ADD DUP3 DUP2 SLOAD DUP2 LT PUSH2 0xD18 JUMPI PUSH2 0xD17 PUSH2 0x4BDA JUMP JUMPDEST JUMPDEST SWAP1 PUSH0 MSTORE PUSH1 0x20 PUSH0 KECCAK256 SWAP1 PUSH1 0x2 MUL ADD PUSH1 0x1 ADD SLOAD GT PUSH2 0xD7A JUMPI DUP4 PUSH1 0x3 ADD DUP2 DUP2 SLOAD DUP2 LT PUSH2 0xD43 JUMPI PUSH2 0xD42 PUSH2 0x4BDA JUMP JUMPDEST JUMPDEST SWAP1 PUSH0 MSTORE PUSH1 0x20 PUSH0 KECCAK256 SWAP1 PUSH1 0x2 MUL ADD PUSH0 ADD SLOAD DUP4 PUSH2 0xD5D SWAP2 SWAP1 PUSH2 0x4C34 JUMP JUMPDEST SWAP3 POP DUP2 DUP1 PUSH2 0xD6A SWAP1 PUSH2 0x4C67 JUMP JUMPDEST SWAP3 POP POP DUP1 DUP1 PUSH1 0x1 ADD SWAP2 POP POP PUSH2 0xCF2 JUMP JUMPDEST POP PUSH0 JUMPDEST DUP2 DUP5 PUSH1 0x3 ADD DUP1 SLOAD SWAP1 POP PUSH2 0xD90 SWAP2 SWAP1 PUSH2 0x4CAE JUMP JUMPDEST DUP2 LT ISZERO PUSH2 0xE08 JUMPI DUP4 PUSH1 0x3 ADD DUP3 DUP3 PUSH2 0xDA7 SWAP2 SWAP1 PUSH2 0x4C34 JUMP JUMPDEST DUP2 SLOAD DUP2 LT PUSH2 0xDB8 JUMPI PUSH2 0xDB7 PUSH2 0x4BDA JUMP JUMPDEST JUMPDEST SWAP1 PUSH0 MSTORE PUSH1 0x20 PUSH0 KECCAK256 SWAP1 PUSH1 0x2 MUL ADD DUP5 PUSH1 0x3 ADD DUP3 DUP2 SLOAD DUP2 LT PUSH2 0xDDA JUMPI PUSH2 0xDD9 PUSH2 0x4BDA JUMP JUMPDEST JUMPDEST SWAP1 PUSH0 MSTORE PUSH1 0x20 PUSH0 KECCAK256 SWAP1 PUSH1 0x2 MUL ADD PUSH0 DUP3 ADD SLOAD DUP2 PUSH0 ADD SSTORE PUSH1 0x1 DUP3 ADD SLOAD DUP2 PUSH1 0x1 ADD SSTORE SWAP1 POP POP DUP1 DUP1 PUSH1 0x1 ADD SWAP2 POP POP PUSH2 0xD7D JUMP JUMPDEST POP PUSH0 JUMPDEST DUP2 DUP2 LT ISZERO PUSH2 0xE58 JUMPI DUP4 PUSH1 0x3 ADD DUP1 SLOAD DUP1 PUSH2 0xE27 JUMPI PUSH2 0xE26 PUSH2 0x4CE1 JUMP JUMPDEST JUMPDEST PUSH1 0x1 SWAP1 SUB DUP2 DUP2 SWAP1 PUSH0 MSTORE PUSH1 0x20 PUSH0 KECCAK256 SWAP1 PUSH1 0x2 MUL ADD PUSH0 DUP1 DUP3 ADD PUSH0 SWAP1 SSTORE PUSH1 0x1 DUP3 ADD PUSH0 SWAP1 SSTORE POP POP SWAP1 SSTORE DUP1 DUP1 PUSH1 0x1 ADD SWAP2 POP POP PUSH2 0xE0B JUMP JUMPDEST POP PUSH0 DUP3 GT ISZERO PUSH2 0xF14 JUMPI PUSH0 PUSH20 0xFFFFFFFFFFFFFFFFFFFFFFFFFFFFFFFFFFFFFFFF AND DUP5 PUSH0 ADD PUSH0 SWAP1 SLOAD SWAP1 PUSH2 0x100 EXP SWAP1 DIV PUSH20 0xFFFFFFFFFFFFFFFFFFFFFFFFFFFFFFFFFFFFFFFF AND PUSH20 0xFFFFFFFFFFFFFFFFFFFFFFFFFFFFFFFFFFFFFFFF AND SUB PUSH2 0xEC5 JUMPI PUSH2 0xEC0 CALLER DUP4 PUSH2 0x2FB0 JUMP JUMPDEST PUSH2 0xF13 JUMP JUMPDEST PUSH2 0xF12 CALLER DUP4 DUP7 PUSH0 ADD PUSH0 SWAP1 SLOAD SWAP1 PUSH2 0x100 EXP SWAP1 DIV PUSH20 0xFFFFFFFFFFFFFFFFFFFFFFFFFFFFFFFFFFFFFFFF AND PUSH20 0xFFFFFFFFFFFFFFFFFFFFFFFFFFFFFFFFFFFFFFFF AND PUSH2 0x30BD SWAP1 SWAP3 SWAP2 SWAP1 PUSH4 0xFFFFFFFF AND JUMP JUMPDEST JUMPDEST JUMPDEST NUMBER DUP7 CALLER PUSH20 0xFFFFFFFFFFFFFFFFFFFFFFFFFFFFFFFFFFFFFFFF AND PUSH32 0x2F25270A4D87BEA75DB541CDFE559334A275B4A233520ED6C0A2429667CCA94 DUP6 PUSH1 0x40 MLOAD PUSH2 0xF5C SWAP2 SWAP1 PUSH2 0x4345 JUMP JUMPDEST PUSH1 0x40 MLOAD DUP1 SWAP2 SUB SWAP1 LOG4 POP POP POP POP POP POP JUMP JUMPDEST PUSH2 0xF75 DUP3 PUSH2 0xBB3 JUMP JUMPDEST PUSH2 0xF7E DUP2 PUSH2 0x313C JUMP JUMPDEST PUSH2 0xF88 DUP4 DUP4 PUSH2 0x3150 JUMP JUMPDEST POP POP POP POP JUMP JUMPDEST PUSH1 0x3 PUSH0 SWAP1 SLOAD SWAP1 PUSH2 0x100 EXP SWAP1 DIV PUSH1 0xFF AND DUP2 JUMP JUMPDEST PUSH2 0xFA8 PUSH2 0x3248 JUMP JUMPDEST PUSH20 0xFFFFFFFFFFFFFFFFFFFFFFFFFFFFFFFFFFFFFFFF AND DUP2 PUSH20 0xFFFFFFFFFFFFFFFFFFFFFFFFFFFFFFFFFFFFFFFF AND EQ PUSH2 0x100C JUMPI PUSH1 0x40 MLOAD PUSH32 0x6697B23200000000000000000000000000000000000000000000000000000000 DUP2 MSTORE PUSH1 0x4 ADD PUSH1 0x40 MLOAD DUP1 SWAP2 SUB SWAP1 REVERT JUMPDEST PUSH2 0x1016 DUP3 DUP3 PUSH2 0x324F JUMP JUMPDEST POP POP POP JUMP JUMPDEST PUSH1 0x6 PUSH1 0x20 MSTORE DUP2 PUSH0 MSTORE PUSH1 0x40 PUSH0 KECCAK256 PUSH1 0x20 MSTORE DUP1 PUSH0 MSTORE PUSH1 0x40 PUSH0 KECCAK256 PUSH0 SWAP2 POP SWAP2 POP POP DUP1 PUSH0 ADD SLOAD SWAP1 DUP1 PUSH1 0x1 ADD SLOAD SWAP1 DUP1 PUSH1 0x2 ADD SLOAD SWAP1 POP DUP4 JUMP JUMPDEST PUSH2 0x1054 PUSH2 0x2F6F JUMP JUMPDEST DUP1 PUSH1 0x5 DUP1 SLOAD SWAP1 POP DUP2 LT PUSH2 0x109C JUMPI PUSH1 0x40 MLOAD PUSH32 0x8C379A000000000000000000000000000000000000000000000000000000000 DUP2 MSTORE PUSH1 0x4 ADD PUSH2 0x1093 SWAP1 PUSH2 0x4B54 JUMP JUMPDEST PUSH1 0x40 MLOAD DUP1 SWAP2 SUB SWAP1 REVERT JUMPDEST PUSH1 0x3 PUSH1 0x1 SWAP1 SLOAD SWAP1 PUSH2 0x100 EXP SWAP1 DIV PUSH1 0xFF AND ISZERO PUSH2 0x10EC JUMPI PUSH1 0x40 MLOAD PUSH32 0x8C379A000000000000000000000000000000000000000000000000000000000 DUP2 MSTORE PUSH1 0x4 ADD PUSH2 0x10E3 SWAP1 PUSH2 0x4D58 JUMP JUMPDEST PUSH1 0x40 MLOAD DUP1 SWAP2 SUB SWAP1 REVERT JUMPDEST PUSH0 PUSH1 0x5 DUP4 DUP2 SLOAD DUP2 LT PUSH2 0x1101 JUMPI PUSH2 0x1100 PUSH2 0x4BDA JUMP JUMPDEST JUMPDEST SWAP1 PUSH0 MSTORE PUSH1 0x20 PUSH0 KECCAK256 SWAP1 PUSH1 0x7 MUL ADD SWAP1 POP PUSH0 PUSH1 0x6 PUSH0 DUP6 DUP2 MSTORE PUSH1 0x20 ADD SWAP1 DUP2 MSTORE PUSH1 0x20 ADD PUSH0 KECCAK256 PUSH0 CALLER PUSH20 0xFFFFFFFFFFFFFFFFFFFFFFFFFFFFFFFFFFFFFFFF AND PUSH20 0xFFFFFFFFFFFFFFFFFFFFFFFFFFFFFFFFFFFFFFFF AND DUP2 MSTORE PUSH1 0x20 ADD SWAP1 DUP2 MSTORE PUSH1 0x20 ADD PUSH0 KECCAK256 SWAP1 POP PUSH2 0x1167 DUP5 PUSH2 0x16C7 JUMP JUMPDEST PUSH0 DUP2 PUSH1 0x2 ADD SLOAD DUP3 PUSH1 0x1 ADD SLOAD PUSH8 0xDE0B6B3A7640000 DUP6 PUSH1 0x3 ADD SLOAD DUP6 PUSH0 ADD SLOAD PUSH2 0x118E SWAP2 SWAP1 PUSH2 0x4D76 JUMP JUMPDEST PUSH2 0x1198 SWAP2 SWAP1 PUSH2 0x4DE4 JUMP JUMPDEST PUSH2 0x11A2 SWAP2 SWAP1 PUSH2 0x4CAE JUMP JUMPDEST PUSH2 0x11AC SWAP2 SWAP1 PUSH2 0x4C34 JUMP JUMPDEST SWAP1 POP PUSH0 DUP2 GT ISZERO PUSH2 0x11CA JUMPI PUSH0 DUP3 PUSH1 0x2 ADD DUP2 SWAP1 SSTORE POP PUSH2 0x11C9 CALLER DUP3 PUSH2 0x3347 JUMP JUMPDEST JUMPDEST PUSH8 0xDE0B6B3A7640000 DUP4 PUSH1 0x3 ADD SLOAD DUP4 PUSH0 ADD SLOAD PUSH2 0x11E6 SWAP2 SWAP1 PUSH2 0x4D76 JUMP JUMPDEST PUSH2 0x11F0 SWAP2 SWAP1 PUSH2 0x4DE4 JUMP JUMPDEST DUP3 PUSH1 0x1 ADD DUP2 SWAP1 SSTORE POP DUP5 CALLER PUSH20 0xFFFFFFFFFFFFFFFFFFFFFFFFFFFFFFFFFFFFFFFF AND PUSH32 0x34FCBAC0073D7C3D388E51312FAF357774904998EEB8FCA628B9E6F65EE1CBF7 DUP4 PUSH1 0x40 MLOAD PUSH2 0x123F SWAP2 SWAP1 PUSH2 0x4345 JUMP JUMPDEST PUSH1 0x40 MLOAD DUP1 SWAP2 SUB SWAP1 LOG3 POP POP POP POP POP JUMP JUMPDEST PUSH1 0x2 SLOAD DUP2 JUMP JUMPDEST PUSH0 DUP3 PUSH1 0x5 DUP1 SLOAD SWAP1 POP DUP2 LT PUSH2 0x129D JUMPI PUSH1 0x40 MLOAD PUSH32 0x8C379A000000000000000000000000000000000000000000000000000000000 DUP2 MSTORE PUSH1 0x4 ADD PUSH2 0x1294 SWAP1 PUSH2 0x4B54 JUMP JUMPDEST PUSH1 0x40 MLOAD DUP1 SWAP2 SUB SWAP1 REVERT JUMPDEST PUSH2 0x12A8 DUP5 DUP5 NUMBER PUSH2 0x12B1 JUMP JUMPDEST SWAP2 POP POP SWAP3 SWAP2 POP POP JUMP JUMPDEST PUSH0 DUP4 PUSH1 0x5 DUP1 SLOAD SWAP1 POP DUP2 LT PUSH2 0x12FA JUMPI PUSH1 0x40 MLOAD PUSH32 0x8C379A000000000000000000000000000000000000000000000000000000000 DUP2 MSTORE PUSH1 0x4 ADD PUSH2 0x12F1 SWAP1 PUSH2 0x4B54 JUMP JUMPDEST PUSH1 0x40 MLOAD DUP1 SWAP2 SUB SWAP1 REVERT JUMPDEST PUSH0 PUSH1 0x5 DUP7 DUP2 SLOAD DUP2 LT PUSH2 0x130F JUMPI PUSH2 0x130E PUSH2 0x4BDA JUMP JUMPDEST JUMPDEST SWAP1 PUSH0 MSTORE PUSH1 0x20 PUSH0 KECCAK256 SWAP1 PUSH1 0x7 MUL ADD SWAP1 POP PUSH0 PUSH1 0x6 PUSH0 DUP9 DUP2 MSTORE PUSH1 0x20 ADD SWAP1 DUP2 MSTORE PUSH1 0x20 ADD PUSH0 KECCAK256 PUSH0 DUP8 PUSH20 0xFFFFFFFFFFFFFFFFFFFFFFFFFFFFFFFFFFFFFFFF AND PUSH20 0xFFFFFFFFFFFFFFFFFFFFFFFFFFFFFFFFFFFFFFFF AND DUP2 MSTORE PUSH1 0x20 ADD SWAP1 DUP2 MSTORE PUSH1 0x20 ADD PUSH0 KECCAK256 SWAP1 POP PUSH0 DUP3 PUSH1 0x3 ADD SLOAD SWAP1 POP PUSH0 DUP4 PUSH1 0x4 ADD SLOAD SWAP1 POP DUP4 PUSH1 0x2 ADD SLOAD DUP8 GT DUP1 ISZERO PUSH2 0x138F JUMPI POP PUSH0 DUP2 EQ ISZERO JUMPDEST ISZERO PUSH2 0x13F4 JUMPI PUSH0 PUSH2 0x13A3 DUP6 PUSH1 0x2 ADD SLOAD DUP10 PUSH2 0x1BB6 JUMP JUMPDEST SWAP1 POP PUSH0 PUSH1 0x4 SLOAD DUP7 PUSH1 0x1 ADD SLOAD DUP4 PUSH2 0x13B9 SWAP2 SWAP1 PUSH2 0x4D76 JUMP JUMPDEST PUSH2 0x13C3 SWAP2 SWAP1 PUSH2 0x4DE4 JUMP JUMPDEST SWAP1 POP DUP3 PUSH8 0xDE0B6B3A7640000 DUP3 PUSH2 0x13DA SWAP2 SWAP1 PUSH2 0x4D76 JUMP JUMPDEST PUSH2 0x13E4 SWAP2 SWAP1 PUSH2 0x4DE4 JUMP JUMPDEST DUP5 PUSH2 0x13EF SWAP2 SWAP1 PUSH2 0x4C34 JUMP JUMPDEST SWAP4 POP POP POP JUMPDEST DUP3 PUSH1 0x2 ADD SLOAD DUP4 PUSH1 0x1 ADD SLOAD PUSH8 0xDE0B6B3A7640000 DUP5 DUP7 PUSH0 ADD SLOAD PUSH2 0x1416 SWAP2 SWAP1 PUSH2 0x4D76 JUMP JUMPDEST PUSH2 0x1420 SWAP2 SWAP1 PUSH2 0x4DE4 JUMP JUMPDEST PUSH2 0x142A SWAP2 SWAP1 PUSH2 0x4CAE JUMP JUMPDEST PUSH2 0x1434 SWAP2 SWAP1 PUSH2 0x4C34 JUMP JUMPDEST SWAP6 POP POP POP POP POP POP SWAP4 SWAP3 POP POP POP JUMP JUMPDEST PUSH0 SLOAD DUP2 JUMP JUMPDEST PUSH0 PUSH2 0x1450 PUSH2 0x3533 JUMP JUMPDEST SWAP1 POP PUSH0 DUP2 PUSH0 ADD PUSH1 0x8 SWAP1 SLOAD SWAP1 PUSH2 0x100 EXP SWAP1 DIV PUSH1 0xFF AND ISZERO SWAP1 POP PUSH0 DUP3 PUSH0 ADD PUSH0 SWAP1 SLOAD SWAP1 PUSH2 0x100 EXP SWAP1 DIV PUSH8 0xFFFFFFFFFFFFFFFF AND SWAP1 POP PUSH0 DUP1 DUP3 PUSH8 0xFFFFFFFFFFFFFFFF AND EQ DUP1 ISZERO PUSH2 0x1498 JUMPI POP DUP3 JUMPDEST SWAP1 POP PUSH0 PUSH1 0x1 DUP4 PUSH8 0xFFFFFFFFFFFFFFFF AND EQ DUP1 ISZERO PUSH2 0x14CB JUMPI POP PUSH0 ADDRESS PUSH20 0xFFFFFFFFFFFFFFFFFFFFFFFFFFFFFFFFFFFFFFFF AND EXTCODESIZE EQ JUMPDEST SWAP1 POP DUP2 ISZERO DUP1 ISZERO PUSH2 0x14D9 JUMPI POP DUP1 ISZERO JUMPDEST ISZERO PUSH2 0x1510 JUMPI PUSH1 0x40 MLOAD PUSH32 0xF92EE8A900000000000000000000000000000000000000000000000000000000 DUP2 MSTORE PUSH1 0x4 ADD PUSH1 0x40 MLOAD DUP1 SWAP2 SUB SWAP1 REVERT JUMPDEST PUSH1 0x1 DUP6 PUSH0 ADD PUSH0 PUSH2 0x100 EXP DUP2 SLOAD DUP2 PUSH8 0xFFFFFFFFFFFFFFFF MUL NOT AND SWAP1 DUP4 PUSH8 0xFFFFFFFFFFFFFFFF AND MUL OR SWAP1 SSTORE POP DUP4 ISZERO PUSH2 0x155D JUMPI PUSH1 0x1 DUP6 PUSH0 ADD PUSH1 0x8 PUSH2 0x100 EXP DUP2 SLOAD DUP2 PUSH1 0xFF MUL NOT AND SWAP1 DUP4 ISZERO ISZERO MUL OR SWAP1 SSTORE POP JUMPDEST DUP7 DUP9 GT ISZERO DUP1 ISZERO PUSH2 0x156C JUMPI POP PUSH0 DUP7 GT JUMPDEST PUSH2 0x15AB JUMPI PUSH1 0x40 MLOAD PUSH32 0x8C379A000000000000000000000000000000000000000000000000000000000 DUP2 MSTORE PUSH1 0x4 ADD PUSH2 0x15A2 SWAP1 PUSH2 0x4E5E JUMP JUMPDEST PUSH1 0x40 MLOAD DUP1 SWAP2 SUB SWAP1 REVERT JUMPDEST PUSH2 0x15B3 PUSH2 0x355A JUMP JUMPDEST PUSH2 0x15BB PUSH2 0x3564 JUMP JUMPDEST PUSH2 0x15C3 PUSH2 0x356E JUMP JUMPDEST PUSH2 0x15CF PUSH0 DUP1 SHL CALLER PUSH2 0x3150 JUMP JUMPDEST POP PUSH2 0x15FA PUSH32 0xCAB03BC4DBCC648CD59D6BBE9F848D1E9092F914016AA290EE92E18700D1E6F9 CALLER PUSH2 0x3150 JUMP JUMPDEST POP PUSH2 0x1625 PUSH32 0x589D473BA17C0F47D494622893831497BAD25919B9AFB8E33E9521B8963FCCDE CALLER PUSH2 0x3150 JUMP JUMPDEST POP PUSH2 0x162F DUP10 PUSH2 0x2ADE JUMP JUMPDEST DUP8 PUSH0 DUP2 SWAP1 SSTORE POP DUP7 PUSH1 0x1 DUP2 SWAP1 SSTORE POP DUP6 PUSH1 0x2 DUP2 SWAP1 SSTORE POP DUP4 ISZERO PUSH2 0x169D JUMPI PUSH0 DUP6 PUSH0 ADD PUSH1 0x8 PUSH2 0x100 EXP DUP2 SLOAD DUP2 PUSH1 0xFF MUL NOT AND SWAP1 DUP4 ISZERO ISZERO MUL OR SWAP1 SSTORE POP PUSH32 0xC7F505B2F371AE2175EE4913F4499E1F2633A7B5936321EED1CDAEB6115181D2 PUSH1 0x1 PUSH1 0x40 MLOAD PUSH2 0x1694 SWAP2 SWAP1 PUSH2 0x4EC8 JUMP JUMPDEST PUSH1 0x40 MLOAD DUP1 SWAP2 SUB SWAP1 LOG1 JUMPDEST POP POP POP POP POP POP POP POP POP JUMP JUMPDEST PUSH2 0x16B0 PUSH2 0x3580 JUMP JUMPDEST PUSH2 0x16B9 DUP3 PUSH2 0x3666 JUMP JUMPDEST PUSH2 0x16C3 DUP3 DUP3 PUSH2 0x3694 JUMP JUMPDEST POP POP JUMP JUMPDEST DUP1 PUSH1 0x5 DUP1 SLOAD SWAP1 POP DUP2 LT PUSH2 0x170F JUMPI PUSH1 0x40 MLOAD PUSH32 0x8C379A000000000000000000000000000000000000000000000000000000000 DUP2 MSTORE PUSH1 0x4 ADD PUSH2 0x1706 SWAP1 PUSH2 0x4B54 JUMP JUMPDEST PUSH1 0x40 MLOAD DUP1 SWAP2 SUB SWAP1 REVERT JUMPDEST PUSH0 PUSH1 0x5 DUP4 DUP2 SLOAD DUP2 LT PUSH2 0x1724 JUMPI PUSH2 0x1723 PUSH2 0x4BDA JUMP JUMPDEST JUMPDEST SWAP1 PUSH0 MSTORE PUSH1 0x20 PUSH0 KECCAK256 SWAP1 PUSH1 0x7 MUL ADD SWAP1 POP DUP1 PUSH1 0x2 ADD SLOAD NUMBER GT PUSH2 0x1743 JUMPI POP PUSH2 0x198C JUMP JUMPDEST PUSH0 DUP1 PUSH2 0x1769 DUP4 PUSH1 0x1 ADD SLOAD PUSH2 0x175B DUP6 PUSH1 0x2 ADD SLOAD NUMBER PUSH2 0x1BB6 JUMP JUMPDEST PUSH2 0x37B2 SWAP1 SWAP2 SWAP1 PUSH4 0xFFFFFFFF AND JUMP JUMPDEST SWAP2 POP SWAP2 POP DUP2 PUSH2 0x17AD JUMPI PUSH1 0x40 MLOAD PUSH32 0x8C379A000000000000000000000000000000000000000000000000000000000 DUP2 MSTORE PUSH1 0x4 ADD PUSH2 0x17A4 SWAP1 PUSH2 0x4F2B JUMP JUMPDEST PUSH1 0x40 MLOAD DUP1 SWAP2 SUB SWAP1 REVERT JUMPDEST PUSH2 0x17C2 PUSH1 0x4 SLOAD DUP3 PUSH2 0x3800 SWAP1 SWAP2 SWAP1 PUSH4 0xFFFFFFFF AND JUMP JUMPDEST DUP1 SWAP3 POP DUP2 SWAP4 POP POP POP DUP2 PUSH2 0x180A JUMPI PUSH1 0x40 MLOAD PUSH32 0x8C379A000000000000000000000000000000000000000000000000000000000 DUP2 MSTORE PUSH1 0x4 ADD PUSH2 0x1801 SWAP1 PUSH2 0x4FB9 JUMP JUMPDEST PUSH1 0x40 MLOAD DUP1 SWAP2 SUB SWAP1 REVERT JUMPDEST PUSH0 DUP4 PUSH1 0x4 ADD SLOAD SWAP1 POP PUSH0 DUP2 GT ISZERO PUSH2 0x1941 JUMPI PUSH0 DUP1 PUSH2 0x1837 PUSH8 0xDE0B6B3A7640000 DUP6 PUSH2 0x37B2 SWAP1 SWAP2 SWAP1 PUSH4 0xFFFFFFFF AND JUMP JUMPDEST SWAP2 POP SWAP2 POP DUP2 PUSH2 0x187B JUMPI PUSH1 0x40 MLOAD PUSH32 0x8C379A000000000000000000000000000000000000000000000000000000000 DUP2 MSTORE PUSH1 0x4 ADD PUSH2 0x1872 SWAP1 PUSH2 0x5021 JUMP JUMPDEST PUSH1 0x40 MLOAD DUP1 SWAP2 SUB SWAP1 REVERT JUMPDEST PUSH2 0x188E DUP4 DUP3 PUSH2 0x3800 SWAP1 SWAP2 SWAP1 PUSH4 0xFFFFFFFF AND JUMP JUMPDEST DUP1 SWAP3 POP DUP2 SWAP4 POP POP POP DUP2 PUSH2 0x18D6 JUMPI PUSH1 0x40 MLOAD PUSH32 0x8C379A000000000000000000000000000000000000000000000000000000000 DUP2 MSTORE PUSH1 0x4 ADD PUSH2 0x18CD SWAP1 PUSH2 0x5089 JUMP JUMPDEST PUSH1 0x40 MLOAD DUP1 SWAP2 SUB SWAP1 REVERT JUMPDEST PUSH0 DUP1 PUSH2 0x18EF DUP4 DUP10 PUSH1 0x3 ADD SLOAD PUSH2 0x3833 SWAP1 SWAP2 SWAP1 PUSH4 0xFFFFFFFF AND JUMP JUMPDEST SWAP2 POP SWAP2 POP DUP2 PUSH2 0x1933 JUMPI PUSH1 0x40 MLOAD PUSH32 0x8C379A000000000000000000000000000000000000000000000000000000000 DUP2 MSTORE PUSH1 0x4 ADD PUSH2 0x192A SWAP1 PUSH2 0x50F1 JUMP JUMPDEST PUSH1 0x40 MLOAD DUP1 SWAP2 SUB SWAP1 REVERT JUMPDEST DUP1 DUP9 PUSH1 0x3 ADD DUP2 SWAP1 SSTORE POP POP POP POP POP JUMPDEST NUMBER DUP5 PUSH1 0x2 ADD DUP2 SWAP1 SSTORE POP DUP4 PUSH1 0x2 ADD SLOAD DUP7 PUSH32 0xF5D2D72D9B25D6853AFD7D0554A113B705234B6A68BB36B7F143662994632411 DUP5 PUSH1 0x40 MLOAD PUSH2 0x197F SWAP2 SWAP1 PUSH2 0x4345 JUMP JUMPDEST PUSH1 0x40 MLOAD DUP1 SWAP2 SUB SWAP1 LOG3 POP POP POP POP JUMPDEST POP POP JUMP JUMPDEST PUSH0 PUSH2 0x1999 PUSH2 0x385F JUMP JUMPDEST PUSH32 0x360894A13BA1A3210667C828492DB98DCA3E2076CC3735A920A3CA505D382BBC PUSH0 SHL SWAP1 POP SWAP1 JUMP JUMPDEST PUSH32 0x589D473BA17C0F47D494622893831497BAD25919B9AFB8E33E9521B8963FCCDE PUSH2 0x19EB DUP2 PUSH2 0x313C JUMP JUMPDEST PUSH1 0x3 PUSH0 SWAP1 SLOAD SWAP1 PUSH2 0x100 EXP SWAP1 DIV PUSH1 0xFF AND PUSH2 0x1A39 JUMPI PUSH1 0x40 MLOAD PUSH32 0x8C379A000000000000000000000000000000000000000000000000000000000 DUP2 MSTORE PUSH1 0x4 ADD PUSH2 0x1A30 SWAP1 PUSH2 0x517F JUMP JUMPDEST PUSH1 0x40 MLOAD DUP1 SWAP2 SUB SWAP1 REVERT JUMPDEST PUSH0 PUSH1 0x3 PUSH0 PUSH2 0x100 EXP DUP2 SLOAD DUP2 PUSH1 0xFF MUL NOT AND SWAP1 DUP4 ISZERO ISZERO MUL OR SWAP1 SSTORE POP PUSH32 0x1C84BCAEAD48B692CC46B9B12E9A068951A59C99A2E2BF10B00B60B403CF12E2 PUSH1 0x40 MLOAD PUSH1 0x40 MLOAD DUP1 SWAP2 SUB SWAP1 LOG1 POP JUMP JUMPDEST PUSH0 DUP1 PUSH2 0x1A8B PUSH2 0x38E6 JUMP JUMPDEST SWAP1 POP DUP1 PUSH0 ADD PUSH0 SWAP1 SLOAD SWAP1 PUSH2 0x100 EXP SWAP1 DIV PUSH1 0xFF AND SWAP2 POP POP SWAP1 JUMP JUMPDEST PUSH32 0x589D473BA17C0F47D494622893831497BAD25919B9AFB8E33E9521B8963FCCDE PUSH2 0x1ACD DUP2 PUSH2 0x313C JUMP JUMPDEST PUSH1 0x3 PUSH0 SWAP1 SLOAD SWAP1 PUSH2 0x100 EXP SWAP1 DIV PUSH1 0xFF AND ISZERO PUSH2 0x1B1C JUMPI PUSH1 0x40 MLOAD PUSH32 0x8C379A000000000000000000000000000000000000000000000000000000000 DUP2 MSTORE PUSH1 0x4 ADD PUSH2 0x1B13 SWAP1 PUSH2 0x51E7 JUMP JUMPDEST PUSH1 0x40 MLOAD DUP1 SWAP2 SUB SWAP1 REVERT JUMPDEST PUSH1 0x1 PUSH1 0x3 PUSH0 PUSH2 0x100 EXP DUP2 SLOAD DUP2 PUSH1 0xFF MUL NOT AND SWAP1 DUP4 ISZERO ISZERO MUL OR SWAP1 SSTORE POP PUSH32 0x8099F593A6AAECD68B6494933CD71F703376AC3975BE83692E1B7D800ABF6837 PUSH1 0x40 MLOAD PUSH1 0x40 MLOAD DUP1 SWAP2 SUB SWAP1 LOG1 POP JUMP JUMPDEST PUSH0 PUSH1 0x5 DUP1 SLOAD SWAP1 POP SWAP1 POP PUSH0 JUMPDEST DUP2 DUP2 LT ISZERO PUSH2 0x1B8E JUMPI PUSH2 0x1B81 DUP2 PUSH2 0x16C7 JUMP JUMPDEST DUP1 DUP1 PUSH1 0x1 ADD SWAP2 POP POP PUSH2 0x1B70 JUMP JUMPDEST POP POP JUMP JUMPDEST PUSH32 0x589D473BA17C0F47D494622893831497BAD25919B9AFB8E33E9521B8963FCCDE DUP2 JUMP JUMPDEST PUSH0 DUP2 DUP4 GT ISZERO PUSH2 0x1BFA JUMPI PUSH1 0x40 MLOAD PUSH32 0x8C379A000000000000000000000000000000000000000000000000000000000 DUP2 MSTORE PUSH1 0x4 ADD PUSH2 0x1BF1 SWAP1 PUSH2 0x524F JUMP JUMPDEST PUSH1 0x40 MLOAD DUP1 SWAP2 SUB SWAP1 REVERT JUMPDEST PUSH0 SLOAD DUP4 LT ISZERO PUSH2 0x1C08 JUMPI PUSH0 SLOAD SWAP3 POP JUMPDEST PUSH1 0x1 SLOAD DUP3 GT ISZERO PUSH2 0x1C18 JUMPI PUSH1 0x1 SLOAD SWAP2 POP JUMPDEST DUP2 DUP4 GT ISZERO PUSH2 0x1C5B JUMPI PUSH1 0x40 MLOAD PUSH32 0x8C379A000000000000000000000000000000000000000000000000000000000 DUP2 MSTORE PUSH1 0x4 ADD PUSH2 0x1C52 SWAP1 PUSH2 0x52DD JUMP JUMPDEST PUSH1 0x40 MLOAD DUP1 SWAP2 SUB SWAP1 REVERT JUMPDEST PUSH0 PUSH2 0x1C7C PUSH1 0x2 SLOAD DUP6 DUP6 PUSH2 0x1C6E SWAP2 SWAP1 PUSH2 0x4CAE JUMP JUMPDEST PUSH2 0x37B2 SWAP1 SWAP2 SWAP1 PUSH4 0xFFFFFFFF AND JUMP JUMPDEST DUP1 SWAP4 POP DUP2 SWAP3 POP POP POP DUP1 PUSH2 0x1CC4 JUMPI PUSH1 0x40 MLOAD PUSH32 0x8C379A000000000000000000000000000000000000000000000000000000000 DUP2 MSTORE PUSH1 0x4 ADD PUSH2 0x1CBB SWAP1 PUSH2 0x5345 JUMP JUMPDEST PUSH1 0x40 MLOAD DUP1 SWAP2 SUB SWAP1 REVERT JUMPDEST POP SWAP3 SWAP2 POP POP JUMP JUMPDEST PUSH32 0x589D473BA17C0F47D494622893831497BAD25919B9AFB8E33E9521B8963FCCDE PUSH2 0x1CF5 DUP2 PUSH2 0x313C JUMP JUMPDEST PUSH1 0x3 PUSH1 0x1 SWAP1 SLOAD SWAP1 PUSH2 0x100 EXP SWAP1 DIV PUSH1 0xFF AND ISZERO PUSH2 0x1D45 JUMPI PUSH1 0x40 MLOAD PUSH32 0x8C379A000000000000000000000000000000000000000000000000000000000 DUP2 MSTORE PUSH1 0x4 ADD PUSH2 0x1D3C SWAP1 PUSH2 0x53AD JUMP JUMPDEST PUSH1 0x40 MLOAD DUP1 SWAP2 SUB SWAP1 REVERT JUMPDEST PUSH1 0x1 PUSH1 0x3 PUSH1 0x1 PUSH2 0x100 EXP DUP2 SLOAD DUP2 PUSH1 0xFF MUL NOT AND SWAP1 DUP4 ISZERO ISZERO MUL OR SWAP1 SSTORE POP PUSH32 0x6D73D6B34C378AB3BF6630206D60B7882801B91D03EE20D016FF0D5054DB81E1 PUSH1 0x40 MLOAD PUSH1 0x40 MLOAD DUP1 SWAP2 SUB SWAP1 LOG1 POP JUMP JUMPDEST PUSH0 DUP1 PUSH2 0x1D99 PUSH2 0x2F48 JUMP JUMPDEST SWAP1 POP DUP1 PUSH0 ADD PUSH0 DUP6 DUP2 MSTORE PUSH1 0x20 ADD SWAP1 DUP2 MSTORE PUSH1 0x20 ADD PUSH0 KECCAK256 PUSH0 ADD PUSH0 DUP5 PUSH20 0xFFFFFFFFFFFFFFFFFFFFFFFFFFFFFFFFFFFFFFFF AND PUSH20 0xFFFFFFFFFFFFFFFFFFFFFFFFFFFFFFFFFFFFFFFF AND DUP2 MSTORE PUSH1 0x20 ADD SWAP1 DUP2 MSTORE PUSH1 0x20 ADD PUSH0 KECCAK256 PUSH0 SWAP1 SLOAD SWAP1 PUSH2 0x100 EXP SWAP1 DIV PUSH1 0xFF AND SWAP2 POP POP SWAP3 SWAP2 POP POP JUMP JUMPDEST PUSH2 0x1E08 PUSH2 0x2F6F JUMP JUMPDEST DUP2 PUSH1 0x5 DUP1 SLOAD SWAP1 POP DUP2 LT PUSH2 0x1E50 JUMPI PUSH1 0x40 MLOAD PUSH32 0x8C379A000000000000000000000000000000000000000000000000000000000 DUP2 MSTORE PUSH1 0x4 ADD PUSH2 0x1E47 SWAP1 PUSH2 0x4B54 JUMP JUMPDEST PUSH1 0x40 MLOAD DUP1 SWAP2 SUB SWAP1 REVERT JUMPDEST PUSH1 0x3 PUSH0 SWAP1 SLOAD SWAP1 PUSH2 0x100 EXP SWAP1 DIV PUSH1 0xFF AND ISZERO PUSH2 0x1E9F JUMPI PUSH1 0x40 MLOAD PUSH32 0x8C379A000000000000000000000000000000000000000000000000000000000 DUP2 MSTORE PUSH1 0x4 ADD PUSH2 0x1E96 SWAP1 PUSH2 0x4BBC JUMP JUMPDEST PUSH1 0x40 MLOAD DUP1 SWAP2 SUB SWAP1 REVERT JUMPDEST PUSH0 PUSH1 0x5 DUP5 DUP2 SLOAD DUP2 LT PUSH2 0x1EB4 JUMPI PUSH2 0x1EB3 PUSH2 0x4BDA JUMP JUMPDEST JUMPDEST SWAP1 PUSH0 MSTORE PUSH1 0x20 PUSH0 KECCAK256 SWAP1 PUSH1 0x7 MUL ADD SWAP1 POP PUSH0 PUSH1 0x6 PUSH0 DUP7 DUP2 MSTORE PUSH1 0x20 ADD SWAP1 DUP2 MSTORE PUSH1 0x20 ADD PUSH0 KECCAK256 PUSH0 CALLER PUSH20 0xFFFFFFFFFFFFFFFFFFFFFFFFFFFFFFFFFFFFFFFF AND PUSH20 0xFFFFFFFFFFFFFFFFFFFFFFFFFFFFFFFFFFFFFFFF AND DUP2 MSTORE PUSH1 0x20 ADD SWAP1 DUP2 MSTORE PUSH1 0x20 ADD PUSH0 KECCAK256 SWAP1 POP DUP4 DUP2 PUSH0 ADD SLOAD LT ISZERO PUSH2 0x1F57 JUMPI PUSH1 0x40 MLOAD PUSH32 0x8C379A000000000000000000000000000000000000000000000000000000000 DUP2 MSTORE PUSH1 0x4 ADD PUSH2 0x1F4E SWAP1 PUSH2 0x5415 JUMP JUMPDEST PUSH1 0x40 MLOAD DUP1 SWAP2 SUB SWAP1 REVERT JUMPDEST PUSH2 0x1F60 DUP6 PUSH2 0x16C7 JUMP JUMPDEST PUSH0 DUP2 PUSH1 0x1 ADD SLOAD PUSH8 0xDE0B6B3A7640000 DUP5 PUSH1 0x3 ADD SLOAD DUP5 PUSH0 ADD SLOAD PUSH2 0x1F82 SWAP2 SWAP1 PUSH2 0x4D76 JUMP JUMPDEST PUSH2 0x1F8C SWAP2 SWAP1 PUSH2 0x4DE4 JUMP JUMPDEST PUSH2 0x1F96 SWAP2 SWAP1 PUSH2 0x4CAE JUMP JUMPDEST SWAP1 POP PUSH0 DUP2 GT ISZERO PUSH2 0x1FB9 JUMPI DUP1 DUP3 PUSH1 0x2 ADD SLOAD PUSH2 0x1FB0 SWAP2 SWAP1 PUSH2 0x4C34 JUMP JUMPDEST DUP3 PUSH1 0x2 ADD DUP2 SWAP1 SSTORE POP JUMPDEST PUSH0 DUP6 GT ISZERO PUSH2 0x203A JUMPI DUP5 DUP3 PUSH0 ADD SLOAD PUSH2 0x1FD0 SWAP2 SWAP1 PUSH2 0x4CAE JUMP JUMPDEST DUP3 PUSH0 ADD DUP2 SWAP1 SSTORE POP DUP2 PUSH1 0x3 ADD PUSH1 0x40 MLOAD DUP1 PUSH1 0x40 ADD PUSH1 0x40 MSTORE DUP1 DUP8 DUP2 MSTORE PUSH1 0x20 ADD DUP6 PUSH1 0x6 ADD SLOAD NUMBER PUSH2 0x1FFC SWAP2 SWAP1 PUSH2 0x4C34 JUMP JUMPDEST DUP2 MSTORE POP SWAP1 DUP1 PUSH1 0x1 DUP2 SLOAD ADD DUP1 DUP3 SSTORE DUP1 SWAP2 POP POP PUSH1 0x1 SWAP1 SUB SWAP1 PUSH0 MSTORE PUSH1 0x20 PUSH0 KECCAK256 SWAP1 PUSH1 0x2 MUL ADD PUSH0 SWAP1 SWAP2 SWAP1 SWAP2 SWAP1 SWAP2 POP PUSH0 DUP3 ADD MLOAD DUP2 PUSH0 ADD SSTORE PUSH1 0x20 DUP3 ADD MLOAD DUP2 PUSH1 0x1 ADD SSTORE POP POP JUMPDEST DUP5 DUP4 PUSH1 0x4 ADD SLOAD PUSH2 0x204A SWAP2 SWAP1 PUSH2 0x4CAE JUMP JUMPDEST DUP4 PUSH1 0x4 ADD DUP2 SWAP1 SSTORE POP PUSH8 0xDE0B6B3A7640000 DUP4 PUSH1 0x3 ADD SLOAD DUP4 PUSH0 ADD SLOAD PUSH2 0x206E SWAP2 SWAP1 PUSH2 0x4D76 JUMP JUMPDEST PUSH2 0x2078 SWAP2 SWAP1 PUSH2 0x4DE4 JUMP JUMPDEST DUP3 PUSH1 0x1 ADD DUP2 SWAP1 SSTORE POP DUP6 CALLER PUSH20 0xFFFFFFFFFFFFFFFFFFFFFFFFFFFFFFFFFFFFFFFF AND PUSH32 0xC80277265097707F6F12A4AC4C09D46C9926E2EEA2536F63616CB04D9FCAD7D6 DUP8 PUSH1 0x40 MLOAD PUSH2 0x20C7 SWAP2 SWAP1 PUSH2 0x4345 JUMP JUMPDEST PUSH1 0x40 MLOAD DUP1 SWAP2 SUB SWAP1 LOG3 POP POP POP POP POP POP JUMP JUMPDEST PUSH0 DUP1 SHL DUP2 JUMP JUMPDEST PUSH2 0x20E5 PUSH2 0x2F6F JUMP JUMPDEST PUSH0 PUSH1 0x5 PUSH0 DUP2 SLOAD DUP2 LT PUSH2 0x20FA JUMPI PUSH2 0x20F9 PUSH2 0x4BDA JUMP JUMPDEST JUMPDEST SWAP1 PUSH0 MSTORE PUSH1 0x20 PUSH0 KECCAK256 SWAP1 PUSH1 0x7 MUL ADD SWAP1 POP PUSH0 PUSH20 0xFFFFFFFFFFFFFFFFFFFFFFFFFFFFFFFFFFFFFFFF AND DUP2 PUSH0 ADD PUSH0 SWAP1 SLOAD SWAP1 PUSH2 0x100 EXP SWAP1 DIV PUSH20 0xFFFFFFFFFFFFFFFFFFFFFFFFFFFFFFFFFFFFFFFF AND PUSH20 0xFFFFFFFFFFFFFFFFFFFFFFFFFFFFFFFFFFFFFFFF AND EQ PUSH2 0x2198 JUMPI PUSH1 0x40 MLOAD PUSH32 0x8C379A000000000000000000000000000000000000000000000000000000000 DUP2 MSTORE PUSH1 0x4 ADD PUSH2 0x218F SWAP1 PUSH2 0x547D JUMP JUMPDEST PUSH1 0x40 MLOAD DUP1 SWAP2 SUB SWAP1 REVERT JUMPDEST PUSH0 CALLVALUE SWAP1 POP DUP2 PUSH1 0x5 ADD SLOAD DUP2 LT ISZERO PUSH2 0x21E3 JUMPI PUSH1 0x40 MLOAD PUSH32 0x8C379A000000000000000000000000000000000000000000000000000000000 DUP2 MSTORE PUSH1 0x4 ADD PUSH2 0x21DA SWAP1 PUSH2 0x54E5 JUMP JUMPDEST PUSH1 0x40 MLOAD DUP1 SWAP2 SUB SWAP1 REVERT JUMPDEST PUSH2 0x21ED PUSH0 DUP3 PUSH2 0x390D JUMP JUMPDEST POP POP JUMP JUMPDEST PUSH1 0x3 PUSH1 0x2 SWAP1 SLOAD SWAP1 PUSH2 0x100 EXP SWAP1 DIV PUSH20 0xFFFFFFFFFFFFFFFFFFFFFFFFFFFFFFFFFFFFFFFF AND DUP2 JUMP JUMPDEST PUSH1 0x3 PUSH1 0x1 SWAP1 SLOAD SWAP1 PUSH2 0x100 EXP SWAP1 DIV PUSH1 0xFF AND DUP2 JUMP JUMPDEST PUSH1 0x40 MLOAD DUP1 PUSH1 0x40 ADD PUSH1 0x40 MSTORE DUP1 PUSH1 0x5 DUP2 MSTORE PUSH1 0x20 ADD PUSH32 0x352E302E30000000000000000000000000000000000000000000000000000000 DUP2 MSTORE POP DUP2 JUMP JUMPDEST PUSH32 0x589D473BA17C0F47D494622893831497BAD25919B9AFB8E33E9521B8963FCCDE PUSH2 0x228D DUP2 PUSH2 0x313C JUMP JUMPDEST PUSH0 PUSH1 0x5 DUP1 SLOAD SWAP1 POP GT ISZERO PUSH2 0x230D JUMPI PUSH0 PUSH20 0xFFFFFFFFFFFFFFFFFFFFFFFFFFFFFFFFFFFFFFFF AND DUP7 PUSH20 0xFFFFFFFFFFFFFFFFFFFFFFFFFFFFFFFFFFFFFFFF AND SUB PUSH2 0x2308 JUMPI PUSH1 0x40 MLOAD PUSH32 0x8C379A000000000000000000000000000000000000000000000000000000000 DUP2 MSTORE PUSH1 0x4 ADD PUSH2 0x22FF SWAP1 PUSH2 0x547D JUMP JUMPDEST PUSH1 0x40 MLOAD DUP1 SWAP2 SUB SWAP1 REVERT JUMPDEST PUSH2 0x237C JUMP JUMPDEST PUSH0 PUSH20 0xFFFFFFFFFFFFFFFFFFFFFFFFFFFFFFFFFFFFFFFF AND DUP7 PUSH20 0xFFFFFFFFFFFFFFFFFFFFFFFFFFFFFFFFFFFFFFFF AND EQ PUSH2 0x237B JUMPI PUSH1 0x40 MLOAD PUSH32 0x8C379A000000000000000000000000000000000000000000000000000000000 DUP2 MSTORE PUSH1 0x4 ADD PUSH2 0x2372 SWAP1 PUSH2 0x547D JUMP JUMPDEST PUSH1 0x40 MLOAD DUP1 SWAP2 SUB SWAP1 REVERT JUMPDEST JUMPDEST PUSH0 DUP4 GT PUSH2 0x23BE JUMPI PUSH1 0x40 MLOAD PUSH32 0x8C379A000000000000000000000000000000000000000000000000000000000 DUP2 MSTORE PUSH1 0x4 ADD PUSH2 0x23B5 SWAP1 PUSH2 0x554D JUMP JUMPDEST PUSH1 0x40 MLOAD DUP1 SWAP2 SUB SWAP1 REVERT JUMPDEST PUSH1 0x1 SLOAD NUMBER LT PUSH2 0x2402 JUMPI PUSH1 0x40 MLOAD PUSH32 0x8C379A000000000000000000000000000000000000000000000000000000000 DUP2 MSTORE PUSH1 0x4 ADD PUSH2 0x23F9 SWAP1 PUSH2 0x55B5 JUMP JUMPDEST PUSH1 0x40 MLOAD DUP1 SWAP2 SUB SWAP1 REVERT JUMPDEST DUP2 ISZERO PUSH2 0x2411 JUMPI PUSH2 0x2410 PUSH2 0x1B65 JUMP JUMPDEST JUMPDEST PUSH0 DUP1 SLOAD NUMBER GT PUSH2 0x2421 JUMPI PUSH0 SLOAD PUSH2 0x2423 JUMP JUMPDEST NUMBER JUMPDEST SWAP1 POP DUP6 PUSH1 0x4 SLOAD PUSH2 0x2433 SWAP2 SWAP1 PUSH2 0x4C34 JUMP JUMPDEST PUSH1 0x4 DUP2 SWAP1 SSTORE POP PUSH1 0x5 PUSH1 0x40 MLOAD DUP1 PUSH1 0xE0 ADD PUSH1 0x40 MSTORE DUP1 DUP10 PUSH20 0xFFFFFFFFFFFFFFFFFFFFFFFFFFFFFFFFFFFFFFFF AND DUP2 MSTORE PUSH1 0x20 ADD DUP9 DUP2 MSTORE PUSH1 0x20 ADD DUP4 DUP2 MSTORE PUSH1 0x20 ADD PUSH0 DUP2 MSTORE PUSH1 0x20 ADD PUSH0 DUP2 MSTORE PUSH1 0x20 ADD DUP8 DUP2 MSTORE PUSH1 0x20 ADD DUP7 DUP2 MSTORE POP SWAP1 DUP1 PUSH1 0x1 DUP2 SLOAD ADD DUP1 DUP3 SSTORE DUP1 SWAP2 POP POP PUSH1 0x1 SWAP1 SUB SWAP1 PUSH0 MSTORE PUSH1 0x20 PUSH0 KECCAK256 SWAP1 PUSH1 0x7 MUL ADD PUSH0 SWAP1 SWAP2 SWAP1 SWAP2 SWAP1 SWAP2 POP PUSH0 DUP3 ADD MLOAD DUP2 PUSH0 ADD PUSH0 PUSH2 0x100 EXP DUP2 SLOAD DUP2 PUSH20 0xFFFFFFFFFFFFFFFFFFFFFFFFFFFFFFFFFFFFFFFF MUL NOT AND SWAP1 DUP4 PUSH20 0xFFFFFFFFFFFFFFFFFFFFFFFFFFFFFFFFFFFFFFFF AND MUL OR SWAP1 SSTORE POP PUSH1 0x20 DUP3 ADD MLOAD DUP2 PUSH1 0x1 ADD SSTORE PUSH1 0x40 DUP3 ADD MLOAD DUP2 PUSH1 0x2 ADD SSTORE PUSH1 0x60 DUP3 ADD MLOAD DUP2 PUSH1 0x3 ADD SSTORE PUSH1 0x80 DUP3 ADD MLOAD DUP2 PUSH1 0x4 ADD SSTORE PUSH1 0xA0 DUP3 ADD MLOAD DUP2 PUSH1 0x5 ADD SSTORE PUSH1 0xC0 DUP3 ADD MLOAD DUP2 PUSH1 0x6 ADD SSTORE POP POP DUP1 DUP7 DUP9 PUSH20 0xFFFFFFFFFFFFFFFFFFFFFFFFFFFFFFFFFFFFFFFF AND PUSH32 0xFA296FCE13E7A0E622B3A892E66220C248337289483A3CFA4130CDE0CAA1346 DUP9 DUP9 PUSH1 0x40 MLOAD PUSH2 0x2576 SWAP3 SWAP2 SWAP1 PUSH2 0x4AE3 JUMP JUMPDEST PUSH1 0x40 MLOAD DUP1 SWAP2 SUB SWAP1 LOG4 POP POP POP POP POP POP POP JUMP JUMPDEST PUSH32 0xCAB03BC4DBCC648CD59D6BBE9F848D1E9092F914016AA290EE92E18700D1E6F9 DUP2 JUMP JUMPDEST PUSH0 DUP2 JUMP JUMPDEST PUSH32 0x589D473BA17C0F47D494622893831497BAD25919B9AFB8E33E9521B8963FCCDE PUSH2 0x25D9 DUP2 PUSH2 0x313C JUMP JUMPDEST PUSH0 DUP3 GT PUSH2 0x261B JUMPI PUSH1 0x40 MLOAD PUSH32 0x8C379A000000000000000000000000000000000000000000000000000000000 DUP2 MSTORE PUSH1 0x4 ADD PUSH2 0x2612 SWAP1 PUSH2 0x561D JUMP JUMPDEST PUSH1 0x40 MLOAD DUP1 SWAP2 SUB SWAP1 REVERT JUMPDEST DUP2 PUSH1 0x2 DUP2 SWAP1 SSTORE POP DUP2 PUSH32 0x4C70925B625536DD633F6BD2D615C67FDDC2E7C63C31164047A981A0DF3FEE54 PUSH1 0x40 MLOAD PUSH1 0x40 MLOAD DUP1 SWAP2 SUB SWAP1 LOG2 POP POP JUMP JUMPDEST PUSH32 0x589D473BA17C0F47D494622893831497BAD25919B9AFB8E33E9521B8963FCCDE PUSH2 0x267D DUP2 PUSH2 0x313C JUMP JUMPDEST DUP2 PUSH0 SLOAD GT ISZERO PUSH2 0x26C1 JUMPI PUSH1 0x40 MLOAD PUSH32 0x8C379A000000000000000000000000000000000000000000000000000000000 DUP2 MSTORE PUSH1 0x4 ADD PUSH2 0x26B8 SWAP1 PUSH2 0x56AB JUMP JUMPDEST PUSH1 0x40 MLOAD DUP1 SWAP2 SUB SWAP1 REVERT JUMPDEST DUP2 PUSH1 0x1 DUP2 SWAP1 SSTORE POP DUP2 PUSH32 0x1132C5BACCB51DA3D049FABC819697DC845FA224AD59D9B555507D6446B40850 PUSH1 0x40 MLOAD PUSH1 0x40 MLOAD DUP1 SWAP2 SUB SWAP1 LOG2 POP POP JUMP JUMPDEST PUSH2 0x2702 DUP3 PUSH2 0xBB3 JUMP JUMPDEST PUSH2 0x270B DUP2 PUSH2 0x313C JUMP JUMPDEST PUSH2 0x2715 DUP4 DUP4 PUSH2 0x324F JUMP JUMPDEST POP POP POP POP JUMP JUMPDEST PUSH32 0x589D473BA17C0F47D494622893831497BAD25919B9AFB8E33E9521B8963FCCDE PUSH2 0x2745 DUP2 PUSH2 0x313C JUMP JUMPDEST DUP4 PUSH1 0x5 DUP1 SLOAD SWAP1 POP DUP2 LT PUSH2 0x278D JUMPI PUSH1 0x40 MLOAD PUSH32 0x8C379A000000000000000000000000000000000000000000000000000000000 DUP2 MSTORE PUSH1 0x4 ADD PUSH2 0x2784 SWAP1 PUSH2 0x4B54 JUMP JUMPDEST PUSH1 0x40 MLOAD DUP1 SWAP2 SUB SWAP1 REVERT JUMPDEST DUP4 PUSH1 0x5 DUP7 DUP2 SLOAD DUP2 LT PUSH2 0x27A2 JUMPI PUSH2 0x27A1 PUSH2 0x4BDA JUMP JUMPDEST JUMPDEST SWAP1 PUSH0 MSTORE PUSH1 0x20 PUSH0 KECCAK256 SWAP1 PUSH1 0x7 MUL ADD PUSH1 0x5 ADD DUP2 SWAP1 SSTORE POP DUP3 PUSH1 0x5 DUP7 DUP2 SLOAD DUP2 LT PUSH2 0x27CA JUMPI PUSH2 0x27C9 PUSH2 0x4BDA JUMP JUMPDEST JUMPDEST SWAP1 PUSH0 MSTORE PUSH1 0x20 PUSH0 KECCAK256 SWAP1 PUSH1 0x7 MUL ADD PUSH1 0x6 ADD DUP2 SWAP1 SSTORE POP DUP3 DUP5 DUP7 PUSH32 0x30DFFDEDAA3E3B4849298233F7CD71D229956E875AB09270498C96B7CF9181FD PUSH1 0x40 MLOAD PUSH1 0x40 MLOAD DUP1 SWAP2 SUB SWAP1 LOG4 POP POP POP POP POP JUMP JUMPDEST PUSH32 0x589D473BA17C0F47D494622893831497BAD25919B9AFB8E33E9521B8963FCCDE PUSH2 0x283D DUP2 PUSH2 0x313C JUMP JUMPDEST PUSH1 0x3 PUSH1 0x1 SWAP1 SLOAD SWAP1 PUSH2 0x100 EXP SWAP1 DIV PUSH1 0xFF AND PUSH2 0x288C JUMPI PUSH1 0x40 MLOAD PUSH32 0x8C379A000000000000000000000000000000000000000000000000000000000 DUP2 MSTORE PUSH1 0x4 ADD PUSH2 0x2883 SWAP1 PUSH2 0x5713 JUMP JUMPDEST PUSH1 0x40 MLOAD DUP1 SWAP2 SUB SWAP1 REVERT JUMPDEST PUSH0 PUSH1 0x3 PUSH1 0x1 PUSH2 0x100 EXP DUP2 SLOAD DUP2 PUSH1 0xFF MUL NOT AND SWAP1 DUP4 ISZERO ISZERO MUL OR SWAP1 SSTORE POP PUSH32 0xE72CB12952F056E3E7496019725F20A13108CA420F67F1EE9C9CDAB73FB8CE85 PUSH1 0x40 MLOAD PUSH1 0x40 MLOAD DUP1 SWAP2 SUB SWAP1 LOG1 POP JUMP JUMPDEST PUSH2 0x28DD PUSH2 0x2F6F JUMP JUMPDEST DUP2 PUSH1 0x5 DUP1 SLOAD SWAP1 POP DUP2 LT PUSH2 0x2925 JUMPI PUSH1 0x40 MLOAD PUSH32 0x8C379A000000000000000000000000000000000000000000000000000000000 DUP2 MSTORE PUSH1 0x4 ADD PUSH2 0x291C SWAP1 PUSH2 0x4B54 JUMP JUMPDEST PUSH1 0x40 MLOAD DUP1 SWAP2 SUB SWAP1 REVERT JUMPDEST PUSH0 DUP4 SUB PUSH2 0x2967 JUMPI PUSH1 0x40 MLOAD PUSH32 0x8C379A000000000000000000000000000000000000000000000000000000000 DUP2 MSTORE PUSH1 0x4 ADD PUSH2 0x295E SWAP1 PUSH2 0x57A1 JUMP JUMPDEST PUSH1 0x40 MLOAD DUP1 SWAP2 SUB SWAP1 REVERT JUMPDEST PUSH0 PUSH1 0x5 DUP5 DUP2 SLOAD DUP2 LT PUSH2 0x297C JUMPI PUSH2 0x297B PUSH2 0x4BDA JUMP JUMPDEST JUMPDEST SWAP1 PUSH0 MSTORE PUSH1 0x20 PUSH0 KECCAK256 SWAP1 PUSH1 0x7 MUL ADD SWAP1 POP DUP1 PUSH1 0x5 ADD SLOAD DUP4 GT PUSH2 0x29D0 JUMPI PUSH1 0x40 MLOAD PUSH32 0x8C379A000000000000000000000000000000000000000000000000000000000 DUP2 MSTORE PUSH1 0x4 ADD PUSH2 0x29C7 SWAP1 PUSH2 0x54E5 JUMP JUMPDEST PUSH1 0x40 MLOAD DUP1 SWAP2 SUB SWAP1 REVERT JUMPDEST PUSH0 DUP4 GT ISZERO PUSH2 0x2A28 JUMPI PUSH2 0x2A27 CALLER ADDRESS DUP6 DUP5 PUSH0 ADD PUSH0 SWAP1 SLOAD SWAP1 PUSH2 0x100 EXP SWAP1 DIV PUSH20 0xFFFFFFFFFFFFFFFFFFFFFFFFFFFFFFFFFFFFFFFF AND PUSH20 0xFFFFFFFFFFFFFFFFFFFFFFFFFFFFFFFFFFFFFFFF AND PUSH2 0x3D23 SWAP1 SWAP4 SWAP3 SWAP2 SWAP1 PUSH4 0xFFFFFFFF AND JUMP JUMPDEST JUMPDEST PUSH2 0x2A32 DUP5 DUP5 PUSH2 0x390D JUMP JUMPDEST POP POP POP POP JUMP JUMPDEST PUSH32 0x589D473BA17C0F47D494622893831497BAD25919B9AFB8E33E9521B8963FCCDE PUSH2 0x2A62 DUP2 PUSH2 0x313C JUMP JUMPDEST PUSH1 0x1 SLOAD DUP3 GT ISZERO PUSH2 0x2AA7 JUMPI PUSH1 0x40 MLOAD PUSH32 0x8C379A000000000000000000000000000000000000000000000000000000000 DUP2 MSTORE PUSH1 0x4 ADD PUSH2 0x2A9E SWAP1 PUSH2 0x56AB JUMP JUMPDEST PUSH1 0x40 MLOAD DUP1 SWAP2 SUB SWAP1 REVERT JUMPDEST DUP2 PUSH0 DUP2 SWAP1 SSTORE POP DUP2 PUSH32 0x63B90B79F11A0F132BCB2C4A4DDD44ABDA45C1308A83B2919318DF7F5F8B7BE4 PUSH1 0x40 MLOAD PUSH1 0x40 MLOAD DUP1 SWAP2 SUB SWAP1 LOG2 POP POP JUMP JUMPDEST PUSH32 0x589D473BA17C0F47D494622893831497BAD25919B9AFB8E33E9521B8963FCCDE PUSH2 0x2B08 DUP2 PUSH2 0x313C JUMP JUMPDEST DUP2 PUSH1 0x3 PUSH1 0x2 PUSH2 0x100 EXP DUP2 SLOAD DUP2 PUSH20 0xFFFFFFFFFFFFFFFFFFFFFFFFFFFFFFFFFFFFFFFF MUL NOT AND SWAP1 DUP4 PUSH20 0xFFFFFFFFFFFFFFFFFFFFFFFFFFFFFFFFFFFFFFFF AND MUL OR SWAP1 SSTORE POP PUSH1 0x3 PUSH1 0x2 SWAP1 SLOAD SWAP1 PUSH2 0x100 EXP SWAP1 DIV PUSH20 0xFFFFFFFFFFFFFFFFFFFFFFFFFFFFFFFFFFFFFFFF AND PUSH20 0xFFFFFFFFFFFFFFFFFFFFFFFFFFFFFFFFFFFFFFFF AND PUSH32 0x153AAE53B92218044BD5F43922617C6B253E50AC98A41B44C3ACB5625DED3488 PUSH1 0x40 MLOAD PUSH1 0x40 MLOAD DUP1 SWAP2 SUB SWAP1 LOG2 POP POP JUMP JUMPDEST PUSH32 0x589D473BA17C0F47D494622893831497BAD25919B9AFB8E33E9521B8963FCCDE PUSH2 0x2BDC DUP2 PUSH2 0x313C JUMP JUMPDEST DUP4 PUSH1 0x5 DUP1 SLOAD SWAP1 POP DUP2 LT PUSH2 0x2C24 JUMPI PUSH1 0x40 MLOAD PUSH32 0x8C379A000000000000000000000000000000000000000000000000000000000 DUP2 MSTORE PUSH1 0x4 ADD PUSH2 0x2C1B SWAP1 PUSH2 0x4B54 JUMP JUMPDEST PUSH1 0x40 MLOAD DUP1 SWAP2 SUB SWAP1 REVERT JUMPDEST PUSH0 DUP5 GT PUSH2 0x2C66 JUMPI PUSH1 0x40 MLOAD PUSH32 0x8C379A000000000000000000000000000000000000000000000000000000000 DUP2 MSTORE PUSH1 0x4 ADD PUSH2 0x2C5D SWAP1 PUSH2 0x5809 JUMP JUMPDEST PUSH1 0x40 MLOAD DUP1 SWAP2 SUB SWAP1 REVERT JUMPDEST DUP3 ISZERO PUSH2 0x2C75 JUMPI PUSH2 0x2C74 PUSH2 0x1B65 JUMP JUMPDEST JUMPDEST DUP4 PUSH1 0x5 DUP7 DUP2 SLOAD DUP2 LT PUSH2 0x2C8A JUMPI PUSH2 0x2C89 PUSH2 0x4BDA JUMP JUMPDEST JUMPDEST SWAP1 PUSH0 MSTORE PUSH1 0x20 PUSH0 KECCAK256 SWAP1 PUSH1 0x7 MUL ADD PUSH1 0x1 ADD SLOAD PUSH1 0x4 SLOAD PUSH2 0x2CA7 SWAP2 SWAP1 PUSH2 0x4CAE JUMP JUMPDEST PUSH2 0x2CB1 SWAP2 SWAP1 PUSH2 0x4C34 JUMP JUMPDEST PUSH1 0x4 DUP2 SWAP1 SSTORE POP DUP4 PUSH1 0x5 DUP7 DUP2 SLOAD DUP2 LT PUSH2 0x2CCC JUMPI PUSH2 0x2CCB PUSH2 0x4BDA JUMP JUMPDEST JUMPDEST SWAP1 PUSH0 MSTORE PUSH1 0x20 PUSH0 KECCAK256 SWAP1 PUSH1 0x7 MUL ADD PUSH1 0x1 ADD DUP2 SWAP1 SSTORE POP DUP4 DUP6 PUSH32 0x4B8FA3D6A87CB21D1BF4978BF60628AE358A28AC7F39DE1751A481C6DD957617 PUSH1 0x4 SLOAD PUSH1 0x40 MLOAD PUSH2 0x2D12 SWAP2 SWAP1 PUSH2 0x4345 JUMP JUMPDEST PUSH1 0x40 MLOAD DUP1 SWAP2 SUB SWAP1 LOG3 POP POP POP POP POP JUMP JUMPDEST PUSH1 0x5 DUP2 DUP2 SLOAD DUP2 LT PUSH2 0x2D30 JUMPI PUSH0 DUP1 REVERT JUMPDEST SWAP1 PUSH0 MSTORE PUSH1 0x20 PUSH0 KECCAK256 SWAP1 PUSH1 0x7 MUL ADD PUSH0 SWAP2 POP SWAP1 POP DUP1 PUSH0 ADD PUSH0 SWAP1 SLOAD SWAP1 PUSH2 0x100 EXP SWAP1 DIV PUSH20 0xFFFFFFFFFFFFFFFFFFFFFFFFFFFFFFFFFFFFFFFF AND SWAP1 DUP1 PUSH1 0x1 ADD SLOAD SWAP1 DUP1 PUSH1 0x2 ADD SLOAD SWAP1 DUP1 PUSH1 0x3 ADD SLOAD SWAP1 DUP1 PUSH1 0x4 ADD SLOAD SWAP1 DUP1 PUSH1 0x5 ADD SLOAD SWAP1 DUP1 PUSH1 0x6 ADD SLOAD SWAP1 POP DUP8 JUMP JUMPDEST PUSH0 DUP1 DUP4 PUSH1 0x5 DUP1 SLOAD SWAP1 POP DUP2 LT PUSH2 0x2DD7 JUMPI PUSH1 0x40 MLOAD PUSH32 0x8C379A000000000000000000000000000000000000000000000000000000000 DUP2 MSTORE PUSH1 0x4 ADD PUSH2 0x2DCE SWAP1 PUSH2 0x4B54 JUMP JUMPDEST PUSH1 0x40 MLOAD DUP1 SWAP2 SUB SWAP1 REVERT JUMPDEST PUSH0 PUSH1 0x6 PUSH0 DUP8 DUP2 MSTORE PUSH1 0x20 ADD SWAP1 DUP2 MSTORE PUSH1 0x20 ADD PUSH0 KECCAK256 PUSH0 DUP7 PUSH20 0xFFFFFFFFFFFFFFFFFFFFFFFFFFFFFFFFFFFFFFFF AND PUSH20 0xFFFFFFFFFFFFFFFFFFFFFFFFFFFFFFFFFFFFFFFF AND DUP2 MSTORE PUSH1 0x20 ADD SWAP1 DUP2 MSTORE PUSH1 0x20 ADD PUSH0 KECCAK256 SWAP1 POP PUSH0 JUMPDEST DUP2 PUSH1 0x3 ADD DUP1 SLOAD SWAP1 POP DUP2 LT ISZERO PUSH2 0x2ED5 JUMPI NUMBER DUP3 PUSH1 0x3 ADD DUP3 DUP2 SLOAD DUP2 LT PUSH2 0x2E4E JUMPI PUSH2 0x2E4D PUSH2 0x4BDA JUMP JUMPDEST JUMPDEST SWAP1 PUSH0 MSTORE PUSH1 0x20 PUSH0 KECCAK256 SWAP1 PUSH1 0x2 MUL ADD PUSH1 0x1 ADD SLOAD GT PUSH2 0x2E96 JUMPI DUP2 PUSH1 0x3 ADD DUP2 DUP2 SLOAD DUP2 LT PUSH2 0x2E79 JUMPI PUSH2 0x2E78 PUSH2 0x4BDA JUMP JUMPDEST JUMPDEST SWAP1 PUSH0 MSTORE PUSH1 0x20 PUSH0 KECCAK256 SWAP1 PUSH1 0x2 MUL ADD PUSH0 ADD SLOAD DUP5 PUSH2 0x2E93 SWAP2 SWAP1 PUSH2 0x4C34 JUMP JUMPDEST SWAP4 POP JUMPDEST DUP2 PUSH1 0x3 ADD DUP2 DUP2 SLOAD DUP2 LT PUSH2 0x2EAC JUMPI PUSH2 0x2EAB PUSH2 0x4BDA JUMP JUMPDEST JUMPDEST SWAP1 PUSH0 MSTORE PUSH1 0x20 PUSH0 KECCAK256 SWAP1 PUSH1 0x2 MUL ADD PUSH0 ADD SLOAD DUP6 PUSH2 0x2EC6 SWAP2 SWAP1 PUSH2 0x4C34 JUMP JUMPDEST SWAP5 POP DUP1 DUP1 PUSH1 0x1 ADD SWAP2 POP POP PUSH2 0x2E28 JUMP JUMPDEST POP POP POP SWAP3 POP SWAP3 SWAP1 POP JUMP JUMPDEST PUSH0 PUSH32 0x1FFC9A700000000000000000000000000000000000000000000000000000000 PUSH28 0xFFFFFFFFFFFFFFFFFFFFFFFFFFFFFFFFFFFFFFFFFFFFFFFFFFFFFFFF NOT AND DUP3 PUSH28 0xFFFFFFFFFFFFFFFFFFFFFFFFFFFFFFFFFFFFFFFFFFFFFFFFFFFFFFFF NOT AND EQ SWAP1 POP SWAP2 SWAP1 POP JUMP JUMPDEST PUSH0 PUSH32 0x2DD7BC7DEC4DCEEDDA775E58DD541E08A116C6C53815C0BD028192F7B626800 SWAP1 POP SWAP1 JUMP JUMPDEST PUSH2 0x2F77 PUSH2 0x1A81 JUMP JUMPDEST ISZERO PUSH2 0x2FAE JUMPI PUSH1 0x40 MLOAD PUSH32 0xD93C066500000000000000000000000000000000000000000000000000000000 DUP2 MSTORE PUSH1 0x4 ADD PUSH1 0x40 MLOAD DUP1 SWAP2 SUB SWAP1 REVERT JUMPDEST JUMP JUMPDEST PUSH0 DUP1 DUP4 PUSH20 0xFFFFFFFFFFFFFFFFFFFFFFFFFFFFFFFFFFFFFFFF AND DUP4 PUSH1 0x40 MLOAD PUSH2 0x2FD6 SWAP1 PUSH2 0x5854 JUMP JUMPDEST PUSH0 PUSH1 0x40 MLOAD DUP1 DUP4 SUB DUP2 DUP6 DUP8 GAS CALL SWAP3 POP POP POP RETURNDATASIZE DUP1 PUSH0 DUP2 EQ PUSH2 0x3010 JUMPI PUSH1 0x40 MLOAD SWAP2 POP PUSH1 0x1F NOT PUSH1 0x3F RETURNDATASIZE ADD AND DUP3 ADD PUSH1 0x40 MSTORE RETURNDATASIZE DUP3 MSTORE RETURNDATASIZE PUSH0 PUSH1 0x20 DUP5 ADD RETURNDATACOPY PUSH2 0x3015 JUMP JUMPDEST PUSH1 0x60 SWAP2 POP JUMPDEST POP SWAP2 POP SWAP2 POP DUP2 PUSH2 0x305A JUMPI PUSH1 0x40 MLOAD PUSH32 0x8C379A000000000000000000000000000000000000000000000000000000000 DUP2 MSTORE PUSH1 0x4 ADD PUSH2 0x3051 SWAP1 PUSH2 0x58D8 JUMP JUMPDEST PUSH1 0x40 MLOAD DUP1 SWAP2 SUB SWAP1 REVERT JUMPDEST PUSH0 DUP2 MLOAD GT ISZERO PUSH2 0x30B7 JUMPI DUP1 DUP1 PUSH1 0x20 ADD SWAP1 MLOAD DUP2 ADD SWAP1 PUSH2 0x3077 SWAP2 SWAP1 PUSH2 0x590A JUMP JUMPDEST PUSH2 0x30B6 JUMPI PUSH1 0x40 MLOAD PUSH32 0x8C379A000000000000000000000000000000000000000000000000000000000 DUP2 MSTORE PUSH1 0x4 ADD PUSH2 0x30AD SWAP1 PUSH2 0x59A5 JUMP JUMPDEST PUSH1 0x40 MLOAD DUP1 SWAP2 SUB SWAP1 REVERT JUMPDEST JUMPDEST POP POP POP POP JUMP JUMPDEST PUSH2 0x3137 DUP4 DUP5 PUSH20 0xFFFFFFFFFFFFFFFFFFFFFFFFFFFFFFFFFFFFFFFF AND PUSH4 0xA9059CBB DUP6 DUP6 PUSH1 0x40 MLOAD PUSH1 0x24 ADD PUSH2 0x30F0 SWAP3 SWAP2 SWAP1 PUSH2 0x59C3 JUMP JUMPDEST PUSH1 0x40 MLOAD PUSH1 0x20 DUP2 DUP4 SUB SUB DUP2 MSTORE SWAP1 PUSH1 0x40 MSTORE SWAP2 POP PUSH1 0xE0 SHL PUSH1 0x20 DUP3 ADD DUP1 MLOAD PUSH28 0xFFFFFFFFFFFFFFFFFFFFFFFFFFFFFFFFFFFFFFFFFFFFFFFFFFFFFFFF DUP4 DUP2 DUP4 AND OR DUP4 MSTORE POP POP POP POP PUSH2 0x3DA5 JUMP JUMPDEST POP POP POP JUMP JUMPDEST PUSH2 0x314D DUP2 PUSH2 0x3148 PUSH2 0x3248 JUMP JUMPDEST PUSH2 0x3E40 JUMP JUMPDEST POP JUMP JUMPDEST PUSH0 DUP1 PUSH2 0x315A PUSH2 0x2F48 JUMP JUMPDEST SWAP1 POP PUSH2 0x3166 DUP5 DUP5 PUSH2 0x1D8F JUMP JUMPDEST PUSH2 0x323D JUMPI PUSH1 0x1 DUP2 PUSH0 ADD PUSH0 DUP7 DUP2 MSTORE PUSH1 0x20 ADD SWAP1 DUP2 MSTORE PUSH1 0x20 ADD PUSH0 KECCAK256 PUSH0 ADD PUSH0 DUP6 PUSH20 0xFFFFFFFFFFFFFFFFFFFFFFFFFFFFFFFFFFFFFFFF AND PUSH20 0xFFFFFFFFFFFFFFFFFFFFFFFFFFFFFFFFFFFFFFFF AND DUP2 MSTORE PUSH1 0x20 ADD SWAP1 DUP2 MSTORE PUSH1 0x20 ADD PUSH0 KECCAK256 PUSH0 PUSH2 0x100 EXP DUP2 SLOAD DUP2 PUSH1 0xFF MUL NOT AND SWAP1 DUP4 ISZERO ISZERO MUL OR SWAP1 SSTORE POP PUSH2 0x31D9 PUSH2 0x3248 JUMP JUMPDEST PUSH20 0xFFFFFFFFFFFFFFFFFFFFFFFFFFFFFFFFFFFFFFFF AND DUP4 PUSH20 0xFFFFFFFFFFFFFFFFFFFFFFFFFFFFFFFFFFFFFFFF AND DUP6 PUSH32 0x2F8788117E7EFF1D82E926EC794901D17C78024A50270940304540A733656F0D PUSH1 0x40 MLOAD PUSH1 0x40 MLOAD DUP1 SWAP2 SUB SWAP1 LOG4 PUSH1 0x1 SWAP2 POP POP PUSH2 0x3242 JUMP JUMPDEST PUSH0 SWAP2 POP POP JUMPDEST SWAP3 SWAP2 POP POP JUMP JUMPDEST PUSH0 CALLER SWAP1 POP SWAP1 JUMP JUMPDEST PUSH0 DUP1 PUSH2 0x3259 PUSH2 0x2F48 JUMP JUMPDEST SWAP1 POP PUSH2 0x3265 DUP5 DUP5 PUSH2 0x1D8F JUMP JUMPDEST ISZERO PUSH2 0x333C JUMPI PUSH0 DUP2 PUSH0 ADD PUSH0 DUP7 DUP2 MSTORE PUSH1 0x20 ADD SWAP1 DUP2 MSTORE PUSH1 0x20 ADD PUSH0 KECCAK256 PUSH0 ADD PUSH0 DUP6 PUSH20 0xFFFFFFFFFFFFFFFFFFFFFFFFFFFFFFFFFFFFFFFF AND PUSH20 0xFFFFFFFFFFFFFFFFFFFFFFFFFFFFFFFFFFFFFFFF AND DUP2 MSTORE PUSH1 0x20 ADD SWAP1 DUP2 MSTORE PUSH1 0x20 ADD PUSH0 KECCAK256 PUSH0 PUSH2 0x100 EXP DUP2 SLOAD DUP2 PUSH1 0xFF MUL NOT AND SWAP1 DUP4 ISZERO ISZERO MUL OR SWAP1 SSTORE POP PUSH2 0x32D8 PUSH2 0x3248 JUMP JUMPDEST PUSH20 0xFFFFFFFFFFFFFFFFFFFFFFFFFFFFFFFFFFFFFFFF AND DUP4 PUSH20 0xFFFFFFFFFFFFFFFFFFFFFFFFFFFFFFFFFFFFFFFF AND DUP6 PUSH32 0xF6391F5C32D9C69D2A47EA670B442974B53935D1EDC7FD64EB21E047A839171B PUSH1 0x40 MLOAD PUSH1 0x40 MLOAD DUP1 SWAP2 SUB SWAP1 LOG4 PUSH1 0x1 SWAP2 POP POP PUSH2 0x3341 JUMP JUMPDEST PUSH0 SWAP2 POP POP JUMPDEST SWAP3 SWAP2 POP POP JUMP JUMPDEST PUSH0 PUSH1 0x3 PUSH1 0x2 SWAP1 SLOAD SWAP1 PUSH2 0x100 EXP SWAP1 DIV PUSH20 0xFFFFFFFFFFFFFFFFFFFFFFFFFFFFFFFFFFFFFFFF AND PUSH20 0xFFFFFFFFFFFFFFFFFFFFFFFFFFFFFFFFFFFFFFFF AND PUSH4 0x70A08231 ADDRESS PUSH1 0x40 MLOAD DUP3 PUSH4 0xFFFFFFFF AND PUSH1 0xE0 SHL DUP2 MSTORE PUSH1 0x4 ADD PUSH2 0x33A3 SWAP2 SWAP1 PUSH2 0x59EA JUMP JUMPDEST PUSH1 0x20 PUSH1 0x40 MLOAD DUP1 DUP4 SUB DUP2 DUP7 GAS STATICCALL ISZERO DUP1 ISZERO PUSH2 0x33BE JUMPI RETURNDATASIZE PUSH0 DUP1 RETURNDATACOPY RETURNDATASIZE PUSH0 REVERT JUMPDEST POP POP POP POP PUSH1 0x40 MLOAD RETURNDATASIZE PUSH1 0x1F NOT PUSH1 0x1F DUP3 ADD AND DUP3 ADD DUP1 PUSH1 0x40 MSTORE POP DUP2 ADD SWAP1 PUSH2 0x33E2 SWAP2 SWAP1 PUSH2 0x5A17 JUMP JUMPDEST SWAP1 POP DUP1 DUP3 GT ISZERO PUSH2 0x348F JUMPI PUSH1 0x3 PUSH1 0x2 SWAP1 SLOAD SWAP1 PUSH2 0x100 EXP SWAP1 DIV PUSH20 0xFFFFFFFFFFFFFFFFFFFFFFFFFFFFFFFFFFFFFFFF AND PUSH20 0xFFFFFFFFFFFFFFFFFFFFFFFFFFFFFFFFFFFFFFFF AND PUSH4 0xA9059CBB DUP5 DUP4 PUSH1 0x40 MLOAD DUP4 PUSH4 0xFFFFFFFF AND PUSH1 0xE0 SHL DUP2 MSTORE PUSH1 0x4 ADD PUSH2 0x3449 SWAP3 SWAP2 SWAP1 PUSH2 0x59C3 JUMP JUMPDEST PUSH1 0x20 PUSH1 0x40 MLOAD DUP1 DUP4 SUB DUP2 PUSH0 DUP8 GAS CALL ISZERO DUP1 ISZERO PUSH2 0x3465 JUMPI RETURNDATASIZE PUSH0 DUP1 RETURNDATACOPY RETURNDATASIZE PUSH0 REVERT JUMPDEST POP POP POP POP PUSH1 0x40 MLOAD RETURNDATASIZE PUSH1 0x1F NOT PUSH1 0x1F DUP3 ADD AND DUP3 ADD DUP1 PUSH1 0x40 MSTORE POP DUP2 ADD SWAP1 PUSH2 0x3489 SWAP2 SWAP1 PUSH2 0x590A JUMP JUMPDEST POP PUSH2 0x352E JUMP JUMPDEST PUSH1 0x3 PUSH1 0x2 SWAP1 SLOAD SWAP1 PUSH2 0x100 EXP SWAP1 DIV PUSH20 0xFFFFFFFFFFFFFFFFFFFFFFFFFFFFFFFFFFFFFFFF AND PUSH20 0xFFFFFFFFFFFFFFFFFFFFFFFFFFFFFFFFFFFFFFFF AND PUSH4 0xA9059CBB DUP5 DUP5 PUSH1 0x40 MLOAD DUP4 PUSH4 0xFFFFFFFF AND PUSH1 0xE0 SHL DUP2 MSTORE PUSH1 0x4 ADD PUSH2 0x34EC SWAP3 SWAP2 SWAP1 PUSH2 0x59C3 JUMP JUMPDEST PUSH1 0x20 PUSH1 0x40 MLOAD DUP1 DUP4 SUB DUP2 PUSH0 DUP8 GAS CALL ISZERO DUP1 ISZERO PUSH2 0x3508 JUMPI RETURNDATASIZE PUSH0 DUP1 RETURNDATACOPY RETURNDATASIZE PUSH0 REVERT JUMPDEST POP POP POP POP PUSH1 0x40 MLOAD RETURNDATASIZE PUSH1 0x1F NOT PUSH1 0x1F DUP3 ADD AND DUP3 ADD DUP1 PUSH1 0x40 MSTORE POP DUP2 ADD SWAP1 PUSH2 0x352C SWAP2 SWAP1 PUSH2 0x590A JUMP JUMPDEST POP JUMPDEST POP POP POP JUMP JUMPDEST PUSH0 PUSH32 0xF0C57E16840DF040F15088DC2F81FE391C3923BEC73E23A9662EFC9C229C6A00 SWAP1 POP SWAP1 JUMP JUMPDEST PUSH2 0x3562 PUSH2 0x3E91 JUMP JUMPDEST JUMP JUMPDEST PUSH2 0x356C PUSH2 0x3E91 JUMP JUMPDEST JUMP JUMPDEST PUSH2 0x3576 PUSH2 0x3E91 JUMP JUMPDEST PUSH2 0x357E PUSH2 0x3ED1 JUMP JUMPDEST JUMP JUMPDEST PUSH32 0x0 PUSH20 0xFFFFFFFFFFFFFFFFFFFFFFFFFFFFFFFFFFFFFFFF AND ADDRESS PUSH20 0xFFFFFFFFFFFFFFFFFFFFFFFFFFFFFFFFFFFFFFFF AND EQ DUP1 PUSH2 0x362D JUMPI POP PUSH32 0x0 PUSH20 0xFFFFFFFFFFFFFFFFFFFFFFFFFFFFFFFFFFFFFFFF AND PUSH2 0x3614 PUSH2 0x3F01 JUMP JUMPDEST PUSH20 0xFFFFFFFFFFFFFFFFFFFFFFFFFFFFFFFFFFFFFFFF AND EQ ISZERO JUMPDEST ISZERO PUSH2 0x3664 JUMPI PUSH1 0x40 MLOAD PUSH32 0xE07C8DBA00000000000000000000000000000000000000000000000000000000 DUP2 MSTORE PUSH1 0x4 ADD PUSH1 0x40 MLOAD DUP1 SWAP2 SUB SWAP1 REVERT JUMPDEST JUMP JUMPDEST PUSH32 0xCAB03BC4DBCC648CD59D6BBE9F848D1E9092F914016AA290EE92E18700D1E6F9 PUSH2 0x3690 DUP2 PUSH2 0x313C JUMP JUMPDEST POP POP JUMP JUMPDEST DUP2 PUSH20 0xFFFFFFFFFFFFFFFFFFFFFFFFFFFFFFFFFFFFFFFF AND PUSH4 0x52D1902D PUSH1 0x40 MLOAD DUP2 PUSH4 0xFFFFFFFF AND PUSH1 0xE0 SHL DUP2 MSTORE PUSH1 0x4 ADD PUSH1 0x20 PUSH1 0x40 MLOAD DUP1 DUP4 SUB DUP2 DUP7 GAS STATICCALL SWAP3 POP POP POP DUP1 ISZERO PUSH2 0x36FC JUMPI POP PUSH1 0x40 MLOAD RETURNDATASIZE PUSH1 0x1F NOT PUSH1 0x1F DUP3 ADD AND DUP3 ADD DUP1 PUSH1 0x40 MSTORE POP DUP2 ADD SWAP1 PUSH2 0x36F9 SWAP2 SWAP1 PUSH2 0x5A56 JUMP JUMPDEST PUSH1 0x1 JUMPDEST PUSH2 0x373D JUMPI DUP2 PUSH1 0x40 MLOAD PUSH32 0x4C9C8CE300000000000000000000000000000000000000000000000000000000 DUP2 MSTORE PUSH1 0x4 ADD PUSH2 0x3734 SWAP2 SWAP1 PUSH2 0x59EA JUMP JUMPDEST PUSH1 0x40 MLOAD DUP1 SWAP2 SUB SWAP1 REVERT JUMPDEST PUSH32 0x360894A13BA1A3210667C828492DB98DCA3E2076CC3735A920A3CA505D382BBC PUSH0 SHL DUP2 EQ PUSH2 0x37A3 JUMPI DUP1 PUSH1 0x40 MLOAD PUSH32 0xAA1D49A400000000000000000000000000000000000000000000000000000000 DUP2 MSTORE PUSH1 0x4 ADD PUSH2 0x379A SWAP2 SWAP1 PUSH2 0x448D JUMP JUMPDEST PUSH1 0x40 MLOAD DUP1 SWAP2 SUB SWAP1 REVERT JUMPDEST PUSH2 0x37AD DUP4 DUP4 PUSH2 0x3F54 JUMP JUMPDEST POP POP POP JUMP JUMPDEST PUSH0 DUP1 PUSH0 DUP5 SUB PUSH2 0x37C7 JUMPI PUSH1 0x1 PUSH0 SWAP2 POP SWAP2 POP PUSH2 0x37F9 JUMP JUMPDEST PUSH0 DUP4 DUP6 MUL SWAP1 POP DUP4 DUP6 DUP3 DUP2 PUSH2 0x37DE JUMPI PUSH2 0x37DD PUSH2 0x4DB7 JUMP JUMPDEST JUMPDEST DIV EQ PUSH2 0x37F0 JUMPI PUSH0 DUP1 SWAP3 POP SWAP3 POP POP PUSH2 0x37F9 JUMP JUMPDEST PUSH1 0x1 DUP2 SWAP3 POP SWAP3 POP POP JUMPDEST SWAP3 POP SWAP3 SWAP1 POP JUMP JUMPDEST PUSH0 DUP1 PUSH0 DUP4 SUB PUSH2 0x3814 JUMPI PUSH0 DUP1 SWAP2 POP SWAP2 POP PUSH2 0x382C JUMP JUMPDEST PUSH1 0x1 DUP4 DUP6 DUP2 PUSH2 0x3826 JUMPI PUSH2 0x3825 PUSH2 0x4DB7 JUMP JUMPDEST JUMPDEST DIV SWAP2 POP SWAP2 POP JUMPDEST SWAP3 POP SWAP3 SWAP1 POP JUMP JUMPDEST PUSH0 DUP1 PUSH0 DUP4 DUP6 ADD SWAP1 POP DUP5 DUP2 LT ISZERO PUSH2 0x384F JUMPI PUSH0 DUP1 SWAP3 POP SWAP3 POP POP PUSH2 0x3858 JUMP JUMPDEST PUSH1 0x1 DUP2 SWAP3 POP SWAP3 POP POP JUMPDEST SWAP3 POP SWAP3 SWAP1 POP JUMP JUMPDEST PUSH32 0x0 PUSH20 0xFFFFFFFFFFFFFFFFFFFFFFFFFFFFFFFFFFFFFFFF AND ADDRESS PUSH20 0xFFFFFFFFFFFFFFFFFFFFFFFFFFFFFFFFFFFFFFFF AND EQ PUSH2 0x38E4 JUMPI PUSH1 0x40 MLOAD PUSH32 0xE07C8DBA00000000000000000000000000000000000000000000000000000000 DUP2 MSTORE PUSH1 0x4 ADD PUSH1 0x40 MLOAD DUP1 SWAP2 SUB SWAP1 REVERT JUMPDEST JUMP JUMPDEST PUSH0 PUSH32 0xCD5ED15C6E187E77E9AEE88184C21F4F2182AB5827CB3B7E07FBEDCD63F03300 SWAP1 POP SWAP1 JUMP JUMPDEST PUSH0 PUSH1 0x5 DUP4 DUP2 SLOAD DUP2 LT PUSH2 0x3922 JUMPI PUSH2 0x3921 PUSH2 0x4BDA JUMP JUMPDEST JUMPDEST SWAP1 PUSH0 MSTORE PUSH1 0x20 PUSH0 KECCAK256 SWAP1 PUSH1 0x7 MUL ADD SWAP1 POP PUSH0 PUSH1 0x6 PUSH0 DUP6 DUP2 MSTORE PUSH1 0x20 ADD SWAP1 DUP2 MSTORE PUSH1 0x20 ADD PUSH0 KECCAK256 PUSH0 CALLER PUSH20 0xFFFFFFFFFFFFFFFFFFFFFFFFFFFFFFFFFFFFFFFF AND PUSH20 0xFFFFFFFFFFFFFFFFFFFFFFFFFFFFFFFFFFFFFFFF AND DUP2 MSTORE PUSH1 0x20 ADD SWAP1 DUP2 MSTORE PUSH1 0x20 ADD PUSH0 KECCAK256 SWAP1 POP PUSH2 0x3988 DUP5 PUSH2 0x16C7 JUMP JUMPDEST PUSH0 DUP2 PUSH0 ADD SLOAD GT ISZERO PUSH2 0x3B29 JUMPI PUSH0 DUP1 PUSH2 0x39AF DUP5 PUSH1 0x3 ADD SLOAD DUP5 PUSH0 ADD SLOAD PUSH2 0x37B2 SWAP1 SWAP2 SWAP1 PUSH4 0xFFFFFFFF AND JUMP JUMPDEST SWAP2 POP SWAP2 POP DUP2 PUSH2 0x39F3 JUMPI PUSH1 0x40 MLOAD PUSH32 0x8C379A000000000000000000000000000000000000000000000000000000000 DUP2 MSTORE PUSH1 0x4 ADD PUSH2 0x39EA SWAP1 PUSH2 0x5AF1 JUMP JUMPDEST PUSH1 0x40 MLOAD DUP1 SWAP2 SUB SWAP1 REVERT JUMPDEST PUSH2 0x3A0E PUSH8 0xDE0B6B3A7640000 DUP3 PUSH2 0x3800 SWAP1 SWAP2 SWAP1 PUSH4 0xFFFFFFFF AND JUMP JUMPDEST DUP1 SWAP3 POP DUP2 SWAP4 POP POP POP DUP2 PUSH2 0x3A56 JUMPI PUSH1 0x40 MLOAD PUSH32 0x8C379A000000000000000000000000000000000000000000000000000000000 DUP2 MSTORE PUSH1 0x4 ADD PUSH2 0x3A4D SWAP1 PUSH2 0x5B59 JUMP JUMPDEST PUSH1 0x40 MLOAD DUP1 SWAP2 SUB SWAP1 REVERT JUMPDEST PUSH0 DUP1 PUSH2 0x3A6F DUP6 PUSH1 0x1 ADD SLOAD DUP5 PUSH2 0x3FC6 SWAP1 SWAP2 SWAP1 PUSH4 0xFFFFFFFF AND JUMP JUMPDEST SWAP2 POP SWAP2 POP DUP2 PUSH2 0x3AB3 JUMPI PUSH1 0x40 MLOAD PUSH32 0x8C379A000000000000000000000000000000000000000000000000000000000 DUP2 MSTORE PUSH1 0x4 ADD PUSH2 0x3AAA SWAP1 PUSH2 0x5BC1 JUMP JUMPDEST PUSH1 0x40 MLOAD DUP1 SWAP2 SUB SWAP1 REVERT JUMPDEST PUSH0 DUP2 GT ISZERO PUSH2 0x3B24 JUMPI PUSH0 DUP1 PUSH2 0x3AD4 DUP4 DUP9 PUSH1 0x2 ADD SLOAD PUSH2 0x3833 SWAP1 SWAP2 SWAP1 PUSH4 0xFFFFFFFF AND JUMP JUMPDEST SWAP2 POP SWAP2 POP DUP2 PUSH2 0x3B18 JUMPI PUSH1 0x40 MLOAD PUSH32 0x8C379A000000000000000000000000000000000000000000000000000000000 DUP2 MSTORE PUSH1 0x4 ADD PUSH2 0x3B0F SWAP1 PUSH2 0x5C29 JUMP JUMPDEST PUSH1 0x40 MLOAD DUP1 SWAP2 SUB SWAP1 REVERT JUMPDEST DUP1 DUP8 PUSH1 0x2 ADD DUP2 SWAP1 SSTORE POP POP POP JUMPDEST POP POP POP POP JUMPDEST PUSH0 DUP4 GT ISZERO PUSH2 0x3B98 JUMPI PUSH0 DUP1 PUSH2 0x3B49 DUP6 DUP5 PUSH0 ADD SLOAD PUSH2 0x3833 SWAP1 SWAP2 SWAP1 PUSH4 0xFFFFFFFF AND JUMP JUMPDEST SWAP2 POP SWAP2 POP DUP2 PUSH2 0x3B8D JUMPI PUSH1 0x40 MLOAD PUSH32 0x8C379A000000000000000000000000000000000000000000000000000000000 DUP2 MSTORE PUSH1 0x4 ADD PUSH2 0x3B84 SWAP1 PUSH2 0x5C91 JUMP JUMPDEST PUSH1 0x40 MLOAD DUP1 SWAP2 SUB SWAP1 REVERT JUMPDEST DUP1 DUP4 PUSH0 ADD DUP2 SWAP1 SSTORE POP POP POP JUMPDEST PUSH0 DUP1 PUSH2 0x3BB1 DUP6 DUP6 PUSH1 0x4 ADD SLOAD PUSH2 0x3833 SWAP1 SWAP2 SWAP1 PUSH4 0xFFFFFFFF AND JUMP JUMPDEST SWAP2 POP SWAP2 POP DUP2 PUSH2 0x3BF5 JUMPI PUSH1 0x40 MLOAD PUSH32 0x8C379A000000000000000000000000000000000000000000000000000000000 DUP2 MSTORE PUSH1 0x4 ADD PUSH2 0x3BEC SWAP1 PUSH2 0x5CF9 JUMP JUMPDEST PUSH1 0x40 MLOAD DUP1 SWAP2 SUB SWAP1 REVERT JUMPDEST DUP1 DUP5 PUSH1 0x4 ADD DUP2 SWAP1 SSTORE POP PUSH0 DUP1 PUSH2 0x3C1A DUP7 PUSH1 0x3 ADD SLOAD DUP7 PUSH0 ADD SLOAD PUSH2 0x37B2 SWAP1 SWAP2 SWAP1 PUSH4 0xFFFFFFFF AND JUMP JUMPDEST SWAP2 POP SWAP2 POP DUP2 PUSH2 0x3C5E JUMPI PUSH1 0x40 MLOAD PUSH32 0x8C379A000000000000000000000000000000000000000000000000000000000 DUP2 MSTORE PUSH1 0x4 ADD PUSH2 0x3C55 SWAP1 PUSH2 0x5AF1 JUMP JUMPDEST PUSH1 0x40 MLOAD DUP1 SWAP2 SUB SWAP1 REVERT JUMPDEST PUSH2 0x3C79 PUSH8 0xDE0B6B3A7640000 DUP3 PUSH2 0x3800 SWAP1 SWAP2 SWAP1 PUSH4 0xFFFFFFFF AND JUMP JUMPDEST DUP1 SWAP3 POP DUP2 SWAP4 POP POP POP DUP2 PUSH2 0x3CC1 JUMPI PUSH1 0x40 MLOAD PUSH32 0x8C379A000000000000000000000000000000000000000000000000000000000 DUP2 MSTORE PUSH1 0x4 ADD PUSH2 0x3CB8 SWAP1 PUSH2 0x5D61 JUMP JUMPDEST PUSH1 0x40 MLOAD DUP1 SWAP2 SUB SWAP1 REVERT JUMPDEST DUP1 DUP6 PUSH1 0x1 ADD DUP2 SWAP1 SSTORE POP DUP8 CALLER PUSH20 0xFFFFFFFFFFFFFFFFFFFFFFFFFFFFFFFFFFFFFFFF AND PUSH32 0x90890809C654F11D6E72A28FA60149770A0D11EC6C92319D6CEB2BB0A4EA1A15 DUP10 PUSH1 0x40 MLOAD PUSH2 0x3D11 SWAP2 SWAP1 PUSH2 0x4345 JUMP JUMPDEST PUSH1 0x40 MLOAD DUP1 SWAP2 SUB SWAP1 LOG3 POP POP POP POP POP POP POP POP JUMP JUMPDEST PUSH2 0x3D9F DUP5 DUP6 PUSH20 0xFFFFFFFFFFFFFFFFFFFFFFFFFFFFFFFFFFFFFFFF AND PUSH4 0x23B872DD DUP7 DUP7 DUP7 PUSH1 0x40 MLOAD PUSH1 0x24 ADD PUSH2 0x3D58 SWAP4 SWAP3 SWAP2 SWAP1 PUSH2 0x5D7F JUMP JUMPDEST PUSH1 0x40 MLOAD PUSH1 0x20 DUP2 DUP4 SUB SUB DUP2 MSTORE SWAP1 PUSH1 0x40 MSTORE SWAP2 POP PUSH1 0xE0 SHL PUSH1 0x20 DUP3 ADD DUP1 MLOAD PUSH28 0xFFFFFFFFFFFFFFFFFFFFFFFFFFFFFFFFFFFFFFFFFFFFFFFFFFFFFFFF DUP4 DUP2 DUP4 AND OR DUP4 MSTORE POP POP POP POP PUSH2 0x3DA5 JUMP JUMPDEST POP POP POP POP JUMP JUMPDEST PUSH0 DUP1 PUSH1 0x20 PUSH0 DUP5 MLOAD PUSH1 0x20 DUP7 ADD PUSH0 DUP9 GAS CALL DUP1 PUSH2 0x3DC4 JUMPI PUSH1 0x40 MLOAD RETURNDATASIZE PUSH0 DUP3 RETURNDATACOPY RETURNDATASIZE DUP2 REVERT JUMPDEST RETURNDATASIZE SWAP3 POP PUSH0 MLOAD SWAP2 POP POP PUSH0 DUP3 EQ PUSH2 0x3DDD JUMPI PUSH1 0x1 DUP2 EQ ISZERO PUSH2 0x3DF8 JUMP JUMPDEST PUSH0 DUP5 PUSH20 0xFFFFFFFFFFFFFFFFFFFFFFFFFFFFFFFFFFFFFFFF AND EXTCODESIZE EQ JUMPDEST ISZERO PUSH2 0x3E3A JUMPI DUP4 PUSH1 0x40 MLOAD PUSH32 0x5274AFE700000000000000000000000000000000000000000000000000000000 DUP2 MSTORE PUSH1 0x4 ADD PUSH2 0x3E31 SWAP2 SWAP1 PUSH2 0x59EA JUMP JUMPDEST PUSH1 0x40 MLOAD DUP1 SWAP2 SUB SWAP1 REVERT JUMPDEST POP POP POP POP JUMP JUMPDEST PUSH2 0x3E4A DUP3 DUP3 PUSH2 0x1D8F JUMP JUMPDEST PUSH2 0x3E8D JUMPI DUP1 DUP3 PUSH1 0x40 MLOAD PUSH32 0xE2517D3F00000000000000000000000000000000000000000000000000000000 DUP2 MSTORE PUSH1 0x4 ADD PUSH2 0x3E84 SWAP3 SWAP2 SWAP1 PUSH2 0x5DB4 JUMP JUMPDEST PUSH1 0x40 MLOAD DUP1 SWAP2 SUB SWAP1 REVERT JUMPDEST POP POP JUMP JUMPDEST PUSH2 0x3E99 PUSH2 0x3FEC JUMP JUMPDEST PUSH2 0x3ECF JUMPI PUSH1 0x40 MLOAD PUSH32 0xD7E6BCF800000000000000000000000000000000000000000000000000000000 DUP2 MSTORE PUSH1 0x4 ADD PUSH1 0x40 MLOAD DUP1 SWAP2 SUB SWAP1 REVERT JUMPDEST JUMP JUMPDEST PUSH2 0x3ED9 PUSH2 0x3E91 JUMP JUMPDEST PUSH0 PUSH2 0x3EE2 PUSH2 0x38E6 JUMP JUMPDEST SWAP1 POP PUSH0 DUP2 PUSH0 ADD PUSH0 PUSH2 0x100 EXP DUP2 SLOAD DUP2 PUSH1 0xFF MUL NOT AND SWAP1 DUP4 ISZERO ISZERO MUL OR SWAP1 SSTORE POP POP JUMP JUMPDEST PUSH0 PUSH2 0x3F2D PUSH32 0x360894A13BA1A3210667C828492DB98DCA3E2076CC3735A920A3CA505D382BBC PUSH0 SHL PUSH2 0x400A JUMP JUMPDEST PUSH0 ADD PUSH0 SWAP1 SLOAD SWAP1 PUSH2 0x100 EXP SWAP1 DIV PUSH20 0xFFFFFFFFFFFFFFFFFFFFFFFFFFFFFFFFFFFFFFFF AND SWAP1 POP SWAP1 JUMP JUMPDEST PUSH2 0x3F5D DUP3 PUSH2 0x4013 JUMP JUMPDEST DUP2 PUSH20 0xFFFFFFFFFFFFFFFFFFFFFFFFFFFFFFFFFFFFFFFF AND PUSH32 0xBC7CD75A20EE27FD9ADEBAB32041F755214DBC6BFFA90CC0225B39DA2E5C2D3B PUSH1 0x40 MLOAD PUSH1 0x40 MLOAD DUP1 SWAP2 SUB SWAP1 LOG2 PUSH0 DUP2 MLOAD GT ISZERO PUSH2 0x3FB9 JUMPI PUSH2 0x3FB3 DUP3 DUP3 PUSH2 0x40DC JUMP JUMPDEST POP PUSH2 0x3FC2 JUMP JUMPDEST PUSH2 0x3FC1 PUSH2 0x415C JUMP JUMPDEST JUMPDEST POP POP JUMP JUMPDEST PUSH0 DUP1 DUP4 DUP4 GT ISZERO PUSH2 0x3FDB JUMPI PUSH0 DUP1 SWAP2 POP SWAP2 POP PUSH2 0x3FE5 JUMP JUMPDEST PUSH1 0x1 DUP4 DUP6 SUB SWAP2 POP SWAP2 POP JUMPDEST SWAP3 POP SWAP3 SWAP1 POP JUMP JUMPDEST PUSH0 PUSH2 0x3FF5 PUSH2 0x3533 JUMP JUMPDEST PUSH0 ADD PUSH1 0x8 SWAP1 SLOAD SWAP1 PUSH2 0x100 EXP SWAP1 DIV PUSH1 0xFF AND SWAP1 POP SWAP1 JUMP JUMPDEST PUSH0 DUP2 SWAP1 POP SWAP2 SWAP1 POP JUMP JUMPDEST PUSH0 DUP2 PUSH20 0xFFFFFFFFFFFFFFFFFFFFFFFFFFFFFFFFFFFFFFFF AND EXTCODESIZE SUB PUSH2 0x406E JUMPI DUP1 PUSH1 0x40 MLOAD PUSH32 0x4C9C8CE300000000000000000000000000000000000000000000000000000000 DUP2 MSTORE PUSH1 0x4 ADD PUSH2 0x4065 SWAP2 SWAP1 PUSH2 0x59EA JUMP JUMPDEST PUSH1 0x40 MLOAD DUP1 SWAP2 SUB SWAP1 REVERT JUMPDEST DUP1 PUSH2 0x409A PUSH32 0x360894A13BA1A3210667C828492DB98DCA3E2076CC3735A920A3CA505D382BBC PUSH0 SHL PUSH2 0x400A JUMP JUMPDEST PUSH0 ADD PUSH0 PUSH2 0x100 EXP DUP2 SLOAD DUP2 PUSH20 0xFFFFFFFFFFFFFFFFFFFFFFFFFFFFFFFFFFFFFFFF MUL NOT AND SWAP1 DUP4 PUSH20 0xFFFFFFFFFFFFFFFFFFFFFFFFFFFFFFFFFFFFFFFF AND MUL OR SWAP1 SSTORE POP POP JUMP JUMPDEST PUSH1 0x60 PUSH0 DUP1 DUP5 PUSH20 0xFFFFFFFFFFFFFFFFFFFFFFFFFFFFFFFFFFFFFFFF AND DUP5 PUSH1 0x40 MLOAD PUSH2 0x4105 SWAP2 SWAP1 PUSH2 0x5E15 JUMP JUMPDEST PUSH0 PUSH1 0x40 MLOAD DUP1 DUP4 SUB DUP2 DUP6 GAS DELEGATECALL SWAP2 POP POP RETURNDATASIZE DUP1 PUSH0 DUP2 EQ PUSH2 0x413D JUMPI PUSH1 0x40 MLOAD SWAP2 POP PUSH1 0x1F NOT PUSH1 0x3F RETURNDATASIZE ADD AND DUP3 ADD PUSH1 0x40 MSTORE RETURNDATASIZE DUP3 MSTORE RETURNDATASIZE PUSH0 PUSH1 0x20 DUP5 ADD RETURNDATACOPY PUSH2 0x4142 JUMP JUMPDEST PUSH1 0x60 SWAP2 POP JUMPDEST POP SWAP2 POP SWAP2 POP PUSH2 0x4152 DUP6 DUP4 DUP4 PUSH2 0x4198 JUMP JUMPDEST SWAP3 POP POP POP SWAP3 SWAP2 POP POP JUMP JUMPDEST PUSH0 CALLVALUE GT ISZERO PUSH2 0x4196 JUMPI PUSH1 0x40 MLOAD PUSH32 0xB398979F00000000000000000000000000000000000000000000000000000000 DUP2 MSTORE PUSH1 0x4 ADD PUSH1 0x40 MLOAD DUP1 SWAP2 SUB SWAP1 REVERT JUMPDEST JUMP JUMPDEST PUSH1 0x60 DUP3 PUSH2 0x41AD JUMPI PUSH2 0x41A8 DUP3 PUSH2 0x4225 JUMP JUMPDEST PUSH2 0x421D JUMP JUMPDEST PUSH0 DUP3 MLOAD EQ DUP1 ISZERO PUSH2 0x41D3 JUMPI POP PUSH0 DUP5 PUSH20 0xFFFFFFFFFFFFFFFFFFFFFFFFFFFFFFFFFFFFFFFF AND EXTCODESIZE EQ JUMPDEST ISZERO PUSH2 0x4215 JUMPI DUP4 PUSH1 0x40 MLOAD PUSH32 0x9996B31500000000000000000000000000000000000000000000000000000000 DUP2 MSTORE PUSH1 0x4 ADD PUSH2 0x420C SWAP2 SWAP1 PUSH2 0x59EA JUMP JUMPDEST PUSH1 0x40 MLOAD DUP1 SWAP2 SUB SWAP1 REVERT JUMPDEST DUP2 SWAP1 POP PUSH2 0x421E JUMP JUMPDEST JUMPDEST SWAP4 SWAP3 POP POP POP JUMP JUMPDEST PUSH0 DUP2 MLOAD GT ISZERO PUSH2 0x4237 JUMPI DUP1 MLOAD DUP1 DUP3 PUSH1 0x20 ADD REVERT JUMPDEST PUSH1 0x40 MLOAD PUSH32 0xD6BDA27500000000000000000000000000000000000000000000000000000000 DUP2 MSTORE PUSH1 0x4 ADD PUSH1 0x40 MLOAD DUP1 SWAP2 SUB SWAP1 REVERT JUMPDEST PUSH0 PUSH1 0x40 MLOAD SWAP1 POP SWAP1 JUMP JUMPDEST PUSH0 DUP1 REVERT JUMPDEST PUSH0 DUP1 REVERT JUMPDEST PUSH0 PUSH32 0xFFFFFFFF00000000000000000000000000000000000000000000000000000000 DUP3 AND SWAP1 POP SWAP2 SWAP1 POP JUMP JUMPDEST PUSH2 0x42AE DUP2 PUSH2 0x427A JUMP JUMPDEST DUP2 EQ PUSH2 0x42B8 JUMPI PUSH0 DUP1 REVERT JUMPDEST POP JUMP JUMPDEST PUSH0 DUP2 CALLDATALOAD SWAP1 POP PUSH2 0x42C9 DUP2 PUSH2 0x42A5 JUMP JUMPDEST SWAP3 SWAP2 POP POP JUMP JUMPDEST PUSH0 PUSH1 0x20 DUP3 DUP5 SUB SLT ISZERO PUSH2 0x42E4 JUMPI PUSH2 0x42E3 PUSH2 0x4272 JUMP JUMPDEST JUMPDEST PUSH0 PUSH2 0x42F1 DUP5 DUP3 DUP6 ADD PUSH2 0x42BB JUMP JUMPDEST SWAP2 POP POP SWAP3 SWAP2 POP POP JUMP JUMPDEST PUSH0 DUP2 ISZERO ISZERO SWAP1 POP SWAP2 SWAP1 POP JUMP JUMPDEST PUSH2 0x430E DUP2 PUSH2 0x42FA JUMP JUMPDEST DUP3 MSTORE POP POP JUMP JUMPDEST PUSH0 PUSH1 0x20 DUP3 ADD SWAP1 POP PUSH2 0x4327 PUSH0 DUP4 ADD DUP5 PUSH2 0x4305 JUMP JUMPDEST SWAP3 SWAP2 POP POP JUMP JUMPDEST PUSH0 DUP2 SWAP1 POP SWAP2 SWAP1 POP JUMP JUMPDEST PUSH2 0x433F DUP2 PUSH2 0x432D JUMP JUMPDEST DUP3 MSTORE POP POP JUMP JUMPDEST PUSH0 PUSH1 0x20 DUP3 ADD SWAP1 POP PUSH2 0x4358 PUSH0 DUP4 ADD DUP5 PUSH2 0x4336 JUMP JUMPDEST SWAP3 SWAP2 POP POP JUMP JUMPDEST PUSH2 0x4367 DUP2 PUSH2 0x432D JUMP JUMPDEST DUP2 EQ PUSH2 0x4371 JUMPI PUSH0 DUP1 REVERT JUMPDEST POP JUMP JUMPDEST PUSH0 DUP2 CALLDATALOAD SWAP1 POP PUSH2 0x4382 DUP2 PUSH2 0x435E JUMP JUMPDEST SWAP3 SWAP2 POP POP JUMP JUMPDEST PUSH0 PUSH20 0xFFFFFFFFFFFFFFFFFFFFFFFFFFFFFFFFFFFFFFFF DUP3 AND SWAP1 POP SWAP2 SWAP1 POP JUMP JUMPDEST PUSH0 PUSH2 0x43B1 DUP3 PUSH2 0x4388 JUMP JUMPDEST SWAP1 POP SWAP2 SWAP1 POP JUMP JUMPDEST PUSH2 0x43C1 DUP2 PUSH2 0x43A7 JUMP JUMPDEST DUP2 EQ PUSH2 0x43CB JUMPI PUSH0 DUP1 REVERT JUMPDEST POP JUMP JUMPDEST PUSH0 DUP2 CALLDATALOAD SWAP1 POP PUSH2 0x43DC DUP2 PUSH2 0x43B8 JUMP JUMPDEST SWAP3 SWAP2 POP POP JUMP JUMPDEST PUSH0 DUP1 PUSH1 0x40 DUP4 DUP6 SUB SLT ISZERO PUSH2 0x43F8 JUMPI PUSH2 0x43F7 PUSH2 0x4272 JUMP JUMPDEST JUMPDEST PUSH0 PUSH2 0x4405 DUP6 DUP3 DUP7 ADD PUSH2 0x4374 JUMP JUMPDEST SWAP3 POP POP PUSH1 0x20 PUSH2 0x4416 DUP6 DUP3 DUP7 ADD PUSH2 0x43CE JUMP JUMPDEST SWAP2 POP POP SWAP3 POP SWAP3 SWAP1 POP JUMP JUMPDEST PUSH0 DUP2 SWAP1 POP SWAP2 SWAP1 POP JUMP JUMPDEST PUSH2 0x4432 DUP2 PUSH2 0x4420 JUMP JUMPDEST DUP2 EQ PUSH2 0x443C JUMPI PUSH0 DUP1 REVERT JUMPDEST POP JUMP JUMPDEST PUSH0 DUP2 CALLDATALOAD SWAP1 POP PUSH2 0x444D DUP2 PUSH2 0x4429 JUMP JUMPDEST SWAP3 SWAP2 POP POP JUMP JUMPDEST PUSH0 PUSH1 0x20 DUP3 DUP5 SUB SLT ISZERO PUSH2 0x4468 JUMPI PUSH2 0x4467 PUSH2 0x4272 JUMP JUMPDEST JUMPDEST PUSH0 PUSH2 0x4475 DUP5 DUP3 DUP6 ADD PUSH2 0x443F JUMP JUMPDEST SWAP2 POP POP SWAP3 SWAP2 POP POP JUMP JUMPDEST PUSH2 0x4487 DUP2 PUSH2 0x4420 JUMP JUMPDEST DUP3 MSTORE POP POP JUMP JUMPDEST PUSH0 PUSH1 0x20 DUP3 ADD SWAP1 POP PUSH2 0x44A0 PUSH0 DUP4 ADD DUP5 PUSH2 0x447E JUMP JUMPDEST SWAP3 SWAP2 POP POP JUMP JUMPDEST PUSH0 PUSH1 0x20 DUP3 DUP5 SUB SLT ISZERO PUSH2 0x44BB JUMPI PUSH2 0x44BA PUSH2 0x4272 JUMP JUMPDEST JUMPDEST PUSH0 PUSH2 0x44C8 DUP5 DUP3 DUP6 ADD PUSH2 0x4374 JUMP JUMPDEST SWAP2 POP POP SWAP3 SWAP2 POP POP JUMP JUMPDEST PUSH0 DUP1 PUSH1 0x40 DUP4 DUP6 SUB SLT ISZERO PUSH2 0x44E7 JUMPI PUSH2 0x44E6 PUSH2 0x4272 JUMP JUMPDEST JUMPDEST PUSH0 PUSH2 0x44F4 DUP6 DUP3 DUP7 ADD PUSH2 0x443F JUMP JUMPDEST SWAP3 POP POP PUSH1 0x20 PUSH2 0x4505 DUP6 DUP3 DUP7 ADD PUSH2 0x43CE JUMP JUMPDEST SWAP2 POP POP SWAP3 POP SWAP3 SWAP1 POP JUMP JUMPDEST PUSH0 PUSH1 0x60 DUP3 ADD SWAP1 POP PUSH2 0x4522 PUSH0 DUP4 ADD DUP7 PUSH2 0x4336 JUMP JUMPDEST PUSH2 0x452F PUSH1 0x20 DUP4 ADD DUP6 PUSH2 0x4336 JUMP JUMPDEST PUSH2 0x453C PUSH1 0x40 DUP4 ADD DUP5 PUSH2 0x4336 JUMP JUMPDEST SWAP5 SWAP4 POP POP POP POP JUMP JUMPDEST PUSH0 DUP1 PUSH0 PUSH1 0x60 DUP5 DUP7 SUB SLT ISZERO PUSH2 0x455B JUMPI PUSH2 0x455A PUSH2 0x4272 JUMP JUMPDEST JUMPDEST PUSH0 PUSH2 0x4568 DUP7 DUP3 DUP8 ADD PUSH2 0x4374 JUMP JUMPDEST SWAP4 POP POP PUSH1 0x20 PUSH2 0x4579 DUP7 DUP3 DUP8 ADD PUSH2 0x43CE JUMP JUMPDEST SWAP3 POP POP PUSH1 0x40 PUSH2 0x458A DUP7 DUP3 DUP8 ADD PUSH2 0x4374 JUMP JUMPDEST SWAP2 POP POP SWAP3 POP SWAP3 POP SWAP3 JUMP JUMPDEST PUSH0 PUSH2 0x459E DUP3 PUSH2 0x43A7 JUMP JUMPDEST SWAP1 POP SWAP2 SWAP1 POP JUMP JUMPDEST PUSH2 0x45AE DUP2 PUSH2 0x4594 JUMP JUMPDEST DUP2 EQ PUSH2 0x45B8 JUMPI PUSH0 DUP1 REVERT JUMPDEST POP JUMP JUMPDEST PUSH0 DUP2 CALLDATALOAD SWAP1 POP PUSH2 0x45C9 DUP2 PUSH2 0x45A5 JUMP JUMPDEST SWAP3 SWAP2 POP POP JUMP JUMPDEST PUSH0 DUP1 PUSH0 DUP1 PUSH1 0x80 DUP6 DUP8 SUB SLT ISZERO PUSH2 0x45E7 JUMPI PUSH2 0x45E6 PUSH2 0x4272 JUMP JUMPDEST JUMPDEST PUSH0 PUSH2 0x45F4 DUP8 DUP3 DUP9 ADD PUSH2 0x45BB JUMP JUMPDEST SWAP5 POP POP PUSH1 0x20 PUSH2 0x4605 DUP8 DUP3 DUP9 ADD PUSH2 0x4374 JUMP JUMPDEST SWAP4 POP POP PUSH1 0x40 PUSH2 0x4616 DUP8 DUP3 DUP9 ADD PUSH2 0x4374 JUMP JUMPDEST SWAP3 POP POP PUSH1 0x60 PUSH2 0x4627 DUP8 DUP3 DUP9 ADD PUSH2 0x4374 JUMP JUMPDEST SWAP2 POP POP SWAP3 SWAP6 SWAP2 SWAP5 POP SWAP3 POP JUMP JUMPDEST PUSH0 DUP1 REVERT JUMPDEST PUSH0 DUP1 REVERT JUMPDEST PUSH0 PUSH1 0x1F NOT PUSH1 0x1F DUP4 ADD AND SWAP1 POP SWAP2 SWAP1 POP JUMP JUMPDEST PUSH32 0x4E487B7100000000000000000000000000000000000000000000000000000000 PUSH0 MSTORE PUSH1 0x41 PUSH1 0x4 MSTORE PUSH1 0x24 PUSH0 REVERT JUMPDEST PUSH2 0x4681 DUP3 PUSH2 0x463B JUMP JUMPDEST DUP2 ADD DUP2 DUP2 LT PUSH8 0xFFFFFFFFFFFFFFFF DUP3 GT OR ISZERO PUSH2 0x46A0 JUMPI PUSH2 0x469F PUSH2 0x464B JUMP JUMPDEST JUMPDEST DUP1 PUSH1 0x40 MSTORE POP POP POP JUMP JUMPDEST PUSH0 PUSH2 0x46B2 PUSH2 0x4269 JUMP JUMPDEST SWAP1 POP PUSH2 0x46BE DUP3 DUP3 PUSH2 0x4678 JUMP JUMPDEST SWAP2 SWAP1 POP JUMP JUMPDEST PUSH0 PUSH8 0xFFFFFFFFFFFFFFFF DUP3 GT ISZERO PUSH2 0x46DD JUMPI PUSH2 0x46DC PUSH2 0x464B JUMP JUMPDEST JUMPDEST PUSH2 0x46E6 DUP3 PUSH2 0x463B JUMP JUMPDEST SWAP1 POP PUSH1 0x20 DUP2 ADD SWAP1 POP SWAP2 SWAP1 POP JUMP JUMPDEST DUP3 DUP2 DUP4 CALLDATACOPY PUSH0 DUP4 DUP4 ADD MSTORE POP POP POP JUMP JUMPDEST PUSH0 PUSH2 0x4713 PUSH2 0x470E DUP5 PUSH2 0x46C3 JUMP JUMPDEST PUSH2 0x46A9 JUMP JUMPDEST SWAP1 POP DUP3 DUP2 MSTORE PUSH1 0x20 DUP2 ADD DUP5 DUP5 DUP5 ADD GT ISZERO PUSH2 0x472F JUMPI PUSH2 0x472E PUSH2 0x4637 JUMP JUMPDEST JUMPDEST PUSH2 0x473A DUP5 DUP3 DUP6 PUSH2 0x46F3 JUMP JUMPDEST POP SWAP4 SWAP3 POP POP POP JUMP JUMPDEST PUSH0 DUP3 PUSH1 0x1F DUP4 ADD SLT PUSH2 0x4756 JUMPI PUSH2 0x4755 PUSH2 0x4633 JUMP JUMPDEST JUMPDEST DUP2 CALLDATALOAD PUSH2 0x4766 DUP5 DUP3 PUSH1 0x20 DUP7 ADD PUSH2 0x4701 JUMP JUMPDEST SWAP2 POP POP SWAP3 SWAP2 POP POP JUMP JUMPDEST PUSH0 DUP1 PUSH1 0x40 DUP4 DUP6 SUB SLT ISZERO PUSH2 0x4785 JUMPI PUSH2 0x4784 PUSH2 0x4272 JUMP JUMPDEST JUMPDEST PUSH0 PUSH2 0x4792 DUP6 DUP3 DUP7 ADD PUSH2 0x43CE JUMP JUMPDEST SWAP3 POP POP PUSH1 0x20 DUP4 ADD CALLDATALOAD PUSH8 0xFFFFFFFFFFFFFFFF DUP2 GT ISZERO PUSH2 0x47B3 JUMPI PUSH2 0x47B2 PUSH2 0x4276 JUMP JUMPDEST JUMPDEST PUSH2 0x47BF DUP6 DUP3 DUP7 ADD PUSH2 0x4742 JUMP JUMPDEST SWAP2 POP POP SWAP3 POP SWAP3 SWAP1 POP JUMP JUMPDEST PUSH0 DUP1 PUSH1 0x40 DUP4 DUP6 SUB SLT ISZERO PUSH2 0x47DF JUMPI PUSH2 0x47DE PUSH2 0x4272 JUMP JUMPDEST JUMPDEST PUSH0 PUSH2 0x47EC DUP6 DUP3 DUP7 ADD PUSH2 0x4374 JUMP JUMPDEST SWAP3 POP POP PUSH1 0x20 PUSH2 0x47FD DUP6 DUP3 DUP7 ADD PUSH2 0x4374 JUMP JUMPDEST SWAP2 POP POP SWAP3 POP SWAP3 SWAP1 POP JUMP JUMPDEST PUSH0 DUP2 SWAP1 POP SWAP2 SWAP1 POP JUMP JUMPDEST PUSH0 PUSH2 0x482A PUSH2 0x4825 PUSH2 0x4820 DUP5 PUSH2 0x4388 JUMP JUMPDEST PUSH2 0x4807 JUMP JUMPDEST PUSH2 0x4388 JUMP JUMPDEST SWAP1 POP SWAP2 SWAP1 POP JUMP JUMPDEST PUSH0 PUSH2 0x483B DUP3 PUSH2 0x4810 JUMP JUMPDEST SWAP1 POP SWAP2 SWAP1 POP JUMP JUMPDEST PUSH0 PUSH2 0x484C DUP3 PUSH2 0x4831 JUMP JUMPDEST SWAP1 POP SWAP2 SWAP1 POP JUMP JUMPDEST PUSH2 0x485C DUP2 PUSH2 0x4842 JUMP JUMPDEST DUP3 MSTORE POP POP JUMP JUMPDEST PUSH0 PUSH1 0x20 DUP3 ADD SWAP1 POP PUSH2 0x4875 PUSH0 DUP4 ADD DUP5 PUSH2 0x4853 JUMP JUMPDEST SWAP3 SWAP2 POP POP JUMP JUMPDEST PUSH0 DUP2 MLOAD SWAP1 POP SWAP2 SWAP1 POP JUMP JUMPDEST PUSH0 DUP3 DUP3 MSTORE PUSH1 0x20 DUP3 ADD SWAP1 POP SWAP3 SWAP2 POP POP JUMP JUMPDEST DUP3 DUP2 DUP4 MCOPY PUSH0 DUP4 DUP4 ADD MSTORE POP POP POP JUMP JUMPDEST PUSH0 PUSH2 0x48AD DUP3 PUSH2 0x487B JUMP JUMPDEST PUSH2 0x48B7 DUP2 DUP6 PUSH2 0x4885 JUMP JUMPDEST SWAP4 POP PUSH2 0x48C7 DUP2 DUP6 PUSH1 0x20 DUP7 ADD PUSH2 0x4895 JUMP JUMPDEST PUSH2 0x48D0 DUP2 PUSH2 0x463B JUMP JUMPDEST DUP5 ADD SWAP2 POP POP SWAP3 SWAP2 POP POP JUMP JUMPDEST PUSH0 PUSH1 0x20 DUP3 ADD SWAP1 POP DUP2 DUP2 SUB PUSH0 DUP4 ADD MSTORE PUSH2 0x48F3 DUP2 DUP5 PUSH2 0x48A3 JUMP JUMPDEST SWAP1 POP SWAP3 SWAP2 POP POP JUMP JUMPDEST PUSH2 0x4904 DUP2 PUSH2 0x42FA JUMP JUMPDEST DUP2 EQ PUSH2 0x490E JUMPI PUSH0 DUP1 REVERT JUMPDEST POP JUMP JUMPDEST PUSH0 DUP2 CALLDATALOAD SWAP1 POP PUSH2 0x491F DUP2 PUSH2 0x48FB JUMP JUMPDEST SWAP3 SWAP2 POP POP JUMP JUMPDEST PUSH0 DUP1 PUSH0 DUP1 PUSH0 PUSH1 0xA0 DUP7 DUP9 SUB SLT ISZERO PUSH2 0x493E JUMPI PUSH2 0x493D PUSH2 0x4272 JUMP JUMPDEST JUMPDEST PUSH0 PUSH2 0x494B DUP9 DUP3 DUP10 ADD PUSH2 0x43CE JUMP JUMPDEST SWAP6 POP POP PUSH1 0x20 PUSH2 0x495C DUP9 DUP3 DUP10 ADD PUSH2 0x4374 JUMP JUMPDEST SWAP5 POP POP PUSH1 0x40 PUSH2 0x496D DUP9 DUP3 DUP10 ADD PUSH2 0x4374 JUMP JUMPDEST SWAP4 POP POP PUSH1 0x60 PUSH2 0x497E DUP9 DUP3 DUP10 ADD PUSH2 0x4374 JUMP JUMPDEST SWAP3 POP POP PUSH1 0x80 PUSH2 0x498F DUP9 DUP3 DUP10 ADD PUSH2 0x4911 JUMP JUMPDEST SWAP2 POP POP SWAP3 SWAP6 POP SWAP3 SWAP6 SWAP1 SWAP4 POP JUMP JUMPDEST PUSH0 DUP1 PUSH0 PUSH1 0x60 DUP5 DUP7 SUB SLT ISZERO PUSH2 0x49B3 JUMPI PUSH2 0x49B2 PUSH2 0x4272 JUMP JUMPDEST JUMPDEST PUSH0 PUSH2 0x49C0 DUP7 DUP3 DUP8 ADD PUSH2 0x4374 JUMP JUMPDEST SWAP4 POP POP PUSH1 0x20 PUSH2 0x49D1 DUP7 DUP3 DUP8 ADD PUSH2 0x4374 JUMP JUMPDEST SWAP3 POP POP PUSH1 0x40 PUSH2 0x49E2 DUP7 DUP3 DUP8 ADD PUSH2 0x4374 JUMP JUMPDEST SWAP2 POP POP SWAP3 POP SWAP3 POP SWAP3 JUMP JUMPDEST PUSH0 PUSH1 0x20 DUP3 DUP5 SUB SLT ISZERO PUSH2 0x4A01 JUMPI PUSH2 0x4A00 PUSH2 0x4272 JUMP JUMPDEST JUMPDEST PUSH0 PUSH2 0x4A0E DUP5 DUP3 DUP6 ADD PUSH2 0x45BB JUMP JUMPDEST SWAP2 POP POP SWAP3 SWAP2 POP POP JUMP JUMPDEST PUSH0 DUP1 PUSH0 PUSH1 0x60 DUP5 DUP7 SUB SLT ISZERO PUSH2 0x4A2E JUMPI PUSH2 0x4A2D PUSH2 0x4272 JUMP JUMPDEST JUMPDEST PUSH0 PUSH2 0x4A3B DUP7 DUP3 DUP8 ADD PUSH2 0x4374 JUMP JUMPDEST SWAP4 POP POP PUSH1 0x20 PUSH2 0x4A4C DUP7 DUP3 DUP8 ADD PUSH2 0x4374 JUMP JUMPDEST SWAP3 POP POP PUSH1 0x40 PUSH2 0x4A5D DUP7 DUP3 DUP8 ADD PUSH2 0x4911 JUMP JUMPDEST SWAP2 POP POP SWAP3 POP SWAP3 POP SWAP3 JUMP JUMPDEST PUSH2 0x4A70 DUP2 PUSH2 0x43A7 JUMP JUMPDEST DUP3 MSTORE POP POP JUMP JUMPDEST PUSH0 PUSH1 0xE0 DUP3 ADD SWAP1 POP PUSH2 0x4A89 PUSH0 DUP4 ADD DUP11 PUSH2 0x4A67 JUMP JUMPDEST PUSH2 0x4A96 PUSH1 0x20 DUP4 ADD DUP10 PUSH2 0x4336 JUMP JUMPDEST PUSH2 0x4AA3 PUSH1 0x40 DUP4 ADD DUP9 PUSH2 0x4336 JUMP JUMPDEST PUSH2 0x4AB0 PUSH1 0x60 DUP4 ADD DUP8 PUSH2 0x4336 JUMP JUMPDEST PUSH2 0x4ABD PUSH1 0x80 DUP4 ADD DUP7 PUSH2 0x4336 JUMP JUMPDEST PUSH2 0x4ACA PUSH1 0xA0 DUP4 ADD DUP6 PUSH2 0x4336 JUMP JUMPDEST PUSH2 0x4AD7 PUSH1 0xC0 DUP4 ADD DUP5 PUSH2 0x4336 JUMP JUMPDEST SWAP9 SWAP8 POP POP POP POP POP POP POP POP JUMP JUMPDEST PUSH0 PUSH1 0x40 DUP3 ADD SWAP1 POP PUSH2 0x4AF6 PUSH0 DUP4 ADD DUP6 PUSH2 0x4336 JUMP JUMPDEST PUSH2 0x4B03 PUSH1 0x20 DUP4 ADD DUP5 PUSH2 0x4336 JUMP JUMPDEST SWAP4 SWAP3 POP POP POP JUMP JUMPDEST PUSH32 0x696E76616C696420706964000000000000000000000000000000000000000000 PUSH0 DUP3 ADD MSTORE POP JUMP JUMPDEST PUSH0 PUSH2 0x4B3E PUSH1 0xB DUP4 PUSH2 0x4885 JUMP JUMPDEST SWAP2 POP PUSH2 0x4B49 DUP3 PUSH2 0x4B0A JUMP JUMPDEST PUSH1 0x20 DUP3 ADD SWAP1 POP SWAP2 SWAP1 POP JUMP JUMPDEST PUSH0 PUSH1 0x20 DUP3 ADD SWAP1 POP DUP2 DUP2 SUB PUSH0 DUP4 ADD MSTORE PUSH2 0x4B6B DUP2 PUSH2 0x4B32 JUMP JUMPDEST SWAP1 POP SWAP2 SWAP1 POP JUMP JUMPDEST PUSH32 0x7769746864726177206973207061757365640000000000000000000000000000 PUSH0 DUP3 ADD MSTORE POP JUMP JUMPDEST PUSH0 PUSH2 0x4BA6 PUSH1 0x12 DUP4 PUSH2 0x4885 JUMP JUMPDEST SWAP2 POP PUSH2 0x4BB1 DUP3 PUSH2 0x4B72 JUMP JUMPDEST PUSH1 0x20 DUP3 ADD SWAP1 POP SWAP2 SWAP1 POP JUMP JUMPDEST PUSH0 PUSH1 0x20 DUP3 ADD SWAP1 POP DUP2 DUP2 SUB PUSH0 DUP4 ADD MSTORE PUSH2 0x4BD3 DUP2 PUSH2 0x4B9A JUMP JUMPDEST SWAP1 POP SWAP2 SWAP1 POP JUMP JUMPDEST PUSH32 0x4E487B7100000000000000000000000000000000000000000000000000000000 PUSH0 MSTORE PUSH1 0x32 PUSH1 0x4 MSTORE PUSH1 0x24 PUSH0 REVERT JUMPDEST PUSH32 0x4E487B7100000000000000000000000000000000000000000000000000000000 PUSH0 MSTORE PUSH1 0x11 PUSH1 0x4 MSTORE PUSH1 0x24 PUSH0 REVERT JUMPDEST PUSH0 PUSH2 0x4C3E DUP3 PUSH2 0x432D JUMP JUMPDEST SWAP2 POP PUSH2 0x4C49 DUP4 PUSH2 0x432D JUMP JUMPDEST SWAP3 POP DUP3 DUP3 ADD SWAP1 POP DUP1 DUP3 GT ISZERO PUSH2 0x4C61 JUMPI PUSH2 0x4C60 PUSH2 0x4C07 JUMP JUMPDEST JUMPDEST SWAP3 SWAP2 POP POP JUMP JUMPDEST PUSH0 PUSH2 0x4C71 DUP3 PUSH2 0x432D JUMP JUMPDEST SWAP2 POP PUSH32 0xFFFFFFFFFFFFFFFFFFFFFFFFFFFFFFFFFFFFFFFFFFFFFFFFFFFFFFFFFFFFFFFF DUP3 SUB PUSH2 0x4CA3 JUMPI PUSH2 0x4CA2 PUSH2 0x4C07 JUMP JUMPDEST JUMPDEST PUSH1 0x1 DUP3 ADD SWAP1 POP SWAP2 SWAP1 POP JUMP JUMPDEST PUSH0 PUSH2 0x4CB8 DUP3 PUSH2 0x432D JUMP JUMPDEST SWAP2 POP PUSH2 0x4CC3 DUP4 PUSH2 0x432D JUMP JUMPDEST SWAP3 POP DUP3 DUP3 SUB SWAP1 POP DUP2 DUP2 GT ISZERO PUSH2 0x4CDB JUMPI PUSH2 0x4CDA PUSH2 0x4C07 JUMP JUMPDEST JUMPDEST SWAP3 SWAP2 POP POP JUMP JUMPDEST PUSH32 0x4E487B7100000000000000000000000000000000000000000000000000000000 PUSH0 MSTORE PUSH1 0x31 PUSH1 0x4 MSTORE PUSH1 0x24 PUSH0 REVERT JUMPDEST PUSH32 0x636C61696D206973207061757365640000000000000000000000000000000000 PUSH0 DUP3 ADD MSTORE POP JUMP JUMPDEST PUSH0 PUSH2 0x4D42 PUSH1 0xF DUP4 PUSH2 0x4885 JUMP JUMPDEST SWAP2 POP PUSH2 0x4D4D DUP3 PUSH2 0x4D0E JUMP JUMPDEST PUSH1 0x20 DUP3 ADD SWAP1 POP SWAP2 SWAP1 POP JUMP JUMPDEST PUSH0 PUSH1 0x20 DUP3 ADD SWAP1 POP DUP2 DUP2 SUB PUSH0 DUP4 ADD MSTORE PUSH2 0x4D6F DUP2 PUSH2 0x4D36 JUMP JUMPDEST SWAP1 POP SWAP2 SWAP1 POP JUMP JUMPDEST PUSH0 PUSH2 0x4D80 DUP3 PUSH2 0x432D JUMP JUMPDEST SWAP2 POP PUSH2 0x4D8B DUP4 PUSH2 0x432D JUMP JUMPDEST SWAP3 POP DUP3 DUP3 MUL PUSH2 0x4D99 DUP2 PUSH2 0x432D JUMP JUMPDEST SWAP2 POP DUP3 DUP3 DIV DUP5 EQ DUP4 ISZERO OR PUSH2 0x4DB0 JUMPI PUSH2 0x4DAF PUSH2 0x4C07 JUMP JUMPDEST JUMPDEST POP SWAP3 SWAP2 POP POP JUMP JUMPDEST PUSH32 0x4E487B7100000000000000000000000000000000000000000000000000000000 PUSH0 MSTORE PUSH1 0x12 PUSH1 0x4 MSTORE PUSH1 0x24 PUSH0 REVERT JUMPDEST PUSH0 PUSH2 0x4DEE DUP3 PUSH2 0x432D JUMP JUMPDEST SWAP2 POP PUSH2 0x4DF9 DUP4 PUSH2 0x432D JUMP JUMPDEST SWAP3 POP DUP3 PUSH2 0x4E09 JUMPI PUSH2 0x4E08 PUSH2 0x4DB7 JUMP JUMPDEST JUMPDEST DUP3 DUP3 DIV SWAP1 POP SWAP3 SWAP2 POP POP JUMP JUMPDEST PUSH32 0x696E76616C696420706172616D65746572730000000000000000000000000000 PUSH0 DUP3 ADD MSTORE POP JUMP JUMPDEST PUSH0 PUSH2 0x4E48 PUSH1 0x12 DUP4 PUSH2 0x4885 JUMP JUMPDEST SWAP2 POP PUSH2 0x4E53 DUP3 PUSH2 0x4E14 JUMP JUMPDEST PUSH1 0x20 DUP3 ADD SWAP1 POP SWAP2 SWAP1 POP JUMP JUMPDEST PUSH0 PUSH1 0x20 DUP3 ADD SWAP1 POP DUP2 DUP2 SUB PUSH0 DUP4 ADD MSTORE PUSH2 0x4E75 DUP2 PUSH2 0x4E3C JUMP JUMPDEST SWAP1 POP SWAP2 SWAP1 POP JUMP JUMPDEST PUSH0 DUP2 SWAP1 POP SWAP2 SWAP1 POP JUMP JUMPDEST PUSH0 PUSH8 0xFFFFFFFFFFFFFFFF DUP3 AND SWAP1 POP SWAP2 SWAP1 POP JUMP JUMPDEST PUSH0 PUSH2 0x4EB2 PUSH2 0x4EAD PUSH2 0x4EA8 DUP5 PUSH2 0x4E7C JUMP JUMPDEST PUSH2 0x4807 JUMP JUMPDEST PUSH2 0x4E85 JUMP JUMPDEST SWAP1 POP SWAP2 SWAP1 POP JUMP JUMPDEST PUSH2 0x4EC2 DUP2 PUSH2 0x4E98 JUMP JUMPDEST DUP3 MSTORE POP POP JUMP JUMPDEST PUSH0 PUSH1 0x20 DUP3 ADD SWAP1 POP PUSH2 0x4EDB PUSH0 DUP4 ADD DUP5 PUSH2 0x4EB9 JUMP JUMPDEST SWAP3 SWAP2 POP POP JUMP JUMPDEST PUSH32 0x746F74616C524343206D756C20706F6F6C576569676874206F766572666C6F77 PUSH0 DUP3 ADD MSTORE POP JUMP JUMPDEST PUSH0 PUSH2 0x4F15 PUSH1 0x20 DUP4 PUSH2 0x4885 JUMP JUMPDEST SWAP2 POP PUSH2 0x4F20 DUP3 PUSH2 0x4EE1 JUMP JUMPDEST PUSH1 0x20 DUP3 ADD SWAP1 POP SWAP2 SWAP1 POP JUMP JUMPDEST PUSH0 PUSH1 0x20 DUP3 ADD SWAP1 POP DUP2 DUP2 SUB PUSH0 DUP4 ADD MSTORE PUSH2 0x4F42 DUP2 PUSH2 0x4F09 JUMP JUMPDEST SWAP1 POP SWAP2 SWAP1 POP JUMP JUMPDEST PUSH32 0x746F74616C5243432064697620746F74616C506F6F6C576569676874206F7665 PUSH0 DUP3 ADD MSTORE PUSH32 0x72666C6F77000000000000000000000000000000000000000000000000000000 PUSH1 0x20 DUP3 ADD MSTORE POP JUMP JUMPDEST PUSH0 PUSH2 0x4FA3 PUSH1 0x25 DUP4 PUSH2 0x4885 JUMP JUMPDEST SWAP2 POP PUSH2 0x4FAE DUP3 PUSH2 0x4F49 JUMP JUMPDEST PUSH1 0x40 DUP3 ADD SWAP1 POP SWAP2 SWAP1 POP JUMP JUMPDEST PUSH0 PUSH1 0x20 DUP3 ADD SWAP1 POP DUP2 DUP2 SUB PUSH0 DUP4 ADD MSTORE PUSH2 0x4FD0 DUP2 PUSH2 0x4F97 JUMP JUMPDEST SWAP1 POP SWAP2 SWAP1 POP JUMP JUMPDEST PUSH32 0x746F74616C524343206D756C2031206574686572206F766572666C6F77000000 PUSH0 DUP3 ADD MSTORE POP JUMP JUMPDEST PUSH0 PUSH2 0x500B PUSH1 0x1D DUP4 PUSH2 0x4885 JUMP JUMPDEST SWAP2 POP PUSH2 0x5016 DUP3 PUSH2 0x4FD7 JUMP JUMPDEST PUSH1 0x20 DUP3 ADD SWAP1 POP SWAP2 SWAP1 POP JUMP JUMPDEST PUSH0 PUSH1 0x20 DUP3 ADD SWAP1 POP DUP2 DUP2 SUB PUSH0 DUP4 ADD MSTORE PUSH2 0x5038 DUP2 PUSH2 0x4FFF JUMP JUMPDEST SWAP1 POP SWAP2 SWAP1 POP JUMP JUMPDEST PUSH32 0x746F74616C52434320646976207374537570706C79206F766572666C6F770000 PUSH0 DUP3 ADD MSTORE POP JUMP JUMPDEST PUSH0 PUSH2 0x5073 PUSH1 0x1E DUP4 PUSH2 0x4885 JUMP JUMPDEST SWAP2 POP PUSH2 0x507E DUP3 PUSH2 0x503F JUMP JUMPDEST PUSH1 0x20 DUP3 ADD SWAP1 POP SWAP2 SWAP1 POP JUMP JUMPDEST PUSH0 PUSH1 0x20 DUP3 ADD SWAP1 POP DUP2 DUP2 SUB PUSH0 DUP4 ADD MSTORE PUSH2 0x50A0 DUP2 PUSH2 0x5067 JUMP JUMPDEST SWAP1 POP SWAP2 SWAP1 POP JUMP JUMPDEST PUSH32 0x706F6F6C206163635243435065725354206F766572666C6F7700000000000000 PUSH0 DUP3 ADD MSTORE POP JUMP JUMPDEST PUSH0 PUSH2 0x50DB PUSH1 0x19 DUP4 PUSH2 0x4885 JUMP JUMPDEST SWAP2 POP PUSH2 0x50E6 DUP3 PUSH2 0x50A7 JUMP JUMPDEST PUSH1 0x20 DUP3 ADD SWAP1 POP SWAP2 SWAP1 POP JUMP JUMPDEST PUSH0 PUSH1 0x20 DUP3 ADD SWAP1 POP DUP2 DUP2 SUB PUSH0 DUP4 ADD MSTORE PUSH2 0x5108 DUP2 PUSH2 0x50CF JUMP JUMPDEST SWAP1 POP SWAP2 SWAP1 POP JUMP JUMPDEST PUSH32 0x776974686472617720686173206265656E20616C726561647920756E70617573 PUSH0 DUP3 ADD MSTORE PUSH32 0x6564000000000000000000000000000000000000000000000000000000000000 PUSH1 0x20 DUP3 ADD MSTORE POP JUMP JUMPDEST PUSH0 PUSH2 0x5169 PUSH1 0x22 DUP4 PUSH2 0x4885 JUMP JUMPDEST SWAP2 POP PUSH2 0x5174 DUP3 PUSH2 0x510F JUMP JUMPDEST PUSH1 0x40 DUP3 ADD SWAP1 POP SWAP2 SWAP1 POP JUMP JUMPDEST PUSH0 PUSH1 0x20 DUP3 ADD SWAP1 POP DUP2 DUP2 SUB PUSH0 DUP4 ADD MSTORE PUSH2 0x5196 DUP2 PUSH2 0x515D JUMP JUMPDEST SWAP1 POP SWAP2 SWAP1 POP JUMP JUMPDEST PUSH32 0x776974686472617720686173206265656E20616C726561647920706175736564 PUSH0 DUP3 ADD MSTORE POP JUMP JUMPDEST PUSH0 PUSH2 0x51D1 PUSH1 0x20 DUP4 PUSH2 0x4885 JUMP JUMPDEST SWAP2 POP PUSH2 0x51DC DUP3 PUSH2 0x519D JUMP JUMPDEST PUSH1 0x20 DUP3 ADD SWAP1 POP SWAP2 SWAP1 POP JUMP JUMPDEST PUSH0 PUSH1 0x20 DUP3 ADD SWAP1 POP DUP2 DUP2 SUB PUSH0 DUP4 ADD MSTORE PUSH2 0x51FE DUP2 PUSH2 0x51C5 JUMP JUMPDEST SWAP1 POP SWAP2 SWAP1 POP JUMP JUMPDEST PUSH32 0x696E76616C696420626C6F636B2072616E676500000000000000000000000000 PUSH0 DUP3 ADD MSTORE POP JUMP JUMPDEST PUSH0 PUSH2 0x5239 PUSH1 0x13 DUP4 PUSH2 0x4885 JUMP JUMPDEST SWAP2 POP PUSH2 0x5244 DUP3 PUSH2 0x5205 JUMP JUMPDEST PUSH1 0x20 DUP3 ADD SWAP1 POP SWAP2 SWAP1 POP JUMP JUMPDEST PUSH0 PUSH1 0x20 DUP3 ADD SWAP1 POP DUP2 DUP2 SUB PUSH0 DUP4 ADD MSTORE PUSH2 0x5266 DUP2 PUSH2 0x522D JUMP JUMPDEST SWAP1 POP SWAP2 SWAP1 POP JUMP JUMPDEST PUSH32 0x656E6420626C6F636B206D7573742062652067726561746572207468616E2073 PUSH0 DUP3 ADD MSTORE PUSH32 0x7461727420626C6F636B00000000000000000000000000000000000000000000 PUSH1 0x20 DUP3 ADD MSTORE POP JUMP JUMPDEST PUSH0 PUSH2 0x52C7 PUSH1 0x2A DUP4 PUSH2 0x4885 JUMP JUMPDEST SWAP2 POP PUSH2 0x52D2 DUP3 PUSH2 0x526D JUMP JUMPDEST PUSH1 0x40 DUP3 ADD SWAP1 POP SWAP2 SWAP1 POP JUMP JUMPDEST PUSH0 PUSH1 0x20 DUP3 ADD SWAP1 POP DUP2 DUP2 SUB PUSH0 DUP4 ADD MSTORE PUSH2 0x52F4 DUP2 PUSH2 0x52BB JUMP JUMPDEST SWAP1 POP SWAP2 SWAP1 POP JUMP JUMPDEST PUSH32 0x6D756C7469706C696572206F766572666C6F7700000000000000000000000000 PUSH0 DUP3 ADD MSTORE POP JUMP JUMPDEST PUSH0 PUSH2 0x532F PUSH1 0x13 DUP4 PUSH2 0x4885 JUMP JUMPDEST SWAP2 POP PUSH2 0x533A DUP3 PUSH2 0x52FB JUMP JUMPDEST PUSH1 0x20 DUP3 ADD SWAP1 POP SWAP2 SWAP1 POP JUMP JUMPDEST PUSH0 PUSH1 0x20 DUP3 ADD SWAP1 POP DUP2 DUP2 SUB PUSH0 DUP4 ADD MSTORE PUSH2 0x535C DUP2 PUSH2 0x5323 JUMP JUMPDEST SWAP1 POP SWAP2 SWAP1 POP JUMP JUMPDEST PUSH32 0x636C61696D20686173206265656E20616C726561647920706175736564000000 PUSH0 DUP3 ADD MSTORE POP JUMP JUMPDEST PUSH0 PUSH2 0x5397 PUSH1 0x1D DUP4 PUSH2 0x4885 JUMP JUMPDEST SWAP2 POP PUSH2 0x53A2 DUP3 PUSH2 0x5363 JUMP JUMPDEST PUSH1 0x20 DUP3 ADD SWAP1 POP SWAP2 SWAP1 POP JUMP JUMPDEST PUSH0 PUSH1 0x20 DUP3 ADD SWAP1 POP DUP2 DUP2 SUB PUSH0 DUP4 ADD MSTORE PUSH2 0x53C4 DUP2 PUSH2 0x538B JUMP JUMPDEST SWAP1 POP SWAP2 SWAP1 POP JUMP JUMPDEST PUSH32 0x4E6F7420656E6F756768207374616B696E6720746F6B656E2062616C616E6365 PUSH0 DUP3 ADD MSTORE POP JUMP JUMPDEST PUSH0 PUSH2 0x53FF PUSH1 0x20 DUP4 PUSH2 0x4885 JUMP JUMPDEST SWAP2 POP PUSH2 0x540A DUP3 PUSH2 0x53CB JUMP JUMPDEST PUSH1 0x20 DUP3 ADD SWAP1 POP SWAP2 SWAP1 POP JUMP JUMPDEST PUSH0 PUSH1 0x20 DUP3 ADD SWAP1 POP DUP2 DUP2 SUB PUSH0 DUP4 ADD MSTORE PUSH2 0x542C DUP2 PUSH2 0x53F3 JUMP JUMPDEST SWAP1 POP SWAP2 SWAP1 POP JUMP JUMPDEST PUSH32 0x696E76616C6964207374616B696E6720746F6B656E2061646472657373000000 PUSH0 DUP3 ADD MSTORE POP JUMP JUMPDEST PUSH0 PUSH2 0x5467 PUSH1 0x1D DUP4 PUSH2 0x4885 JUMP JUMPDEST SWAP2 POP PUSH2 0x5472 DUP3 PUSH2 0x5433 JUMP JUMPDEST PUSH1 0x20 DUP3 ADD SWAP1 POP SWAP2 SWAP1 POP JUMP JUMPDEST PUSH0 PUSH1 0x20 DUP3 ADD SWAP1 POP DUP2 DUP2 SUB PUSH0 DUP4 ADD MSTORE PUSH2 0x5494 DUP2 PUSH2 0x545B JUMP JUMPDEST SWAP1 POP SWAP2 SWAP1 POP JUMP JUMPDEST PUSH32 0x6465706F73697420616D6F756E7420697320746F6F20736D616C6C0000000000 PUSH0 DUP3 ADD MSTORE POP JUMP JUMPDEST PUSH0 PUSH2 0x54CF PUSH1 0x1B DUP4 PUSH2 0x4885 JUMP JUMPDEST SWAP2 POP PUSH2 0x54DA DUP3 PUSH2 0x549B JUMP JUMPDEST PUSH1 0x20 DUP3 ADD SWAP1 POP SWAP2 SWAP1 POP JUMP JUMPDEST PUSH0 PUSH1 0x20 DUP3 ADD SWAP1 POP DUP2 DUP2 SUB PUSH0 DUP4 ADD MSTORE PUSH2 0x54FC DUP2 PUSH2 0x54C3 JUMP JUMPDEST SWAP1 POP SWAP2 SWAP1 POP JUMP JUMPDEST PUSH32 0x696E76616C6964207769746864726177206C6F636B656420626C6F636B730000 PUSH0 DUP3 ADD MSTORE POP JUMP JUMPDEST PUSH0 PUSH2 0x5537 PUSH1 0x1E DUP4 PUSH2 0x4885 JUMP JUMPDEST SWAP2 POP PUSH2 0x5542 DUP3 PUSH2 0x5503 JUMP JUMPDEST PUSH1 0x20 DUP3 ADD SWAP1 POP SWAP2 SWAP1 POP JUMP JUMPDEST PUSH0 PUSH1 0x20 DUP3 ADD SWAP1 POP DUP2 DUP2 SUB PUSH0 DUP4 ADD MSTORE PUSH2 0x5564 DUP2 PUSH2 0x552B JUMP JUMPDEST SWAP1 POP SWAP2 SWAP1 POP JUMP JUMPDEST PUSH32 0x416C726561647920656E64656400000000000000000000000000000000000000 PUSH0 DUP3 ADD MSTORE POP JUMP JUMPDEST PUSH0 PUSH2 0x559F PUSH1 0xD DUP4 PUSH2 0x4885 JUMP JUMPDEST SWAP2 POP PUSH2 0x55AA DUP3 PUSH2 0x556B JUMP JUMPDEST PUSH1 0x20 DUP3 ADD SWAP1 POP SWAP2 SWAP1 POP JUMP JUMPDEST PUSH0 PUSH1 0x20 DUP3 ADD SWAP1 POP DUP2 DUP2 SUB PUSH0 DUP4 ADD MSTORE PUSH2 0x55CC DUP2 PUSH2 0x5593 JUMP JUMPDEST SWAP1 POP SWAP2 SWAP1 POP JUMP JUMPDEST PUSH32 0x696E76616C696420706172616D65746572000000000000000000000000000000 PUSH0 DUP3 ADD MSTORE POP JUMP JUMPDEST PUSH0 PUSH2 0x5607 PUSH1 0x11 DUP4 PUSH2 0x4885 JUMP JUMPDEST SWAP2 POP PUSH2 0x5612 DUP3 PUSH2 0x55D3 JUMP JUMPDEST PUSH1 0x20 DUP3 ADD SWAP1 POP SWAP2 SWAP1 POP JUMP JUMPDEST PUSH0 PUSH1 0x20 DUP3 ADD SWAP1 POP DUP2 DUP2 SUB PUSH0 DUP4 ADD MSTORE PUSH2 0x5634 DUP2 PUSH2 0x55FB JUMP JUMPDEST SWAP1 POP SWAP2 SWAP1 POP JUMP JUMPDEST PUSH32 0x737461727420626C6F636B206D75737420626520736D616C6C6572207468616E PUSH0 DUP3 ADD MSTORE PUSH32 0x20656E6420626C6F636B00000000000000000000000000000000000000000000 PUSH1 0x20 DUP3 ADD MSTORE POP JUMP JUMPDEST PUSH0 PUSH2 0x5695 PUSH1 0x2A DUP4 PUSH2 0x4885 JUMP JUMPDEST SWAP2 POP PUSH2 0x56A0 DUP3 PUSH2 0x563B JUMP JUMPDEST PUSH1 0x40 DUP3 ADD SWAP1 POP SWAP2 SWAP1 POP JUMP JUMPDEST PUSH0 PUSH1 0x20 DUP3 ADD SWAP1 POP DUP2 DUP2 SUB PUSH0 DUP4 ADD MSTORE PUSH2 0x56C2 DUP2 PUSH2 0x5689 JUMP JUMPDEST SWAP1 POP SWAP2 SWAP1 POP JUMP JUMPDEST PUSH32 0x636C61696D20686173206265656E20616C726561647920756E70617573656400 PUSH0 DUP3 ADD MSTORE POP JUMP JUMPDEST PUSH0 PUSH2 0x56FD PUSH1 0x1F DUP4 PUSH2 0x4885 JUMP JUMPDEST SWAP2 POP PUSH2 0x5708 DUP3 PUSH2 0x56C9 JUMP JUMPDEST PUSH1 0x20 DUP3 ADD SWAP1 POP SWAP2 SWAP1 POP JUMP JUMPDEST PUSH0 PUSH1 0x20 DUP3 ADD SWAP1 POP DUP2 DUP2 SUB PUSH0 DUP4 ADD MSTORE PUSH2 0x572A DUP2 PUSH2 0x56F1 JUMP JUMPDEST SWAP1 POP SWAP2 SWAP1 POP JUMP JUMPDEST PUSH32 0x6465706F736974206E6F7420737570706F7274206E617469766543757272656E PUSH0 DUP3 ADD MSTORE PUSH32 0x6379207374616B696E6700000000000000000000000000000000000000000000 PUSH1 0x20 DUP3 ADD MSTORE POP JUMP JUMPDEST PUSH0 PUSH2 0x578B PUSH1 0x2A DUP4 PUSH2 0x4885 JUMP JUMPDEST SWAP2 POP PUSH2 0x5796 DUP3 PUSH2 0x5731 JUMP JUMPDEST PUSH1 0x40 DUP3 ADD SWAP1 POP SWAP2 SWAP1 POP JUMP JUMPDEST PUSH0 PUSH1 0x20 DUP3 ADD SWAP1 POP DUP2 DUP2 SUB PUSH0 DUP4 ADD MSTORE PUSH2 0x57B8 DUP2 PUSH2 0x577F JUMP JUMPDEST SWAP1 POP SWAP2 SWAP1 POP JUMP JUMPDEST PUSH32 0x696E76616C696420706F6F6C2077656967687400000000000000000000000000 PUSH0 DUP3 ADD MSTORE POP JUMP JUMPDEST PUSH0 PUSH2 0x57F3 PUSH1 0x13 DUP4 PUSH2 0x4885 JUMP JUMPDEST SWAP2 POP PUSH2 0x57FE DUP3 PUSH2 0x57BF JUMP JUMPDEST PUSH1 0x20 DUP3 ADD SWAP1 POP SWAP2 SWAP1 POP JUMP JUMPDEST PUSH0 PUSH1 0x20 DUP3 ADD SWAP1 POP DUP2 DUP2 SUB PUSH0 DUP4 ADD MSTORE PUSH2 0x5820 DUP2 PUSH2 0x57E7 JUMP JUMPDEST SWAP1 POP SWAP2 SWAP1 POP JUMP JUMPDEST PUSH0 DUP2 SWAP1 POP SWAP3 SWAP2 POP POP JUMP JUMPDEST POP JUMP JUMPDEST PUSH0 PUSH2 0x583F PUSH0 DUP4 PUSH2 0x5827 JUMP JUMPDEST SWAP2 POP PUSH2 0x584A DUP3 PUSH2 0x5831 JUMP JUMPDEST PUSH0 DUP3 ADD SWAP1 POP SWAP2 SWAP1 POP JUMP JUMPDEST PUSH0 PUSH2 0x585E DUP3 PUSH2 0x5834 JUMP JUMPDEST SWAP2 POP DUP2 SWAP1 POP SWAP2 SWAP1 POP JUMP JUMPDEST PUSH32 0x6E617469766543757272656E6379207472616E736665722063616C6C20666169 PUSH0 DUP3 ADD MSTORE PUSH32 0x6C65640000000000000000000000000000000000000000000000000000000000 PUSH1 0x20 DUP3 ADD MSTORE POP JUMP JUMPDEST PUSH0 PUSH2 0x58C2 PUSH1 0x23 DUP4 PUSH2 0x4885 JUMP JUMPDEST SWAP2 POP PUSH2 0x58CD DUP3 PUSH2 0x5868 JUMP JUMPDEST PUSH1 0x40 DUP3 ADD SWAP1 POP SWAP2 SWAP1 POP JUMP JUMPDEST PUSH0 PUSH1 0x20 DUP3 ADD SWAP1 POP DUP2 DUP2 SUB PUSH0 DUP4 ADD MSTORE PUSH2 0x58EF DUP2 PUSH2 0x58B6 JUMP JUMPDEST SWAP1 POP SWAP2 SWAP1 POP JUMP JUMPDEST PUSH0 DUP2 MLOAD SWAP1 POP PUSH2 0x5904 DUP2 PUSH2 0x48FB JUMP JUMPDEST SWAP3 SWAP2 POP POP JUMP JUMPDEST PUSH0 PUSH1 0x20 DUP3 DUP5 SUB SLT ISZERO PUSH2 0x591F JUMPI PUSH2 0x591E PUSH2 0x4272 JUMP JUMPDEST JUMPDEST PUSH0 PUSH2 0x592C DUP5 DUP3 DUP6 ADD PUSH2 0x58F6 JUMP JUMPDEST SWAP2 POP POP SWAP3 SWAP2 POP POP JUMP JUMPDEST PUSH32 0x6E617469766543757272656E6379207472616E73666572206F7065726174696F PUSH0 DUP3 ADD MSTORE PUSH32 0x6E20646964206E6F742073756363656564000000000000000000000000000000 PUSH1 0x20 DUP3 ADD MSTORE POP JUMP JUMPDEST PUSH0 PUSH2 0x598F PUSH1 0x31 DUP4 PUSH2 0x4885 JUMP JUMPDEST SWAP2 POP PUSH2 0x599A DUP3 PUSH2 0x5935 JUMP JUMPDEST PUSH1 0x40 DUP3 ADD SWAP1 POP SWAP2 SWAP1 POP JUMP JUMPDEST PUSH0 PUSH1 0x20 DUP3 ADD SWAP1 POP DUP2 DUP2 SUB PUSH0 DUP4 ADD MSTORE PUSH2 0x59BC DUP2 PUSH2 0x5983 JUMP JUMPDEST SWAP1 POP SWAP2 SWAP1 POP JUMP JUMPDEST PUSH0 PUSH1 0x40 DUP3 ADD SWAP1 POP PUSH2 0x59D6 PUSH0 DUP4 ADD DUP6 PUSH2 0x4A67 JUMP JUMPDEST PUSH2 0x59E3 PUSH1 0x20 DUP4 ADD DUP5 PUSH2 0x4336 JUMP JUMPDEST SWAP4 SWAP3 POP POP POP JUMP JUMPDEST PUSH0 PUSH1 0x20 DUP3 ADD SWAP1 POP PUSH2 0x59FD PUSH0 DUP4 ADD DUP5 PUSH2 0x4A67 JUMP JUMPDEST SWAP3 SWAP2 POP POP JUMP JUMPDEST PUSH0 DUP2 MLOAD SWAP1 POP PUSH2 0x5A11 DUP2 PUSH2 0x435E JUMP JUMPDEST SWAP3 SWAP2 POP POP JUMP JUMPDEST PUSH0 PUSH1 0x20 DUP3 DUP5 SUB SLT ISZERO PUSH2 0x5A2C JUMPI PUSH2 0x5A2B PUSH2 0x4272 JUMP JUMPDEST JUMPDEST PUSH0 PUSH2 0x5A39 DUP5 DUP3 DUP6 ADD PUSH2 0x5A03 JUMP JUMPDEST SWAP2 POP POP SWAP3 SWAP2 POP POP JUMP JUMPDEST PUSH0 DUP2 MLOAD SWAP1 POP PUSH2 0x5A50 DUP2 PUSH2 0x4429 JUMP JUMPDEST SWAP3 SWAP2 POP POP JUMP JUMPDEST PUSH0 PUSH1 0x20 DUP3 DUP5 SUB SLT ISZERO PUSH2 0x5A6B JUMPI PUSH2 0x5A6A PUSH2 0x4272 JUMP JUMPDEST JUMPDEST PUSH0 PUSH2 0x5A78 DUP5 DUP3 DUP6 ADD PUSH2 0x5A42 JUMP JUMPDEST SWAP2 POP POP SWAP3 SWAP2 POP POP JUMP JUMPDEST PUSH32 0x75736572207374416D6F756E74206D756C206163635243435065725354206F76 PUSH0 DUP3 ADD MSTORE PUSH32 0x6572666C6F770000000000000000000000000000000000000000000000000000 PUSH1 0x20 DUP3 ADD MSTORE POP JUMP JUMPDEST PUSH0 PUSH2 0x5ADB PUSH1 0x26 DUP4 PUSH2 0x4885 JUMP JUMPDEST SWAP2 POP PUSH2 0x5AE6 DUP3 PUSH2 0x5A81 JUMP JUMPDEST PUSH1 0x40 DUP3 ADD SWAP1 POP SWAP2 SWAP1 POP JUMP JUMPDEST PUSH0 PUSH1 0x20 DUP3 ADD SWAP1 POP DUP2 DUP2 SUB PUSH0 DUP4 ADD MSTORE PUSH2 0x5B08 DUP2 PUSH2 0x5ACF JUMP JUMPDEST SWAP1 POP SWAP2 SWAP1 POP JUMP JUMPDEST PUSH32 0x6163635354206469762031206574686572206F766572666C6F77000000000000 PUSH0 DUP3 ADD MSTORE POP JUMP JUMPDEST PUSH0 PUSH2 0x5B43 PUSH1 0x1A DUP4 PUSH2 0x4885 JUMP JUMPDEST SWAP2 POP PUSH2 0x5B4E DUP3 PUSH2 0x5B0F JUMP JUMPDEST PUSH1 0x20 DUP3 ADD SWAP1 POP SWAP2 SWAP1 POP JUMP JUMPDEST PUSH0 PUSH1 0x20 DUP3 ADD SWAP1 POP DUP2 DUP2 SUB PUSH0 DUP4 ADD MSTORE PUSH2 0x5B70 DUP2 PUSH2 0x5B37 JUMP JUMPDEST SWAP1 POP SWAP2 SWAP1 POP JUMP JUMPDEST PUSH32 0x6163635354207375622066696E6973686564524343206F766572666C6F770000 PUSH0 DUP3 ADD MSTORE POP JUMP JUMPDEST PUSH0 PUSH2 0x5BAB PUSH1 0x1E DUP4 PUSH2 0x4885 JUMP JUMPDEST SWAP2 POP PUSH2 0x5BB6 DUP3 PUSH2 0x5B77 JUMP JUMPDEST PUSH1 0x20 DUP3 ADD SWAP1 POP SWAP2 SWAP1 POP JUMP JUMPDEST PUSH0 PUSH1 0x20 DUP3 ADD SWAP1 POP DUP2 DUP2 SUB PUSH0 DUP4 ADD MSTORE PUSH2 0x5BD8 DUP2 PUSH2 0x5B9F JUMP JUMPDEST SWAP1 POP SWAP2 SWAP1 POP JUMP JUMPDEST PUSH32 0x757365722070656E64696E67524343206F766572666C6F770000000000000000 PUSH0 DUP3 ADD MSTORE POP JUMP JUMPDEST PUSH0 PUSH2 0x5C13 PUSH1 0x18 DUP4 PUSH2 0x4885 JUMP JUMPDEST SWAP2 POP PUSH2 0x5C1E DUP3 PUSH2 0x5BDF JUMP JUMPDEST PUSH1 0x20 DUP3 ADD SWAP1 POP SWAP2 SWAP1 POP JUMP JUMPDEST PUSH0 PUSH1 0x20 DUP3 ADD SWAP1 POP DUP2 DUP2 SUB PUSH0 DUP4 ADD MSTORE PUSH2 0x5C40 DUP2 PUSH2 0x5C07 JUMP JUMPDEST SWAP1 POP SWAP2 SWAP1 POP JUMP JUMPDEST PUSH32 0x75736572207374416D6F756E74206F766572666C6F7700000000000000000000 PUSH0 DUP3 ADD MSTORE POP JUMP JUMPDEST PUSH0 PUSH2 0x5C7B PUSH1 0x16 DUP4 PUSH2 0x4885 JUMP JUMPDEST SWAP2 POP PUSH2 0x5C86 DUP3 PUSH2 0x5C47 JUMP JUMPDEST PUSH1 0x20 DUP3 ADD SWAP1 POP SWAP2 SWAP1 POP JUMP JUMPDEST PUSH0 PUSH1 0x20 DUP3 ADD SWAP1 POP DUP2 DUP2 SUB PUSH0 DUP4 ADD MSTORE PUSH2 0x5CA8 DUP2 PUSH2 0x5C6F JUMP JUMPDEST SWAP1 POP SWAP2 SWAP1 POP JUMP JUMPDEST PUSH32 0x706F6F6C207374546F6B656E416D6F756E74206F766572666C6F770000000000 PUSH0 DUP3 ADD MSTORE POP JUMP JUMPDEST PUSH0 PUSH2 0x5CE3 PUSH1 0x1B DUP4 PUSH2 0x4885 JUMP JUMPDEST SWAP2 POP PUSH2 0x5CEE DUP3 PUSH2 0x5CAF JUMP JUMPDEST PUSH1 0x20 DUP3 ADD SWAP1 POP SWAP2 SWAP1 POP JUMP JUMPDEST PUSH0 PUSH1 0x20 DUP3 ADD SWAP1 POP DUP2 DUP2 SUB PUSH0 DUP4 ADD MSTORE PUSH2 0x5D10 DUP2 PUSH2 0x5CD7 JUMP JUMPDEST SWAP1 POP SWAP2 SWAP1 POP JUMP JUMPDEST PUSH32 0x66696E6973686564524343206469762031206574686572206F766572666C6F77 PUSH0 DUP3 ADD MSTORE POP JUMP JUMPDEST PUSH0 PUSH2 0x5D4B PUSH1 0x20 DUP4 PUSH2 0x4885 JUMP JUMPDEST SWAP2 POP PUSH2 0x5D56 DUP3 PUSH2 0x5D17 JUMP JUMPDEST PUSH1 0x20 DUP3 ADD SWAP1 POP SWAP2 SWAP1 POP JUMP JUMPDEST PUSH0 PUSH1 0x20 DUP3 ADD SWAP1 POP DUP2 DUP2 SUB PUSH0 DUP4 ADD MSTORE PUSH2 0x5D78 DUP2 PUSH2 0x5D3F JUMP JUMPDEST SWAP1 POP SWAP2 SWAP1 POP JUMP JUMPDEST PUSH0 PUSH1 0x60 DUP3 ADD SWAP1 POP PUSH2 0x5D92 PUSH0 DUP4 ADD DUP7 PUSH2 0x4A67 JUMP JUMPDEST PUSH2 0x5D9F PUSH1 0x20 DUP4 ADD DUP6 PUSH2 0x4A67 JUMP JUMPDEST PUSH2 0x5DAC PUSH1 0x40 DUP4 ADD DUP5 PUSH2 0x4336 JUMP JUMPDEST SWAP5 SWAP4 POP POP POP POP JUMP JUMPDEST PUSH0 PUSH1 0x40 DUP3 ADD SWAP1 POP PUSH2 0x5DC7 PUSH0 DUP4 ADD DUP6 PUSH2 0x4A67 JUMP JUMPDEST PUSH2 0x5DD4 PUSH1 0x20 DUP4 ADD DUP5 PUSH2 0x447E JUMP JUMPDEST SWAP4 SWAP3 POP POP POP JUMP JUMPDEST PUSH0 DUP2 MLOAD SWAP1 POP SWAP2 SWAP1 POP JUMP JUMPDEST PUSH0 PUSH2 0x5DEF DUP3 PUSH2 0x5DDB JUMP JUMPDEST PUSH2 0x5DF9 DUP2 DUP6 PUSH2 0x5827 JUMP JUMPDEST SWAP4 POP PUSH2 0x5E09 DUP2 DUP6 PUSH1 0x20 DUP7 ADD PUSH2 0x4895 JUMP JUMPDEST DUP1 DUP5 ADD SWAP2 POP POP SWAP3 SWAP2 POP POP JUMP JUMPDEST PUSH0 PUSH2 0x5E20 DUP3 DUP5 PUSH2 0x5DE5 JUMP JUMPDEST SWAP2 POP DUP2 SWAP1 POP SWAP3 SWAP2 POP POP JUMP INVALID LOG2 PUSH5 0x6970667358 0x22 SLT KECCAK256 DUP1 0x22 LOG4 CREATE2 PUSH26 0xD566B970D158A1846A7D5EE2191A49E9982B35EDBA63CDFDC56B MOD PUSH5 0x736F6C6343 STOP ADDMOD BYTE STOP CALLER "
		},
		"gasEstimates": {
			"creation": {
				"codeDepositCost": "4832200",
				"executionCost": "infinite",
				"totalCost": "infinite"
			},
			"external": {
				"ADMIN_ROLE()": "371",
				"DEFAULT_ADMIN_ROLE()": "486",
				"RCC()": "infinite",
				"RCCPerBlock()": "2471",
				"UPGRADE_INTERFACE_VERSION()": "infinite",
				"UPGRADE_ROLE()": "480",
				"addPool(address,uint256,uint256,uint256,bool)": "infinite",
				"claim(uint256)": "infinite",
				"claimPaused()": "2606",
				"deposit(uint256,uint256)": "infinite",
				"depositnativeCurrency()": "infinite",
				"endBlock()": "2538",
				"getMultiplier(uint256,uint256)": "infinite",
				"getRoleAdmin(bytes32)": "infinite",
				"grantRole(bytes32,address)": "infinite",
				"hasRole(bytes32,address)": "3286",
				"initialize(address,uint256,uint256,uint256)": "infinite",
				"massUpdatePools()": "infinite",
				"nativeCurrency_PID()": "369",
				"pauseClaim()": "30054",
				"pauseWithdraw()": "29995",
				"paused()": "2636",
				"pendingRCC(uint256,address)": "infinite",
				"pendingRCCByBlockNumber(uint256,address,uint256)": "infinite",
				"pool(uint256)": "infinite",
				"poolLength()": "2531",
				"proxiableUUID()": "infinite",
				"renounceRole(bytes32,address)": "infinite",
				"revokeRole(bytes32,address)": "infinite",
				"setEndBlock(uint256)": "28405",
				"setPoolWeight(uint256,uint256,bool)": "infinite",
				"setRCC(address)": "infinite",
				"setRCCPerBlock(uint256)": "26280",
				"setStartBlock(uint256)": "28382",
				"stakingBalance(uint256,address)": "infinite",
				"startBlock()": "2536",
				"supportsInterface(bytes4)": "764",
				"totalPoolWeight()": "2494",
				"unpauseClaim()": "30115",
				"unpauseWithdraw()": "29947",
				"unstake(uint256,uint256)": "infinite",
				"updatePool(uint256)": "infinite",
				"updatePool(uint256,uint256,uint256)": "infinite",
				"upgradeToAndCall(address,bytes)": "infinite",
				"user(uint256,address)": "infinite",
				"withdraw(uint256)": "infinite",
				"withdrawAmount(uint256,address)": "infinite",
				"withdrawPaused()": "2556"
			},
			"internal": {
				"_authorizeUpgrade(address)": "infinite",
				"_deposit(uint256,uint256)": "infinite",
				"_safeRCCTransfer(address,uint256)": "infinite",
				"_safenativeCurrencyTransfer(address,uint256)": "infinite"
			}
		},
		"methodIdentifiers": {
			"ADMIN_ROLE()": "75b238fc",
			"DEFAULT_ADMIN_ROLE()": "a217fddf",
			"RCC()": "a72d5bf4",
			"RCCPerBlock()": "386be144",
			"UPGRADE_INTERFACE_VERSION()": "ad3cb1cc",
			"UPGRADE_ROLE()": "b908afa8",
			"addPool(address,uint256,uint256,uint256,bool)": "b6d9d919",
			"claim(uint256)": "379607f5",
			"claimPaused()": "ab5e124a",
			"deposit(uint256,uint256)": "e2bbb158",
			"depositnativeCurrency()": "a6707ee4",
			"endBlock()": "083c6323",
			"getMultiplier(uint256,uint256)": "8dbb1e3a",
			"getRoleAdmin(bytes32)": "248a9ca3",
			"grantRole(bytes32,address)": "2f2ff15d",
			"hasRole(bytes32,address)": "91d14854",
			"initialize(address,uint256,uint256,uint256)": "4ec81af1",
			"massUpdatePools()": "630b5ba1",
			"nativeCurrency_PID()": "b9d49c2a",
			"pauseClaim()": "8ff095f9",
			"pauseWithdraw()": "6155e3de",
			"paused()": "5c975abb",
			"pendingRCC(uint256,address)": "3b82783e",
			"pendingRCCByBlockNumber(uint256,address,uint256)": "41721ab7",
			"pool(uint256)": "fe313112",
			"poolLength()": "081e3eda",
			"proxiableUUID()": "52d1902d",
			"renounceRole(bytes32,address)": "36568abe",
			"revokeRole(bytes32,address)": "d547741f",
			"setEndBlock(uint256)": "c713aa94",
			"setPoolWeight(uint256,uint256,bool)": "fad07ece",
			"setRCC(address)": "f5485d32",
			"setRCCPerBlock(uint256)": "bed66c08",
			"setStartBlock(uint256)": "f35e4a6e",
			"stakingBalance(uint256,address)": "11548234",
			"startBlock()": "48cd4cb1",
			"supportsInterface(bytes4)": "01ffc9a7",
			"totalPoolWeight()": "02559004",
			"unpauseClaim()": "de065caa",
			"unpauseWithdraw()": "5bb6d007",
			"unstake(uint256,uint256)": "9e2c8a5b",
			"updatePool(uint256)": "51eb05a6",
			"updatePool(uint256,uint256,uint256)": "d86c0444",
			"upgradeToAndCall(address,bytes)": "4f1ef286",
			"user(uint256,address)": "37849b3c",
			"withdraw(uint256)": "2e1a7d4d",
			"withdrawAmount(uint256,address)": "ff423357",
			"withdrawPaused()": "2f3ffb9f"
		}
	},
	"abi": [
		{
			"inputs": [],
			"name": "AccessControlBadConfirmation",
			"type": "error"
		},
		{
			"inputs": [
				{
					"internalType": "address",
					"name": "account",
					"type": "address"
				},
				{
					"internalType": "bytes32",
					"name": "neededRole",
					"type": "bytes32"
				}
			],
			"name": "AccessControlUnauthorizedAccount",
			"type": "error"
		},
		{
			"inputs": [
				{
					"internalType": "address",
					"name": "target",
					"type": "address"
				}
			],
			"name": "AddressEmptyCode",
			"type": "error"
		},
		{
			"inputs": [
				{
					"internalType": "address",
					"name": "implementation",
					"type": "address"
				}
			],
			"name": "ERC1967InvalidImplementation",
			"type": "error"
		},
		{
			"inputs": [],
			"name": "ERC1967NonPayable",
			"type": "error"
		},
		{
			"inputs": [],
			"name": "EnforcedPause",
			"type": "error"
		},
		{
			"inputs": [],
			"name": "ExpectedPause",
			"type": "error"
		},
		{
			"inputs": [],
			"name": "FailedCall",
			"type": "error"
		},
		{
			"inputs": [],
			"name": "InvalidInitialization",
			"type": "error"
		},
		{
			"inputs": [],
			"name": "NotInitializing",
			"type": "error"
		},
		{
			"inputs": [
				{
					"internalType": "address",
					"name": "token",
					"type": "address"
				}
			],
			"name": "SafeERC20FailedOperation",
			"type": "error"
		},
		{
			"inputs": [],
			"name": "UUPSUnauthorizedCallContext",
			"type": "error"
		},
		{
			"inputs": [
				{
					"internalType": "bytes32",
					"name": "slot",
					"type": "bytes32"
				}
			],
			"name": "UUPSUnsupportedProxiableUUID",
			"type": "error"
		},
		{
			"anonymous": false,
			"inputs": [
				{
					"indexed": true,
					"internalType": "address",
					"name": "stTokenAddress",
					"type": "address"
				},
				{
					"indexed": true,
					"internalType": "uint256",
					"name": "poolWeight",
					"type": "uint256"
				},
				{
					"indexed": true,
					"internalType": "uint256",
					"name": "lastRewardBlock",
					"type": "uint256"
				},
				{
					"indexed": false,
					"internalType": "uint256",
					"name": "minDepositAmount",
					"type": "uint256"
				},
				{
					"indexed": false,
					"internalType": "uint256",
					"name": "unstakeLockedBlocks",
					"type": "uint256"
				}
			],
			"name": "AddPool",
			"type": "event"
		},
		{
			"anonymous": false,
			"inputs": [
				{
					"indexed": true,
					"internalType": "address",
					"name": "user",
					"type": "address"
				},
				{
					"indexed": true,
					"internalType": "uint256",
					"name": "poolId",
					"type": "uint256"
				},
				{
					"indexed": false,
					"internalType": "uint256",
					"name": "RCCReward",
					"type": "uint256"
				}
			],
			"name": "Claim",
			"type": "event"
		},
		{
			"anonymous": false,
			"inputs": [
				{
					"indexed": true,
					"internalType": "address",
					"name": "user",
					"type": "address"
				},
				{
					"indexed": true,
					"internalType": "uint256",
					"name": "poolId",
					"type": "uint256"
				},
				{
					"indexed": false,
					"internalType": "uint256",
					"name": "amount",
					"type": "uint256"
				}
			],
			"name": "Deposit",
			"type": "event"
		},
		{
			"anonymous": false,
			"inputs": [
				{
					"indexed": false,
					"internalType": "uint64",
					"name": "version",
					"type": "uint64"
				}
			],
			"name": "Initialized",
			"type": "event"
		},
		{
			"anonymous": false,
			"inputs": [],
			"name": "PauseClaim",
			"type": "event"
		},
		{
			"anonymous": false,
			"inputs": [],
			"name": "PauseWithdraw",
			"type": "event"
		},
		{
			"anonymous": false,
			"inputs": [
				{
					"indexed": false,
					"internalType": "address",
					"name": "account",
					"type": "address"
				}
			],
			"name": "Paused",
			"type": "event"
		},
		{
			"anonymous": false,
			"inputs": [
				{
					"indexed": true,
					"internalType": "address",
					"name": "user",
					"type": "address"
				},
				{
					"indexed": true,
					"internalType": "uint256",
					"name": "poolId",
					"type": "uint256"
				},
				{
					"indexed": false,
					"internalType": "uint256",
					"name": "amount",
					"type": "uint256"
				}
			],
			"name": "RequestUnstake",
			"type": "event"
		},
		{
			"anonymous": false,
			"inputs": [
				{
					"indexed": true,
					"internalType": "bytes32",
					"name": "role",
					"type": "bytes32"
				},
				{
					"indexed": true,
					"internalType": "bytes32",
					"name": "previousAdminRole",
					"type": "bytes32"
				},
				{
					"indexed": true,
					"internalType": "bytes32",
					"name": "newAdminRole",
					"type": "bytes32"
				}
			],
			"name": "RoleAdminChanged",
			"type": "event"
		},
		{
			"anonymous": false,
			"inputs": [
				{
					"indexed": true,
					"internalType": "bytes32",
					"name": "role",
					"type": "bytes32"
				},
				{
					"indexed": true,
					"internalType": "address",
					"name": "account",
					"type": "address"
				},
				{
					"indexed": true,
					"internalType": "address",
					"name": "sender",
					"type": "address"
				}
			],
			"name": "RoleGranted",
			"type": "event"
		},
		{
			"anonymous": false,
			"inputs": [
				{
					"indexed": true,
					"internalType": "bytes32",
					"name": "role",
					"type": "bytes32"
				},
				{
					"indexed": true,
					"internalType": "address",
					"name": "account",
					"type": "address"
				},
				{
					"indexed": true,
					"internalType": "address",
					"name": "sender",
					"type": "address"
				}
			],
			"name": "RoleRevoked",
			"type": "event"
		},
		{
			"anonymous": false,
			"inputs": [
				{
					"indexed": true,
					"internalType": "uint256",
					"name": "endBlock",
					"type": "uint256"
				}
			],
			"name": "SetEndBlock",
			"type": "event"
		},
		{
			"anonymous": false,
			"inputs": [
				{
					"indexed": true,
					"internalType": "uint256",
					"name": "poolId",
					"type": "uint256"
				},
				{
					"indexed": true,
					"internalType": "uint256",
					"name": "poolWeight",
					"type": "uint256"
				},
				{
					"indexed": false,
					"internalType": "uint256",
					"name": "totalPoolWeight",
					"type": "uint256"
				}
			],
			"name": "SetPoolWeight",
			"type": "event"
		},
		{
			"anonymous": false,
			"inputs": [
				{
					"indexed": true,
					"internalType": "contract IERC20",
					"name": "RCC",
					"type": "address"
				}
			],
			"name": "SetRCC",
			"type": "event"
		},
		{
			"anonymous": false,
			"inputs": [
				{
					"indexed": true,
					"internalType": "uint256",
					"name": "RCCPerBlock",
					"type": "uint256"
				}
			],
			"name": "SetRCCPerBlock",
			"type": "event"
		},
		{
			"anonymous": false,
			"inputs": [
				{
					"indexed": true,
					"internalType": "uint256",
					"name": "startBlock",
					"type": "uint256"
				}
			],
			"name": "SetStartBlock",
			"type": "event"
		},
		{
			"anonymous": false,
			"inputs": [],
			"name": "UnpauseClaim",
			"type": "event"
		},
		{
			"anonymous": false,
			"inputs": [],
			"name": "UnpauseWithdraw",
			"type": "event"
		},
		{
			"anonymous": false,
			"inputs": [
				{
					"indexed": false,
					"internalType": "address",
					"name": "account",
					"type": "address"
				}
			],
			"name": "Unpaused",
			"type": "event"
		},
		{
			"anonymous": false,
			"inputs": [
				{
					"indexed": true,
					"internalType": "uint256",
					"name": "poolId",
					"type": "uint256"
				},
				{
					"indexed": true,
					"internalType": "uint256",
					"name": "lastRewardBlock",
					"type": "uint256"
				},
				{
					"indexed": false,
					"internalType": "uint256",
					"name": "totalRCC",
					"type": "uint256"
				}
			],
			"name": "UpdatePool",
			"type": "event"
		},
		{
			"anonymous": false,
			"inputs": [
				{
					"indexed": true,
					"internalType": "uint256",
					"name": "poolId",
					"type": "uint256"
				},
				{
					"indexed": true,
					"internalType": "uint256",
					"name": "minDepositAmount",
					"type": "uint256"
				},
				{
					"indexed": true,
					"internalType": "uint256",
					"name": "unstakeLockedBlocks",
					"type": "uint256"
				}
			],
			"name": "UpdatePoolInfo",
			"type": "event"
		},
		{
			"anonymous": false,
			"inputs": [
				{
					"indexed": true,
					"internalType": "address",
					"name": "implementation",
					"type": "address"
				}
			],
			"name": "Upgraded",
			"type": "event"
		},
		{
			"anonymous": false,
			"inputs": [
				{
					"indexed": true,
					"internalType": "address",
					"name": "user",
					"type": "address"
				},
				{
					"indexed": true,
					"internalType": "uint256",
					"name": "poolId",
					"type": "uint256"
				},
				{
					"indexed": false,
					"internalType": "uint256",
					"name": "amount",
					"type": "uint256"
				},
				{
					"indexed": true,
					"internalType": "uint256",
					"name": "blockNumber",
					"type": "uint256"
				}
			],
			"name": "Withdraw",
			"type": "event"
		},
		{
			"inputs": [],
			"name": "ADMIN_ROLE",
			"outputs": [
				{
					"internalType": "bytes32",
					"name": "",
					"type": "bytes32"
				}
			],
			"stateMutability": "view",
			"type": "function"
		},
		{
			"inputs": [],
			"name": "DEFAULT_ADMIN_ROLE",
			"outputs": [
				{
					"internalType": "bytes32",
					"name": "",
					"type": "bytes32"
				}
			],
			"stateMutability": "view",
			"type": "function"
		},
		{
			"inputs": [],
			"name": "RCC",
			"outputs": [
				{
					"internalType": "contract IERC20",
					"name": "",
					"type": "address"
				}
			],
			"stateMutability": "view",
			"type": "function"
		},
		{
			"inputs": [],
			"name": "RCCPerBlock",
			"outputs": [
				{
					"internalType": "uint256",
					"name": "",
					"type": "uint256"
				}
			],
			"stateMutability": "view",
			"type": "function"
		},
		{
			"inputs": [],
			"name": "UPGRADE_INTERFACE_VERSION",
			"outputs": [
				{
					"internalType": "string",
					"name": "",
					"type": "string"
				}
			],
			"stateMutability": "view",
			"type": "function"
		},
		{
			"inputs": [],
			"name": "UPGRADE_ROLE",
			"outputs": [
				{
					"internalType": "bytes32",
					"name": "",
					"type": "bytes32"
				}
			],
			"stateMutability": "view",
			"type": "function"
		},
		{
			"inputs": [
				{
					"internalType": "address",
					"name": "_stTokenAddress",
					"type": "address"
				},
				{
					"internalType": "uint256",
					"name": "_poolWeight",
					"type": "uint256"
				},
				{
					"internalType": "uint256",
					"name": "_minDepositAmount",
					"type": "uint256"
				},
				{
					"internalType": "uint256",
					"name": "_unstakeLockedBlocks",
					"type": "uint256"
				},
				{
					"internalType": "bool",
					"name": "_withUpdate",
					"type": "bool"
				}
			],
			"name": "addPool",
			"outputs": [],
			"stateMutability": "nonpayable",
			"type": "function"
		},
		{
			"inputs": [
				{
					"internalType": "uint256",
					"name": "_pid",
					"type": "uint256"
				}
			],
			"name": "claim",
			"outputs": [],
			"stateMutability": "nonpayable",
			"type": "function"
		},
		{
			"inputs": [],
			"name": "claimPaused",
			"outputs": [
				{
					"internalType": "bool",
					"name": "",
					"type": "bool"
				}
			],
			"stateMutability": "view",
			"type": "function"
		},
		{
			"inputs": [
				{
					"internalType": "uint256",
					"name": "_pid",
					"type": "uint256"
				},
				{
					"internalType": "uint256",
					"name": "_amount",
					"type": "uint256"
				}
			],
			"name": "deposit",
			"outputs": [],
			"stateMutability": "nonpayable",
			"type": "function"
		},
		{
			"inputs": [],
			"name": "depositnativeCurrency",
			"outputs": [],
			"stateMutability": "payable",
			"type": "function"
		},
		{
			"inputs": [],
			"name": "endBlock",
			"outputs": [
				{
					"internalType": "uint256",
					"name": "",
					"type": "uint256"
				}
			],
			"stateMutability": "view",
			"type": "function"
		},
		{
			"inputs": [
				{
					"internalType": "uint256",
					"name": "_from",
					"type": "uint256"
				},
				{
					"internalType": "uint256",
					"name": "_to",
					"type": "uint256"
				}
			],
			"name": "getMultiplier",
			"outputs": [
				{
					"internalType": "uint256",
					"name": "multiplier",
					"type": "uint256"
				}
			],
			"stateMutability": "view",
			"type": "function"
		},
		{
			"inputs": [
				{
					"internalType": "bytes32",
					"name": "role",
					"type": "bytes32"
				}
			],
			"name": "getRoleAdmin",
			"outputs": [
				{
					"internalType": "bytes32",
					"name": "",
					"type": "bytes32"
				}
			],
			"stateMutability": "view",
			"type": "function"
		},
		{
			"inputs": [
				{
					"internalType": "bytes32",
					"name": "role",
					"type": "bytes32"
				},
				{
					"internalType": "address",
					"name": "account",
					"type": "address"
				}
			],
			"name": "grantRole",
			"outputs": [],
			"stateMutability": "nonpayable",
			"type": "function"
		},
		{
			"inputs": [
				{
					"internalType": "bytes32",
					"name": "role",
					"type": "bytes32"
				},
				{
					"internalType": "address",
					"name": "account",
					"type": "address"
				}
			],
			"name": "hasRole",
			"outputs": [
				{
					"internalType": "bool",
					"name": "",
					"type": "bool"
				}
			],
			"stateMutability": "view",
			"type": "function"
		},
		{
			"inputs": [
				{
					"internalType": "contract IERC20",
					"name": "_RCC",
					"type": "address"
				},
				{
					"internalType": "uint256",
					"name": "_startBlock",
					"type": "uint256"
				},
				{
					"internalType": "uint256",
					"name": "_endBlock",
					"type": "uint256"
				},
				{
					"internalType": "uint256",
					"name": "_RCCPerBlock",
					"type": "uint256"
				}
			],
			"name": "initialize",
			"outputs": [],
			"stateMutability": "nonpayable",
			"type": "function"
		},
		{
			"inputs": [],
			"name": "massUpdatePools",
			"outputs": [],
			"stateMutability": "nonpayable",
			"type": "function"
		},
		{
			"inputs": [],
			"name": "nativeCurrency_PID",
			"outputs": [
				{
					"internalType": "uint256",
					"name": "",
					"type": "uint256"
				}
			],
			"stateMutability": "view",
			"type": "function"
		},
		{
			"inputs": [],
			"name": "pauseClaim",
			"outputs": [],
			"stateMutability": "nonpayable",
			"type": "function"
		},
		{
			"inputs": [],
			"name": "pauseWithdraw",
			"outputs": [],
			"stateMutability": "nonpayable",
			"type": "function"
		},
		{
			"inputs": [],
			"name": "paused",
			"outputs": [
				{
					"internalType": "bool",
					"name": "",
					"type": "bool"
				}
			],
			"stateMutability": "view",
			"type": "function"
		},
		{
			"inputs": [
				{
					"internalType": "uint256",
					"name": "_pid",
					"type": "uint256"
				},
				{
					"internalType": "address",
					"name": "_user",
					"type": "address"
				}
			],
			"name": "pendingRCC",
			"outputs": [
				{
					"internalType": "uint256",
					"name": "",
					"type": "uint256"
				}
			],
			"stateMutability": "view",
			"type": "function"
		},
		{
			"inputs": [
				{
					"internalType": "uint256",
					"name": "_pid",
					"type": "uint256"
				},
				{
					"internalType": "address",
					"name": "_user",
					"type": "address"
				},
				{
					"internalType": "uint256",
					"name": "_blockNumber",
					"type": "uint256"
				}
			],
			"name": "pendingRCCByBlockNumber",
			"outputs": [
				{
					"internalType": "uint256",
					"name": "",
					"type": "uint256"
				}
			],
			"stateMutability": "view",
			"type": "function"
		},
		{
			"inputs": [
				{
					"internalType": "uint256",
					"name": "",
					"type": "uint256"
				}
			],
			"name": "pool",
			"outputs": [
				{
					"internalType": "address",
					"name": "stTokenAddress",
					"type": "address"
				},
				{
					"internalType": "uint256",
					"name": "poolWeight",
					"type": "uint256"
				},
				{
					"internalType": "uint256",
					"name": "lastRewardBlock",
					"type": "uint256"
				},
				{
					"internalType": "uint256",
					"name": "accRCCPerST",
					"type": "uint256"
				},
				{
					"internalType": "uint256",
					"name": "stTokenAmount",
					"type": "uint256"
				},
				{
					"internalType": "uint256",
					"name": "minDepositAmount",
					"type": "uint256"
				},
				{
					"internalType": "uint256",
					"name": "unstakeLockedBlocks",
					"type": "uint256"
				}
			],
			"stateMutability": "view",
			"type": "function"
		},
		{
			"inputs": [],
			"name": "poolLength",
			"outputs": [
				{
					"internalType": "uint256",
					"name": "",
					"type": "uint256"
				}
			],
			"stateMutability": "view",
			"type": "function"
		},
		{
			"inputs": [],
			"name": "proxiableUUID",
			"outputs": [
				{
					"internalType": "bytes32",
					"name": "",
					"type": "bytes32"
				}
			],
			"stateMutability": "view",
			"type": "function"
		},
		{
			"inputs": [
				{
					"internalType": "bytes32",
					"name": "role",
					"type": "bytes32"
				},
				{
					"internalType": "address",
					"name": "callerConfirmation",
					"type": "address"
				}
			],
			"name": "renounceRole",
			"outputs": [],
			"stateMutability": "nonpayable",
			"type": "function"
		},
		{
			"inputs": [
				{
					"internalType": "bytes32",
					"name": "role",
					"type": "bytes32"
				},
				{
					"internalType": "address",
					"name": "account",
					"type": "address"
				}
			],
			"name": "revokeRole",
			"outputs": [],
			"stateMutability": "nonpayable",
			"type": "function"
		},
		{
			"inputs": [
				{
					"internalType": "uint256",
					"name": "_endBlock",
					"type": "uint256"
				}
			],
			"name": "setEndBlock",
			"outputs": [],
			"stateMutability": "nonpayable",
			"type": "function"
		},
		{
			"inputs": [
				{
					"internalType": "uint256",
					"name": "_pid",
					"type": "uint256"
				},
				{
					"internalType": "uint256",
					"name": "_poolWeight",
					"type": "uint256"
				},
				{
					"internalType": "bool",
					"name": "_withUpdate",
					"type": "bool"
				}
			],
			"name": "setPoolWeight",
			"outputs": [],
			"stateMutability": "nonpayable",
			"type": "function"
		},
		{
			"inputs": [
				{
					"internalType": "contract IERC20",
					"name": "_RCC",
					"type": "address"
				}
			],
			"name": "setRCC",
			"outputs": [],
			"stateMutability": "nonpayable",
			"type": "function"
		},
		{
			"inputs": [
				{
					"internalType": "uint256",
					"name": "_RCCPerBlock",
					"type": "uint256"
				}
			],
			"name": "setRCCPerBlock",
			"outputs": [],
			"stateMutability": "nonpayable",
			"type": "function"
		},
		{
			"inputs": [
				{
					"internalType": "uint256",
					"name": "_startBlock",
					"type": "uint256"
				}
			],
			"name": "setStartBlock",
			"outputs": [],
			"stateMutability": "nonpayable",
			"type": "function"
		},
		{
			"inputs": [
				{
					"internalType": "uint256",
					"name": "_pid",
					"type": "uint256"
				},
				{
					"internalType": "address",
					"name": "_user",
					"type": "address"
				}
			],
			"name": "stakingBalance",
			"outputs": [
				{
					"internalType": "uint256",
					"name": "",
					"type": "uint256"
				}
			],
			"stateMutability": "view",
			"type": "function"
		},
		{
			"inputs": [],
			"name": "startBlock",
			"outputs": [
				{
					"internalType": "uint256",
					"name": "",
					"type": "uint256"
				}
			],
			"stateMutability": "view",
			"type": "function"
		},
		{
			"inputs": [
				{
					"internalType": "bytes4",
					"name": "interfaceId",
					"type": "bytes4"
				}
			],
			"name": "supportsInterface",
			"outputs": [
				{
					"internalType": "bool",
					"name": "",
					"type": "bool"
				}
			],
			"stateMutability": "view",
			"type": "function"
		},
		{
			"inputs": [],
			"name": "totalPoolWeight",
			"outputs": [
				{
					"internalType": "uint256",
					"name": "",
					"type": "uint256"
				}
			],
			"stateMutability": "view",
			"type": "function"
		},
		{
			"inputs": [],
			"name": "unpauseClaim",
			"outputs": [],
			"stateMutability": "nonpayable",
			"type": "function"
		},
		{
			"inputs": [],
			"name": "unpauseWithdraw",
			"outputs": [],
			"stateMutability": "nonpayable",
			"type": "function"
		},
		{
			"inputs": [
				{
					"internalType": "uint256",
					"name": "_pid",
					"type": "uint256"
				},
				{
					"internalType": "uint256",
					"name": "_amount",
					"type": "uint256"
				}
			],
			"name": "unstake",
			"outputs": [],
			"stateMutability": "nonpayable",
			"type": "function"
		},
		{
			"inputs": [
				{
					"internalType": "uint256",
					"name": "_pid",
					"type": "uint256"
				}
			],
			"name": "updatePool",
			"outputs": [],
			"stateMutability": "nonpayable",
			"type": "function"
		},
		{
			"inputs": [
				{
					"internalType": "uint256",
					"name": "_pid",
					"type": "uint256"
				},
				{
					"internalType": "uint256",
					"name": "_minDepositAmount",
					"type": "uint256"
				},
				{
					"internalType": "uint256",
					"name": "_unstakeLockedBlocks",
					"type": "uint256"
				}
			],
			"name": "updatePool",
			"outputs": [],
			"stateMutability": "nonpayable",
			"type": "function"
		},
		{
			"inputs": [
				{
					"internalType": "address",
					"name": "newImplementation",
					"type": "address"
				},
				{
					"internalType": "bytes",
					"name": "data",
					"type": "bytes"
				}
			],
			"name": "upgradeToAndCall",
			"outputs": [],
			"stateMutability": "payable",
			"type": "function"
		},
		{
			"inputs": [
				{
					"internalType": "uint256",
					"name": "",
					"type": "uint256"
				},
				{
					"internalType": "address",
					"name": "",
					"type": "address"
				}
			],
			"name": "user",
			"outputs": [
				{
					"internalType": "uint256",
					"name": "stAmount",
					"type": "uint256"
				},
				{
					"internalType": "uint256",
					"name": "finishedRCC",
					"type": "uint256"
				},
				{
					"internalType": "uint256",
					"name": "pendingRCC",
					"type": "uint256"
				}
			],
			"stateMutability": "view",
			"type": "function"
		},
		{
			"inputs": [
				{
					"internalType": "uint256",
					"name": "_pid",
					"type": "uint256"
				}
			],
			"name": "withdraw",
			"outputs": [],
			"stateMutability": "nonpayable",
			"type": "function"
		},
		{
			"inputs": [
				{
					"internalType": "uint256",
					"name": "_pid",
					"type": "uint256"
				},
				{
					"internalType": "address",
					"name": "_user",
					"type": "address"
				}
			],
			"name": "withdrawAmount",
			"outputs": [
				{
					"internalType": "uint256",
					"name": "requestAmount",
					"type": "uint256"
				},
				{
					"internalType": "uint256",
					"name": "pendingWithdrawAmount",
					"type": "uint256"
				}
			],
			"stateMutability": "view",
			"type": "function"
		},
		{
			"inputs": [],
			"name": "withdrawPaused",
			"outputs": [
				{
					"internalType": "bool",
					"name": "",
					"type": "bool"
				}
			],
			"stateMutability": "view",
			"type": "function"
		}
	]
}